{"abi":[{"inputs":[{"internalType":"uint256","name":"_totalTiket","type":"uint256"},{"internalType":"uint256","name":"_maxTiketPerIdentitas","type":"uint256"},{"internalType":"uint256","name":"_hargaTiket","type":"uint256"}],"stateMutability":"nonpayable","type":"constructor"},{"anonymous":false,"inputs":[{"indexed":true,"internalType":"uint256","name":"holdId","type":"uint256"},{"indexed":false,"internalType":"uint256","name":"jumlah","type":"uint256"}],"name":"TiketDiHold","type":"event"},{"anonymous":false,"inputs":[{"indexed":true,"internalType":"uint256","name":"idTiket","type":"uint256"},{"indexed":true,"internalType":"bytes32","name":"nikHash","type":"bytes32"},{"indexed":false,"internalType":"string","name":"kodeUnik","type":"string"}],"name":"TiketDibeli","type":"event"},{"anonymous":false,"inputs":[{"indexed":true,"internalType":"uint256","name":"idTiket","type":"uint256"},{"indexed":true,"internalType":"bytes32","name":"nikHash","type":"bytes32"}],"name":"TiketDigunakan","type":"event"},{"anonymous":false,"inputs":[{"indexed":true,"internalType":"uint256","name":"holdId","type":"uint256"}],"name":"TiketDilepas","type":"event"},{"inputs":[{"internalType":"uint256","name":"holdId","type":"uint256"},{"internalType":"string","name":"nik","type":"string"}],"name":"beliTiket","outputs":[],"stateMutability":"nonpayable","type":"function"},{"inputs":[{"internalType":"string","name":"kodeTiket","type":"string"},{"internalType":"string","name":"nik","type":"string"}],"name":"cekTiket","outputs":[{"internalType":"bool","name":"","type":"bool"},{"internalType":"string","name":"","type":"string"}],"stateMutability":"view","type":"function"},{"inputs":[{"internalType":"uint256","name":"","type":"uint256"}],"name":"daftarTiket","outputs":[{"internalType":"bytes32","name":"nikHash","type":"bytes32"},{"internalType":"string","name":"kodeUnik","type":"string"},{"internalType":"bool","name":"digunakan","type":"bool"}],"stateMutability":"view","type":"function"},{"inputs":[],"name":"getHargaTiket","outputs":[{"internalType":"uint256","name":"","type":"uint256"}],"stateMutability":"view","type":"function"},{"inputs":[],"name":"getTiketDiHold","outputs":[{"internalType":"uint256","name":"","type":"uint256"}],"stateMutability":"view","type":"function"},{"inputs":[{"internalType":"string","name":"kodeTiket","type":"string"},{"internalType":"string","name":"nik","type":"string"}],"name":"gunakanTiket","outputs":[],"stateMutability":"nonpayable","type":"function"},{"inputs":[],"name":"hargaTiket","outputs":[{"internalType":"uint256","name":"","type":"uint256"}],"stateMutability":"view","type":"function"},{"inputs":[],"name":"holdDuration","outputs":[{"internalType":"uint256","name":"","type":"uint256"}],"stateMutability":"view","type":"function"},{"inputs":[{"internalType":"uint256","name":"","type":"uint256"}],"name":"holdNik","outputs":[{"internalType":"string","name":"","type":"string"}],"stateMutability":"view","type":"function"},{"inputs":[{"internalType":"uint256","name":"","type":"uint256"}],"name":"holdTiketData","outputs":[{"internalType":"uint256","name":"jumlahTiket","type":"uint256"},{"internalType":"uint256","name":"holdTimestamp","type":"uint256"},{"internalType":"bool","name":"aktif","type":"bool"}],"stateMutability":"view","type":"function"},{"inputs":[{"internalType":"uint256","name":"jumlahTiket","type":"uint256"}],"name":"holdTiketSementara","outputs":[{"internalType":"uint256","name":"","type":"uint256"}],"stateMutability":"nonpayable","type":"function"},{"inputs":[{"internalType":"string","name":"","type":"string"}],"name":"kodeTiketToId","outputs":[{"internalType":"uint256","name":"","type":"uint256"}],"stateMutability":"view","type":"function"},{"inputs":[],"name":"maxTiketPerIdentitas","outputs":[{"internalType":"uint256","name":"","type":"uint256"}],"stateMutability":"view","type":"function"},{"inputs":[],"name":"nextHoldId","outputs":[{"internalType":"uint256","name":"","type":"uint256"}],"stateMutability":"view","type":"function"},{"inputs":[],"name":"owner","outputs":[{"internalType":"address","name":"","type":"address"}],"stateMutability":"view","type":"function"},{"inputs":[{"internalType":"uint256","name":"holdId","type":"uint256"}],"name":"releaseHoldTiket","outputs":[],"stateMutability":"nonpayable","type":"function"},{"inputs":[{"internalType":"string","name":"","type":"string"}],"name":"tiketDibeliPerNIK","outputs":[{"internalType":"uint256","name":"","type":"uint256"}],"stateMutability":"view","type":"function"},{"inputs":[{"internalType":"bytes32","name":"","type":"bytes32"}],"name":"tiketPerIdentitas","outputs":[{"internalType":"uint256","name":"","type":"uint256"}],"stateMutability":"view","type":"function"},{"inputs":[],"name":"tiketTerjual","outputs":[{"internalType":"uint256","name":"","type":"uint256"}],"stateMutability":"view","type":"function"},{"inputs":[],"name":"tiketTersedia","outputs":[{"internalType":"uint256","name":"","type":"uint256"}],"stateMutability":"view","type":"function"},{"inputs":[],"name":"totalTiket","outputs":[{"internalType":"uint256","name":"","type":"uint256"}],"stateMutability":"view","type":"function"}],"devdoc":{"kind":"dev","methods":{},"version":1},"evm":{"assembly":"    /* \"Tiket.sol\":126:7494  contract Tiket is ReentrancyGuard {... */\n  mstore(0x40, 0x80)\n    /* \"Tiket.sol\":332:335  300 */\n  0x012c\n    /* \"Tiket.sol\":302:335  uint256 public holdDuration = 300 */\n  0x05\n  sstore\n    /* \"Tiket.sol\":370:371  1 */\n  0x01\n    /* \"Tiket.sol\":342:371  uint256 public nextHoldId = 1 */\n  0x06\n  sstore\n    /* \"Tiket.sol\":1434:1742  constructor(... */\n  callvalue\n  dup1\n  iszero\n  tag_1\n  jumpi\n  0x00\n  dup1\n  revert\ntag_1:\n  pop\n  mload(0x40)\n  sub(codesize, bytecodeSize)\n  dup1\n  bytecodeSize\n  dup4\n  codecopy\n  dup2\n  dup2\n  add\n  0x40\n  mstore\n  dup2\n  add\n  swap1\n  tag_2\n  swap2\n  swap1\n  tag_3\n  jump\t// in\ntag_2:\n    /* \"@openzeppelin/contracts/security/ReentrancyGuard.sol\":1716:1717   */\n  0x01\n    /* \"@openzeppelin/contracts/security/ReentrancyGuard.sol\":1821:1828   */\n  0x00\n    /* \"@openzeppelin/contracts/security/ReentrancyGuard.sol\":1821:1843   */\n  dup2\n  swap1\n  sstore\n  pop\n    /* \"Tiket.sol\":1572:1582  msg.sender */\n  caller\n    /* \"Tiket.sol\":1564:1569  owner */\n  0x01\n  0x00\n    /* \"Tiket.sol\":1564:1582  owner = msg.sender */\n  0x0100\n  exp\n  dup2\n  sload\n  dup2\n  0xffffffffffffffffffffffffffffffffffffffff\n  mul\n  not\n  and\n  swap1\n  dup4\n  0xffffffffffffffffffffffffffffffffffffffff\n  and\n  mul\n  or\n  swap1\n  sstore\n  pop\n    /* \"Tiket.sol\":1606:1617  _totalTiket */\n  dup3\n    /* \"Tiket.sol\":1593:1603  totalTiket */\n  0x02\n    /* \"Tiket.sol\":1593:1617  totalTiket = _totalTiket */\n  dup2\n  swap1\n  sstore\n  pop\n    /* \"Tiket.sol\":1651:1672  _maxTiketPerIdentitas */\n  dup2\n    /* \"Tiket.sol\":1628:1648  maxTiketPerIdentitas */\n  0x04\n    /* \"Tiket.sol\":1628:1672  maxTiketPerIdentitas = _maxTiketPerIdentitas */\n  dup2\n  swap1\n  sstore\n  pop\n    /* \"Tiket.sol\":1698:1699  0 */\n  0x00\n    /* \"Tiket.sol\":1683:1695  tiketTerjual */\n  0x03\n    /* \"Tiket.sol\":1683:1699  tiketTerjual = 0 */\n  dup2\n  swap1\n  sstore\n  pop\n    /* \"Tiket.sol\":1723:1734  _hargaTiket */\n  dup1\n    /* \"Tiket.sol\":1710:1720  hargaTiket */\n  0x07\n    /* \"Tiket.sol\":1710:1734  hargaTiket = _hargaTiket */\n  dup2\n  swap1\n  sstore\n  pop\n    /* \"Tiket.sol\":1434:1742  constructor(... */\n  pop\n  pop\n  pop\n    /* \"Tiket.sol\":126:7494  contract Tiket is ReentrancyGuard {... */\n  jump(tag_8)\n    /* \"#utility.yul\":88:205   */\ntag_10:\n    /* \"#utility.yul\":197:198   */\n  0x00\n    /* \"#utility.yul\":194:195   */\n  dup1\n    /* \"#utility.yul\":187:199   */\n  revert\n    /* \"#utility.yul\":334:411   */\ntag_12:\n    /* \"#utility.yul\":371:378   */\n  0x00\n    /* \"#utility.yul\":400:405   */\n  dup2\n    /* \"#utility.yul\":389:405   */\n  swap1\n  pop\n    /* \"#utility.yul\":334:411   */\n  swap2\n  swap1\n  pop\n  jump\t// out\n    /* \"#utility.yul\":417:539   */\ntag_13:\n    /* \"#utility.yul\":490:514   */\n  tag_21\n    /* \"#utility.yul\":508:513   */\n  dup2\n    /* \"#utility.yul\":490:514   */\n  tag_12\n  jump\t// in\ntag_21:\n    /* \"#utility.yul\":483:488   */\n  dup2\n    /* \"#utility.yul\":480:515   */\n  eq\n    /* \"#utility.yul\":470:533   */\n  tag_22\n  jumpi\n    /* \"#utility.yul\":529:530   */\n  0x00\n    /* \"#utility.yul\":526:527   */\n  dup1\n    /* \"#utility.yul\":519:531   */\n  revert\n    /* \"#utility.yul\":470:533   */\ntag_22:\n    /* \"#utility.yul\":417:539   */\n  pop\n  jump\t// out\n    /* \"#utility.yul\":545:688   */\ntag_14:\n    /* \"#utility.yul\":602:607   */\n  0x00\n    /* \"#utility.yul\":633:639   */\n  dup2\n    /* \"#utility.yul\":627:640   */\n  mload\n    /* \"#utility.yul\":618:640   */\n  swap1\n  pop\n    /* \"#utility.yul\":649:682   */\n  tag_24\n    /* \"#utility.yul\":676:681   */\n  dup2\n    /* \"#utility.yul\":649:682   */\n  tag_13\n  jump\t// in\ntag_24:\n    /* \"#utility.yul\":545:688   */\n  swap3\n  swap2\n  pop\n  pop\n  jump\t// out\n    /* \"#utility.yul\":694:1357   */\ntag_3:\n    /* \"#utility.yul\":782:788   */\n  0x00\n    /* \"#utility.yul\":790:796   */\n  dup1\n    /* \"#utility.yul\":798:804   */\n  0x00\n    /* \"#utility.yul\":847:849   */\n  0x60\n    /* \"#utility.yul\":835:844   */\n  dup5\n    /* \"#utility.yul\":826:833   */\n  dup7\n    /* \"#utility.yul\":822:845   */\n  sub\n    /* \"#utility.yul\":818:850   */\n  slt\n    /* \"#utility.yul\":815:934   */\n  iszero\n  tag_26\n  jumpi\n    /* \"#utility.yul\":853:932   */\n  tag_27\n  tag_10\n  jump\t// in\ntag_27:\n    /* \"#utility.yul\":815:934   */\ntag_26:\n    /* \"#utility.yul\":973:974   */\n  0x00\n    /* \"#utility.yul\":998:1062   */\n  tag_28\n    /* \"#utility.yul\":1054:1061   */\n  dup7\n    /* \"#utility.yul\":1045:1051   */\n  dup3\n    /* \"#utility.yul\":1034:1043   */\n  dup8\n    /* \"#utility.yul\":1030:1052   */\n  add\n    /* \"#utility.yul\":998:1062   */\n  tag_14\n  jump\t// in\ntag_28:\n    /* \"#utility.yul\":988:1062   */\n  swap4\n  pop\n    /* \"#utility.yul\":944:1072   */\n  pop\n    /* \"#utility.yul\":1111:1113   */\n  0x20\n    /* \"#utility.yul\":1137:1201   */\n  tag_29\n    /* \"#utility.yul\":1193:1200   */\n  dup7\n    /* \"#utility.yul\":1184:1190   */\n  dup3\n    /* \"#utility.yul\":1173:1182   */\n  dup8\n    /* \"#utility.yul\":1169:1191   */\n  add\n    /* \"#utility.yul\":1137:1201   */\n  tag_14\n  jump\t// in\ntag_29:\n    /* \"#utility.yul\":1127:1201   */\n  swap3\n  pop\n    /* \"#utility.yul\":1082:1211   */\n  pop\n    /* \"#utility.yul\":1250:1252   */\n  0x40\n    /* \"#utility.yul\":1276:1340   */\n  tag_30\n    /* \"#utility.yul\":1332:1339   */\n  dup7\n    /* \"#utility.yul\":1323:1329   */\n  dup3\n    /* \"#utility.yul\":1312:1321   */\n  dup8\n    /* \"#utility.yul\":1308:1330   */\n  add\n    /* \"#utility.yul\":1276:1340   */\n  tag_14\n  jump\t// in\ntag_30:\n    /* \"#utility.yul\":1266:1340   */\n  swap2\n  pop\n    /* \"#utility.yul\":1221:1350   */\n  pop\n    /* \"#utility.yul\":694:1357   */\n  swap3\n  pop\n  swap3\n  pop\n  swap3\n  jump\t// out\n    /* \"Tiket.sol\":126:7494  contract Tiket is ReentrancyGuard {... */\ntag_8:\n  dataSize(sub_0)\n  dup1\n  dataOffset(sub_0)\n  0x00\n  codecopy\n  0x00\n  return\nstop\n\nsub_0: assembly {\n        /* \"Tiket.sol\":126:7494  contract Tiket is ReentrancyGuard {... */\n      mstore(0x40, 0x80)\n      callvalue\n      dup1\n      iszero\n      tag_1\n      jumpi\n      0x00\n      dup1\n      revert\n    tag_1:\n      pop\n      jumpi(tag_2, lt(calldatasize, 0x04))\n      shr(0xe0, calldataload(0x00))\n      dup1\n      0x90a9c2b3\n      gt\n      tag_24\n      jumpi\n      dup1\n      0xc62efa37\n      gt\n      tag_25\n      jumpi\n      dup1\n      0xc62efa37\n      eq\n      tag_18\n      jumpi\n      dup1\n      0xd13816c7\n      eq\n      tag_19\n      jumpi\n      dup1\n      0xde94f377\n      eq\n      tag_20\n      jumpi\n      dup1\n      0xef629b16\n      eq\n      tag_21\n      jumpi\n      dup1\n      0xf12e1dd0\n      eq\n      tag_22\n      jumpi\n      dup1\n      0xf75a99c1\n      eq\n      tag_23\n      jumpi\n      jump(tag_2)\n    tag_25:\n      dup1\n      0x90a9c2b3\n      eq\n      tag_13\n      jumpi\n      dup1\n      0x950a8a54\n      eq\n      tag_14\n      jumpi\n      dup1\n      0x9b1537c2\n      eq\n      tag_15\n      jumpi\n      dup1\n      0xb7b3628e\n      eq\n      tag_16\n      jumpi\n      dup1\n      0xbbed3c8d\n      eq\n      tag_17\n      jumpi\n      jump(tag_2)\n    tag_24:\n      dup1\n      0x4c7d460f\n      gt\n      tag_26\n      jumpi\n      dup1\n      0x4c7d460f\n      eq\n      tag_8\n      jumpi\n      dup1\n      0x57e4288a\n      eq\n      tag_9\n      jumpi\n      dup1\n      0x71367ab8\n      eq\n      tag_10\n      jumpi\n      dup1\n      0x8a5ce1cf\n      eq\n      tag_11\n      jumpi\n      dup1\n      0x8da5cb5b\n      eq\n      tag_12\n      jumpi\n      jump(tag_2)\n    tag_26:\n      dup1\n      0x08548f33\n      eq\n      tag_3\n      jumpi\n      dup1\n      0x1e94d974\n      eq\n      tag_4\n      jumpi\n      dup1\n      0x276a14a6\n      eq\n      tag_5\n      jumpi\n      dup1\n      0x338843cc\n      eq\n      tag_6\n      jumpi\n      dup1\n      0x480ddc60\n      eq\n      tag_7\n      jumpi\n    tag_2:\n      0x00\n      dup1\n      revert\n        /* \"Tiket.sol\":226:253  uint256 public tiketTerjual */\n    tag_3:\n      tag_27\n      tag_28\n      jump\t// in\n    tag_27:\n      mload(0x40)\n      tag_29\n      swap2\n      swap1\n      tag_30\n      jump\t// in\n    tag_29:\n      mload(0x40)\n      dup1\n      swap2\n      sub\n      swap1\n      return\n        /* \"Tiket.sol\":260:295  uint256 public maxTiketPerIdentitas */\n    tag_4:\n      tag_31\n      tag_32\n      jump\t// in\n    tag_31:\n      mload(0x40)\n      tag_33\n      swap2\n      swap1\n      tag_30\n      jump\t// in\n    tag_33:\n      mload(0x40)\n      dup1\n      swap2\n      sub\n      swap1\n      return\n        /* \"Tiket.sol\":7400:7491  function getHargaTiket() public view returns (uint256) {... */\n    tag_5:\n      tag_34\n      tag_35\n      jump\t// in\n    tag_34:\n      mload(0x40)\n      tag_36\n      swap2\n      swap1\n      tag_30\n      jump\t// in\n    tag_36:\n      mload(0x40)\n      dup1\n      swap2\n      sub\n      swap1\n      return\n        /* \"Tiket.sol\":745:797  mapping(bytes32 => uint256) public tiketPerIdentitas */\n    tag_6:\n      tag_37\n      0x04\n      dup1\n      calldatasize\n      sub\n      dup2\n      add\n      swap1\n      tag_38\n      swap2\n      swap1\n      tag_39\n      jump\t// in\n    tag_38:\n      tag_40\n      jump\t// in\n    tag_37:\n      mload(0x40)\n      tag_41\n      swap2\n      swap1\n      tag_30\n      jump\t// in\n    tag_41:\n      mload(0x40)\n      dup1\n      swap2\n      sub\n      swap1\n      return\n        /* \"Tiket.sol\":2820:3733  function holdTiketSementara(... */\n    tag_7:\n      tag_42\n      0x04\n      dup1\n      calldatasize\n      sub\n      dup2\n      add\n      swap1\n      tag_43\n      swap2\n      swap1\n      tag_44\n      jump\t// in\n    tag_43:\n      tag_45\n      jump\t// in\n    tag_42:\n      mload(0x40)\n      tag_46\n      swap2\n      swap1\n      tag_30\n      jump\t// in\n    tag_46:\n      mload(0x40)\n      dup1\n      swap2\n      sub\n      swap1\n      return\n        /* \"Tiket.sol\":804:851  mapping(string => uint256) public kodeTiketToId */\n    tag_8:\n      tag_47\n      0x04\n      dup1\n      calldatasize\n      sub\n      dup2\n      add\n      swap1\n      tag_48\n      swap2\n      swap1\n      tag_49\n      jump\t// in\n    tag_48:\n      tag_50\n      jump\t// in\n    tag_47:\n      mload(0x40)\n      tag_51\n      swap2\n      swap1\n      tag_30\n      jump\t// in\n    tag_51:\n      mload(0x40)\n      dup1\n      swap2\n      sub\n      swap1\n      return\n        /* \"Tiket.sol\":302:335  uint256 public holdDuration = 300 */\n    tag_9:\n      tag_52\n      tag_53\n      jump\t// in\n    tag_52:\n      mload(0x40)\n      tag_54\n      swap2\n      swap1\n      tag_30\n      jump\t// in\n    tag_54:\n      mload(0x40)\n      dup1\n      swap2\n      sub\n      swap1\n      return\n        /* \"Tiket.sol\":194:219  uint256 public totalTiket */\n    tag_10:\n      tag_55\n      tag_56\n      jump\t// in\n    tag_55:\n      mload(0x40)\n      tag_57\n      swap2\n      swap1\n      tag_30\n      jump\t// in\n    tag_57:\n      mload(0x40)\n      dup1\n      swap2\n      sub\n      swap1\n      return\n        /* \"Tiket.sol\":640:690  mapping(uint256 => HoldTiket) public holdTiketData */\n    tag_11:\n      tag_58\n      0x04\n      dup1\n      calldatasize\n      sub\n      dup2\n      add\n      swap1\n      tag_59\n      swap2\n      swap1\n      tag_44\n      jump\t// in\n    tag_59:\n      tag_60\n      jump\t// in\n    tag_58:\n      mload(0x40)\n      tag_61\n      swap4\n      swap3\n      swap2\n      swap1\n      tag_62\n      jump\t// in\n    tag_61:\n      mload(0x40)\n      dup1\n      swap2\n      sub\n      swap1\n      return\n        /* \"Tiket.sol\":167:187  address public owner */\n    tag_12:\n      tag_63\n      tag_64\n      jump\t// in\n    tag_63:\n      mload(0x40)\n      tag_65\n      swap2\n      swap1\n      tag_66\n      jump\t// in\n    tag_65:\n      mload(0x40)\n      dup1\n      swap2\n      sub\n      swap1\n      return\n        /* \"Tiket.sol\":5460:6041  function gunakanTiket(... */\n    tag_13:\n      tag_67\n      0x04\n      dup1\n      calldatasize\n      sub\n      dup2\n      add\n      swap1\n      tag_68\n      swap2\n      swap1\n      tag_69\n      jump\t// in\n    tag_68:\n      tag_70\n      jump\t// in\n    tag_67:\n      stop\n        /* \"Tiket.sol\":378:403  uint256 public hargaTiket */\n    tag_14:\n      tag_71\n      tag_72\n      jump\t// in\n    tag_71:\n      mload(0x40)\n      tag_73\n      swap2\n      swap1\n      tag_30\n      jump\t// in\n    tag_73:\n      mload(0x40)\n      dup1\n      swap2\n      sub\n      swap1\n      return\n        /* \"Tiket.sol\":858:908  mapping(uint256 => TiketDetail) public daftarTiket */\n    tag_15:\n      tag_74\n      0x04\n      dup1\n      calldatasize\n      sub\n      dup2\n      add\n      swap1\n      tag_75\n      swap2\n      swap1\n      tag_44\n      jump\t// in\n    tag_75:\n      tag_76\n      jump\t// in\n    tag_74:\n      mload(0x40)\n      tag_77\n      swap4\n      swap3\n      swap2\n      swap1\n      tag_78\n      jump\t// in\n    tag_77:\n      mload(0x40)\n      dup1\n      swap2\n      sub\n      swap1\n      return\n        /* \"Tiket.sol\":6743:7076  function tiketTersedia() public view returns (uint256) {... */\n    tag_16:\n      tag_79\n      tag_80\n      jump\t// in\n    tag_79:\n      mload(0x40)\n      tag_81\n      swap2\n      swap1\n      tag_30\n      jump\t// in\n    tag_81:\n      mload(0x40)\n      dup1\n      swap2\n      sub\n      swap1\n      return\n        /* \"Tiket.sol\":7084:7392  function getTiketDiHold() public view returns (uint256) {... */\n    tag_17:\n      tag_82\n      tag_83\n      jump\t// in\n    tag_82:\n      mload(0x40)\n      tag_84\n      swap2\n      swap1\n      tag_30\n      jump\t// in\n    tag_84:\n      mload(0x40)\n      dup1\n      swap2\n      sub\n      swap1\n      return\n        /* \"Tiket.sol\":697:738  mapping(uint256 => string) public holdNik */\n    tag_18:\n      tag_85\n      0x04\n      dup1\n      calldatasize\n      sub\n      dup2\n      add\n      swap1\n      tag_86\n      swap2\n      swap1\n      tag_44\n      jump\t// in\n    tag_86:\n      tag_87\n      jump\t// in\n    tag_85:\n      mload(0x40)\n      tag_88\n      swap2\n      swap1\n      tag_89\n      jump\t// in\n    tag_88:\n      mload(0x40)\n      dup1\n      swap2\n      sub\n      swap1\n      return\n        /* \"Tiket.sol\":4146:5452  function beliTiket(... */\n    tag_19:\n      tag_90\n      0x04\n      dup1\n      calldatasize\n      sub\n      dup2\n      add\n      swap1\n      tag_91\n      swap2\n      swap1\n      tag_92\n      jump\t// in\n    tag_91:\n      tag_93\n      jump\t// in\n    tag_90:\n      stop\n        /* \"Tiket.sol\":6049:6735  function cekTiket(... */\n    tag_20:\n      tag_94\n      0x04\n      dup1\n      calldatasize\n      sub\n      dup2\n      add\n      swap1\n      tag_95\n      swap2\n      swap1\n      tag_69\n      jump\t// in\n    tag_95:\n      tag_96\n      jump\t// in\n    tag_94:\n      mload(0x40)\n      tag_97\n      swap3\n      swap2\n      swap1\n      tag_98\n      jump\t// in\n    tag_97:\n      mload(0x40)\n      dup1\n      swap2\n      sub\n      swap1\n      return\n        /* \"Tiket.sol\":915:966  mapping(string => uint256) public tiketDibeliPerNIK */\n    tag_21:\n      tag_99\n      0x04\n      dup1\n      calldatasize\n      sub\n      dup2\n      add\n      swap1\n      tag_100\n      swap2\n      swap1\n      tag_49\n      jump\t// in\n    tag_100:\n      tag_101\n      jump\t// in\n    tag_99:\n      mload(0x40)\n      tag_102\n      swap2\n      swap1\n      tag_30\n      jump\t// in\n    tag_102:\n      mload(0x40)\n      dup1\n      swap2\n      sub\n      swap1\n      return\n        /* \"Tiket.sol\":342:371  uint256 public nextHoldId = 1 */\n    tag_22:\n      tag_103\n      tag_104\n      jump\t// in\n    tag_103:\n      mload(0x40)\n      tag_105\n      swap2\n      swap1\n      tag_30\n      jump\t// in\n    tag_105:\n      mload(0x40)\n      dup1\n      swap2\n      sub\n      swap1\n      return\n        /* \"Tiket.sol\":3741:4138  function releaseHoldTiket(uint256 holdId) public hanyaPemilik nonReentrant {... */\n    tag_23:\n      tag_106\n      0x04\n      dup1\n      calldatasize\n      sub\n      dup2\n      add\n      swap1\n      tag_107\n      swap2\n      swap1\n      tag_44\n      jump\t// in\n    tag_107:\n      tag_108\n      jump\t// in\n    tag_106:\n      stop\n        /* \"Tiket.sol\":226:253  uint256 public tiketTerjual */\n    tag_28:\n      sload(0x03)\n      dup2\n      jump\t// out\n        /* \"Tiket.sol\":260:295  uint256 public maxTiketPerIdentitas */\n    tag_32:\n      sload(0x04)\n      dup2\n      jump\t// out\n        /* \"Tiket.sol\":7400:7491  function getHargaTiket() public view returns (uint256) {... */\n    tag_35:\n        /* \"Tiket.sol\":7446:7453  uint256 */\n      0x00\n        /* \"Tiket.sol\":7473:7483  hargaTiket */\n      sload(0x07)\n        /* \"Tiket.sol\":7466:7483  return hargaTiket */\n      swap1\n      pop\n        /* \"Tiket.sol\":7400:7491  function getHargaTiket() public view returns (uint256) {... */\n      swap1\n      jump\t// out\n        /* \"Tiket.sol\":745:797  mapping(bytes32 => uint256) public tiketPerIdentitas */\n    tag_40:\n      mstore(0x20, 0x0a)\n      dup1\n      0x00\n      mstore\n      keccak256(0x00, 0x40)\n      0x00\n      swap2\n      pop\n      swap1\n      pop\n      sload\n      dup2\n      jump\t// out\n        /* \"Tiket.sol\":2820:3733  function holdTiketSementara(... */\n    tag_45:\n        /* \"Tiket.sol\":2927:2934  uint256 */\n      0x00\n        /* \"Tiket.sol\":1329:1334  owner */\n      0x01\n      0x00\n      swap1\n      sload\n      swap1\n      0x0100\n      exp\n      swap1\n      div\n      0xffffffffffffffffffffffffffffffffffffffff\n      and\n        /* \"Tiket.sol\":1315:1334  msg.sender == owner */\n      0xffffffffffffffffffffffffffffffffffffffff\n      and\n        /* \"Tiket.sol\":1315:1325  msg.sender */\n      caller\n        /* \"Tiket.sol\":1315:1334  msg.sender == owner */\n      0xffffffffffffffffffffffffffffffffffffffff\n      and\n      eq\n        /* \"Tiket.sol\":1293:1406  require(... */\n      tag_111\n      jumpi\n      mload(0x40)\n      0x08c379a000000000000000000000000000000000000000000000000000000000\n      dup2\n      mstore\n      0x04\n      add\n      tag_112\n      swap1\n      tag_113\n      jump\t// in\n    tag_112:\n      mload(0x40)\n      dup1\n      swap2\n      sub\n      swap1\n      revert\n    tag_111:\n        /* \"@openzeppelin/contracts/security/ReentrancyGuard.sol\":2261:2282   */\n      tag_115\n        /* \"@openzeppelin/contracts/security/ReentrancyGuard.sol\":2261:2280   */\n      tag_116\n        /* \"@openzeppelin/contracts/security/ReentrancyGuard.sol\":2261:2282   */\n      jump\t// in\n    tag_115:\n        /* \"Tiket.sol\":2947:2966  uint256 tiketDiHold */\n      0x00\n        /* \"Tiket.sol\":2986:2995  uint256 i */\n      dup1\n        /* \"Tiket.sol\":2998:2999  1 */\n      0x01\n        /* \"Tiket.sol\":2986:2999  uint256 i = 1 */\n      swap1\n      pop\n        /* \"Tiket.sol\":2981:3154  for (uint256 i = 1; i < nextHoldId; i++) {... */\n    tag_118:\n        /* \"Tiket.sol\":3005:3015  nextHoldId */\n      sload(0x06)\n        /* \"Tiket.sol\":3001:3002  i */\n      dup2\n        /* \"Tiket.sol\":3001:3015  i < nextHoldId */\n      lt\n        /* \"Tiket.sol\":2981:3154  for (uint256 i = 1; i < nextHoldId; i++) {... */\n      iszero\n      tag_119\n      jumpi\n        /* \"Tiket.sol\":3041:3054  holdTiketData */\n      0x08\n        /* \"Tiket.sol\":3041:3057  holdTiketData[i] */\n      0x00\n        /* \"Tiket.sol\":3055:3056  i */\n      dup3\n        /* \"Tiket.sol\":3041:3057  holdTiketData[i] */\n      dup2\n      mstore\n      0x20\n      add\n      swap1\n      dup2\n      mstore\n      0x20\n      add\n      0x00\n      keccak256\n        /* \"Tiket.sol\":3041:3063  holdTiketData[i].aktif */\n      0x02\n      add\n      0x00\n      swap1\n      sload\n      swap1\n      0x0100\n      exp\n      swap1\n      div\n      0xff\n      and\n        /* \"Tiket.sol\":3037:3143  if (holdTiketData[i].aktif) {... */\n      iszero\n      tag_121\n      jumpi\n        /* \"Tiket.sol\":3099:3112  holdTiketData */\n      0x08\n        /* \"Tiket.sol\":3099:3115  holdTiketData[i] */\n      0x00\n        /* \"Tiket.sol\":3113:3114  i */\n      dup3\n        /* \"Tiket.sol\":3099:3115  holdTiketData[i] */\n      dup2\n      mstore\n      0x20\n      add\n      swap1\n      dup2\n      mstore\n      0x20\n      add\n      0x00\n      keccak256\n        /* \"Tiket.sol\":3099:3127  holdTiketData[i].jumlahTiket */\n      0x00\n      add\n      sload\n        /* \"Tiket.sol\":3084:3127  tiketDiHold += holdTiketData[i].jumlahTiket */\n      dup3\n      tag_122\n      swap2\n      swap1\n      tag_123\n      jump\t// in\n    tag_122:\n      swap2\n      pop\n        /* \"Tiket.sol\":3037:3143  if (holdTiketData[i].aktif) {... */\n    tag_121:\n        /* \"Tiket.sol\":3017:3020  i++ */\n      dup1\n      dup1\n      tag_124\n      swap1\n      tag_125\n      jump\t// in\n    tag_124:\n      swap2\n      pop\n      pop\n        /* \"Tiket.sol\":2981:3154  for (uint256 i = 1; i < nextHoldId; i++) {... */\n      jump(tag_118)\n    tag_119:\n      pop\n        /* \"Tiket.sol\":3232:3242  totalTiket */\n      sload(0x02)\n        /* \"Tiket.sol\":3217:3228  jumlahTiket */\n      dup4\n        /* \"Tiket.sol\":3203:3214  tiketDiHold */\n      dup3\n        /* \"Tiket.sol\":3188:3200  tiketTerjual */\n      sload(0x03)\n        /* \"Tiket.sol\":3188:3214  tiketTerjual + tiketDiHold */\n      tag_126\n      swap2\n      swap1\n      tag_123\n      jump\t// in\n    tag_126:\n        /* \"Tiket.sol\":3188:3228  tiketTerjual + tiketDiHold + jumlahTiket */\n      tag_127\n      swap2\n      swap1\n      tag_123\n      jump\t// in\n    tag_127:\n        /* \"Tiket.sol\":3188:3242  tiketTerjual + tiketDiHold + jumlahTiket <= totalTiket */\n      gt\n      iszero\n        /* \"Tiket.sol\":3166:3297  require(... */\n      tag_128\n      jumpi\n      mload(0x40)\n      0x08c379a000000000000000000000000000000000000000000000000000000000\n      dup2\n      mstore\n      0x04\n      add\n      tag_129\n      swap1\n      tag_130\n      jump\t// in\n    tag_129:\n      mload(0x40)\n      dup1\n      swap2\n      sub\n      swap1\n      revert\n    tag_128:\n        /* \"Tiket.sol\":3345:3365  maxTiketPerIdentitas */\n      sload(0x04)\n        /* \"Tiket.sol\":3330:3341  jumlahTiket */\n      dup4\n        /* \"Tiket.sol\":3330:3365  jumlahTiket <= maxTiketPerIdentitas */\n      gt\n      iszero\n        /* \"Tiket.sol\":3308:3443  require(... */\n      tag_131\n      jumpi\n      mload(0x40)\n      0x08c379a000000000000000000000000000000000000000000000000000000000\n      dup2\n      mstore\n      0x04\n      add\n      tag_132\n      swap1\n      tag_133\n      jump\t// in\n    tag_132:\n      mload(0x40)\n      dup1\n      swap2\n      sub\n      swap1\n      revert\n    tag_131:\n        /* \"Tiket.sol\":3456:3470  uint256 holdId */\n      0x00\n        /* \"Tiket.sol\":3473:3483  nextHoldId */\n      sload(0x06)\n        /* \"Tiket.sol\":3456:3483  uint256 holdId = nextHoldId */\n      swap1\n      pop\n        /* \"Tiket.sol\":3518:3628  HoldTiket(... */\n      mload(0x40)\n      dup1\n      0x60\n      add\n      0x40\n      mstore\n      dup1\n        /* \"Tiket.sol\":3542:3553  jumlahTiket */\n      dup6\n        /* \"Tiket.sol\":3518:3628  HoldTiket(... */\n      dup2\n      mstore\n      0x20\n      add\n        /* \"Tiket.sol\":3586:3598  holdDuration */\n      sload(0x05)\n        /* \"Tiket.sol\":3568:3583  block.timestamp */\n      timestamp\n        /* \"Tiket.sol\":3568:3598  block.timestamp + holdDuration */\n      tag_134\n      swap2\n      swap1\n      tag_123\n      jump\t// in\n    tag_134:\n        /* \"Tiket.sol\":3518:3628  HoldTiket(... */\n      dup2\n      mstore\n      0x20\n      add\n        /* \"Tiket.sol\":3613:3617  true */\n      0x01\n        /* \"Tiket.sol\":3518:3628  HoldTiket(... */\n      iszero\n      iszero\n      dup2\n      mstore\n      pop\n        /* \"Tiket.sol\":3494:3507  holdTiketData */\n      0x08\n        /* \"Tiket.sol\":3494:3515  holdTiketData[holdId] */\n      0x00\n        /* \"Tiket.sol\":3508:3514  holdId */\n      dup4\n        /* \"Tiket.sol\":3494:3515  holdTiketData[holdId] */\n      dup2\n      mstore\n      0x20\n      add\n      swap1\n      dup2\n      mstore\n      0x20\n      add\n      0x00\n      keccak256\n        /* \"Tiket.sol\":3494:3628  holdTiketData[holdId] = HoldTiket(... */\n      0x00\n      dup3\n      add\n      mload\n      dup2\n      0x00\n      add\n      sstore\n      0x20\n      dup3\n      add\n      mload\n      dup2\n      0x01\n      add\n      sstore\n      0x40\n      dup3\n      add\n      mload\n      dup2\n      0x02\n      add\n      exp(0x0100, 0x00)\n      dup2\n      sload\n      dup2\n      0xff\n      mul\n      not\n      and\n      swap1\n      dup4\n      iszero\n      iszero\n      mul\n      or\n      swap1\n      sstore\n      pop\n      swap1\n      pop\n      pop\n        /* \"Tiket.sol\":3639:3649  nextHoldId */\n      0x06\n      0x00\n        /* \"Tiket.sol\":3639:3651  nextHoldId++ */\n      dup2\n      sload\n      dup1\n      swap3\n      swap2\n      swap1\n      tag_135\n      swap1\n      tag_125\n      jump\t// in\n    tag_135:\n      swap2\n      swap1\n      pop\n      sstore\n      pop\n        /* \"Tiket.sol\":3681:3687  holdId */\n      dup1\n        /* \"Tiket.sol\":3669:3701  TiketDiHold(holdId, jumlahTiket) */\n      0x073b3d756f661440487a04655643e144e5101bec14c7ca31df8edece74ad7066\n        /* \"Tiket.sol\":3689:3700  jumlahTiket */\n      dup6\n        /* \"Tiket.sol\":3669:3701  TiketDiHold(holdId, jumlahTiket) */\n      mload(0x40)\n      tag_136\n      swap2\n      swap1\n      tag_30\n      jump\t// in\n    tag_136:\n      mload(0x40)\n      dup1\n      swap2\n      sub\n      swap1\n      log2\n        /* \"Tiket.sol\":3719:3725  holdId */\n      dup1\n        /* \"Tiket.sol\":3712:3725  return holdId */\n      swap3\n      pop\n      pop\n      pop\n        /* \"@openzeppelin/contracts/security/ReentrancyGuard.sol\":2303:2323   */\n      tag_137\n        /* \"@openzeppelin/contracts/security/ReentrancyGuard.sol\":2303:2321   */\n      tag_138\n        /* \"@openzeppelin/contracts/security/ReentrancyGuard.sol\":2303:2323   */\n      jump\t// in\n    tag_137:\n        /* \"Tiket.sol\":2820:3733  function holdTiketSementara(... */\n      swap2\n      swap1\n      pop\n      jump\t// out\n        /* \"Tiket.sol\":804:851  mapping(string => uint256) public kodeTiketToId */\n    tag_50:\n      0x0b\n      dup2\n      dup1\n      mload\n      0x20\n      dup2\n      add\n      dup3\n      add\n      dup1\n      mload\n      dup5\n      dup3\n      mstore\n      0x20\n      dup4\n      add\n      0x20\n      dup6\n      add\n      keccak256\n      dup2\n      dup4\n      mstore\n      dup1\n      swap6\n      pop\n      pop\n      pop\n      pop\n      pop\n      pop\n      0x00\n      swap2\n      pop\n      swap1\n      pop\n      sload\n      dup2\n      jump\t// out\n        /* \"Tiket.sol\":302:335  uint256 public holdDuration = 300 */\n    tag_53:\n      sload(0x05)\n      dup2\n      jump\t// out\n        /* \"Tiket.sol\":194:219  uint256 public totalTiket */\n    tag_56:\n      sload(0x02)\n      dup2\n      jump\t// out\n        /* \"Tiket.sol\":640:690  mapping(uint256 => HoldTiket) public holdTiketData */\n    tag_60:\n      mstore(0x20, 0x08)\n      dup1\n      0x00\n      mstore\n      keccak256(0x00, 0x40)\n      0x00\n      swap2\n      pop\n      swap1\n      pop\n      dup1\n      0x00\n      add\n      sload\n      swap1\n      dup1\n      0x01\n      add\n      sload\n      swap1\n      dup1\n      0x02\n      add\n      0x00\n      swap1\n      sload\n      swap1\n      0x0100\n      exp\n      swap1\n      div\n      0xff\n      and\n      swap1\n      pop\n      dup4\n      jump\t// out\n        /* \"Tiket.sol\":167:187  address public owner */\n    tag_64:\n      0x01\n      0x00\n      swap1\n      sload\n      swap1\n      0x0100\n      exp\n      swap1\n      div\n      0xffffffffffffffffffffffffffffffffffffffff\n      and\n      dup2\n      jump\t// out\n        /* \"Tiket.sol\":5460:6041  function gunakanTiket(... */\n    tag_70:\n        /* \"Tiket.sol\":1329:1334  owner */\n      0x01\n      0x00\n      swap1\n      sload\n      swap1\n      0x0100\n      exp\n      swap1\n      div\n      0xffffffffffffffffffffffffffffffffffffffff\n      and\n        /* \"Tiket.sol\":1315:1334  msg.sender == owner */\n      0xffffffffffffffffffffffffffffffffffffffff\n      and\n        /* \"Tiket.sol\":1315:1325  msg.sender */\n      caller\n        /* \"Tiket.sol\":1315:1334  msg.sender == owner */\n      0xffffffffffffffffffffffffffffffffffffffff\n      and\n      eq\n        /* \"Tiket.sol\":1293:1406  require(... */\n      tag_140\n      jumpi\n      mload(0x40)\n      0x08c379a000000000000000000000000000000000000000000000000000000000\n      dup2\n      mstore\n      0x04\n      add\n      tag_141\n      swap1\n      tag_113\n      jump\t// in\n    tag_141:\n      mload(0x40)\n      dup1\n      swap2\n      sub\n      swap1\n      revert\n    tag_140:\n        /* \"@openzeppelin/contracts/security/ReentrancyGuard.sol\":2261:2282   */\n      tag_143\n        /* \"@openzeppelin/contracts/security/ReentrancyGuard.sol\":2261:2280   */\n      tag_116\n        /* \"@openzeppelin/contracts/security/ReentrancyGuard.sol\":2261:2282   */\n      jump\t// in\n    tag_143:\n        /* \"Tiket.sol\":5595:5610  uint256 idTiket */\n      0x00\n        /* \"Tiket.sol\":5613:5626  kodeTiketToId */\n      0x0b\n        /* \"Tiket.sol\":5627:5636  kodeTiket */\n      dup4\n        /* \"Tiket.sol\":5613:5637  kodeTiketToId[kodeTiket] */\n      mload(0x40)\n      tag_145\n      swap2\n      swap1\n      tag_146\n      jump\t// in\n    tag_145:\n      swap1\n      dup2\n      mstore\n      0x20\n      add\n      mload(0x40)\n      dup1\n      swap2\n      sub\n      swap1\n      keccak256\n      sload\n        /* \"Tiket.sol\":5595:5637  uint256 idTiket = kodeTiketToId[kodeTiket] */\n      swap1\n      pop\n        /* \"Tiket.sol\":5667:5668  0 */\n      0x00\n        /* \"Tiket.sol\":5656:5663  idTiket */\n      dup2\n        /* \"Tiket.sol\":5656:5668  idTiket != 0 */\n      eq\n      iszero\n        /* \"Tiket.sol\":5648:5694  require(idTiket != 0, \"Tiket tidak ditemukan\") */\n      tag_147\n      jumpi\n      mload(0x40)\n      0x08c379a000000000000000000000000000000000000000000000000000000000\n      dup2\n      mstore\n      0x04\n      add\n      tag_148\n      swap1\n      tag_149\n      jump\t// in\n    tag_148:\n      mload(0x40)\n      dup1\n      swap2\n      sub\n      swap1\n      revert\n    tag_147:\n        /* \"Tiket.sol\":5714:5725  daftarTiket */\n      0x0c\n        /* \"Tiket.sol\":5714:5734  daftarTiket[idTiket] */\n      0x00\n        /* \"Tiket.sol\":5726:5733  idTiket */\n      dup3\n        /* \"Tiket.sol\":5714:5734  daftarTiket[idTiket] */\n      dup2\n      mstore\n      0x20\n      add\n      swap1\n      dup2\n      mstore\n      0x20\n      add\n      0x00\n      keccak256\n        /* \"Tiket.sol\":5714:5744  daftarTiket[idTiket].digunakan */\n      0x02\n      add\n      0x00\n      swap1\n      sload\n      swap1\n      0x0100\n      exp\n      swap1\n      div\n      0xff\n      and\n        /* \"Tiket.sol\":5713:5744  !daftarTiket[idTiket].digunakan */\n      iszero\n        /* \"Tiket.sol\":5705:5770  require(!daftarTiket[idTiket].digunakan, \"Tiket sudah digunakan\") */\n      tag_150\n      jumpi\n      mload(0x40)\n      0x08c379a000000000000000000000000000000000000000000000000000000000\n      dup2\n      mstore\n      0x04\n      add\n      tag_151\n      swap1\n      tag_152\n      jump\t// in\n    tag_151:\n      mload(0x40)\n      dup1\n      swap2\n      sub\n      swap1\n      revert\n    tag_150:\n        /* \"Tiket.sol\":5783:5798  bytes32 nikHash */\n      0x00\n        /* \"Tiket.sol\":5801:5813  hashNIK(nik) */\n      tag_153\n        /* \"Tiket.sol\":5809:5812  nik */\n      dup4\n        /* \"Tiket.sol\":5801:5808  hashNIK */\n      tag_154\n        /* \"Tiket.sol\":5801:5813  hashNIK(nik) */\n      jump\t// in\n    tag_153:\n        /* \"Tiket.sol\":5783:5813  bytes32 nikHash = hashNIK(nik) */\n      swap1\n      pop\n        /* \"Tiket.sol\":5878:5885  nikHash */\n      dup1\n        /* \"Tiket.sol\":5846:5857  daftarTiket */\n      0x0c\n        /* \"Tiket.sol\":5846:5866  daftarTiket[idTiket] */\n      0x00\n        /* \"Tiket.sol\":5858:5865  idTiket */\n      dup5\n        /* \"Tiket.sol\":5846:5866  daftarTiket[idTiket] */\n      dup2\n      mstore\n      0x20\n      add\n      swap1\n      dup2\n      mstore\n      0x20\n      add\n      0x00\n      keccak256\n        /* \"Tiket.sol\":5846:5874  daftarTiket[idTiket].nikHash */\n      0x00\n      add\n      sload\n        /* \"Tiket.sol\":5846:5885  daftarTiket[idTiket].nikHash == nikHash */\n      eq\n        /* \"Tiket.sol\":5824:5935  require(... */\n      tag_155\n      jumpi\n      mload(0x40)\n      0x08c379a000000000000000000000000000000000000000000000000000000000\n      dup2\n      mstore\n      0x04\n      add\n      tag_156\n      swap1\n      tag_157\n      jump\t// in\n    tag_156:\n      mload(0x40)\n      dup1\n      swap2\n      sub\n      swap1\n      revert\n    tag_155:\n        /* \"Tiket.sol\":5981:5985  true */\n      0x01\n        /* \"Tiket.sol\":5948:5959  daftarTiket */\n      0x0c\n        /* \"Tiket.sol\":5948:5968  daftarTiket[idTiket] */\n      0x00\n        /* \"Tiket.sol\":5960:5967  idTiket */\n      dup5\n        /* \"Tiket.sol\":5948:5968  daftarTiket[idTiket] */\n      dup2\n      mstore\n      0x20\n      add\n      swap1\n      dup2\n      mstore\n      0x20\n      add\n      0x00\n      keccak256\n        /* \"Tiket.sol\":5948:5978  daftarTiket[idTiket].digunakan */\n      0x02\n      add\n      0x00\n        /* \"Tiket.sol\":5948:5985  daftarTiket[idTiket].digunakan = true */\n      0x0100\n      exp\n      dup2\n      sload\n      dup2\n      0xff\n      mul\n      not\n      and\n      swap1\n      dup4\n      iszero\n      iszero\n      mul\n      or\n      swap1\n      sstore\n      pop\n        /* \"Tiket.sol\":6025:6032  nikHash */\n      dup1\n        /* \"Tiket.sol\":6016:6023  idTiket */\n      dup3\n        /* \"Tiket.sol\":6001:6033  TiketDigunakan(idTiket, nikHash) */\n      0x887b4a70143c4159cadeccebe8d1a3e975c797bd496dcc83af0bd96258e527bd\n      mload(0x40)\n      mload(0x40)\n      dup1\n      swap2\n      sub\n      swap1\n      log3\n        /* \"Tiket.sol\":5584:6041  {... */\n      pop\n      pop\n        /* \"@openzeppelin/contracts/security/ReentrancyGuard.sol\":2303:2323   */\n      tag_158\n        /* \"@openzeppelin/contracts/security/ReentrancyGuard.sol\":2303:2321   */\n      tag_138\n        /* \"@openzeppelin/contracts/security/ReentrancyGuard.sol\":2303:2323   */\n      jump\t// in\n    tag_158:\n        /* \"Tiket.sol\":5460:6041  function gunakanTiket(... */\n      pop\n      pop\n      jump\t// out\n        /* \"Tiket.sol\":378:403  uint256 public hargaTiket */\n    tag_72:\n      sload(0x07)\n      dup2\n      jump\t// out\n        /* \"Tiket.sol\":858:908  mapping(uint256 => TiketDetail) public daftarTiket */\n    tag_76:\n      mstore(0x20, 0x0c)\n      dup1\n      0x00\n      mstore\n      keccak256(0x00, 0x40)\n      0x00\n      swap2\n      pop\n      swap1\n      pop\n      dup1\n      0x00\n      add\n      sload\n      swap1\n      dup1\n      0x01\n      add\n      dup1\n      sload\n      tag_159\n      swap1\n      tag_160\n      jump\t// in\n    tag_159:\n      dup1\n      0x1f\n      add\n      0x20\n      dup1\n      swap2\n      div\n      mul\n      0x20\n      add\n      mload(0x40)\n      swap1\n      dup2\n      add\n      0x40\n      mstore\n      dup1\n      swap3\n      swap2\n      swap1\n      dup2\n      dup2\n      mstore\n      0x20\n      add\n      dup3\n      dup1\n      sload\n      tag_161\n      swap1\n      tag_160\n      jump\t// in\n    tag_161:\n      dup1\n      iszero\n      tag_162\n      jumpi\n      dup1\n      0x1f\n      lt\n      tag_163\n      jumpi\n      0x0100\n      dup1\n      dup4\n      sload\n      div\n      mul\n      dup4\n      mstore\n      swap2\n      0x20\n      add\n      swap2\n      jump(tag_162)\n    tag_163:\n      dup3\n      add\n      swap2\n      swap1\n      0x00\n      mstore\n      keccak256(0x00, 0x20)\n      swap1\n    tag_164:\n      dup2\n      sload\n      dup2\n      mstore\n      swap1\n      0x01\n      add\n      swap1\n      0x20\n      add\n      dup1\n      dup4\n      gt\n      tag_164\n      jumpi\n      dup3\n      swap1\n      sub\n      0x1f\n      and\n      dup3\n      add\n      swap2\n    tag_162:\n      pop\n      pop\n      pop\n      pop\n      pop\n      swap1\n      dup1\n      0x02\n      add\n      0x00\n      swap1\n      sload\n      swap1\n      0x0100\n      exp\n      swap1\n      div\n      0xff\n      and\n      swap1\n      pop\n      dup4\n      jump\t// out\n        /* \"Tiket.sol\":6743:7076  function tiketTersedia() public view returns (uint256) {... */\n    tag_80:\n        /* \"Tiket.sol\":6789:6796  uint256 */\n      0x00\n        /* \"Tiket.sol\":6809:6828  uint256 tiketDiHold */\n      dup1\n        /* \"Tiket.sol\":6844:6853  uint256 i */\n      0x00\n        /* \"Tiket.sol\":6856:6857  1 */\n      0x01\n        /* \"Tiket.sol\":6844:6857  uint256 i = 1 */\n      swap1\n      pop\n        /* \"Tiket.sol\":6839:7012  for (uint256 i = 1; i < nextHoldId; i++) {... */\n    tag_166:\n        /* \"Tiket.sol\":6863:6873  nextHoldId */\n      sload(0x06)\n        /* \"Tiket.sol\":6859:6860  i */\n      dup2\n        /* \"Tiket.sol\":6859:6873  i < nextHoldId */\n      lt\n        /* \"Tiket.sol\":6839:7012  for (uint256 i = 1; i < nextHoldId; i++) {... */\n      iszero\n      tag_167\n      jumpi\n        /* \"Tiket.sol\":6899:6912  holdTiketData */\n      0x08\n        /* \"Tiket.sol\":6899:6915  holdTiketData[i] */\n      0x00\n        /* \"Tiket.sol\":6913:6914  i */\n      dup3\n        /* \"Tiket.sol\":6899:6915  holdTiketData[i] */\n      dup2\n      mstore\n      0x20\n      add\n      swap1\n      dup2\n      mstore\n      0x20\n      add\n      0x00\n      keccak256\n        /* \"Tiket.sol\":6899:6921  holdTiketData[i].aktif */\n      0x02\n      add\n      0x00\n      swap1\n      sload\n      swap1\n      0x0100\n      exp\n      swap1\n      div\n      0xff\n      and\n        /* \"Tiket.sol\":6895:7001  if (holdTiketData[i].aktif) {... */\n      iszero\n      tag_169\n      jumpi\n        /* \"Tiket.sol\":6957:6970  holdTiketData */\n      0x08\n        /* \"Tiket.sol\":6957:6973  holdTiketData[i] */\n      0x00\n        /* \"Tiket.sol\":6971:6972  i */\n      dup3\n        /* \"Tiket.sol\":6957:6973  holdTiketData[i] */\n      dup2\n      mstore\n      0x20\n      add\n      swap1\n      dup2\n      mstore\n      0x20\n      add\n      0x00\n      keccak256\n        /* \"Tiket.sol\":6957:6985  holdTiketData[i].jumlahTiket */\n      0x00\n      add\n      sload\n        /* \"Tiket.sol\":6942:6985  tiketDiHold += holdTiketData[i].jumlahTiket */\n      dup3\n      tag_170\n      swap2\n      swap1\n      tag_123\n      jump\t// in\n    tag_170:\n      swap2\n      pop\n        /* \"Tiket.sol\":6895:7001  if (holdTiketData[i].aktif) {... */\n    tag_169:\n        /* \"Tiket.sol\":6875:6878  i++ */\n      dup1\n      dup1\n      tag_171\n      swap1\n      tag_125\n      jump\t// in\n    tag_171:\n      swap2\n      pop\n      pop\n        /* \"Tiket.sol\":6839:7012  for (uint256 i = 1; i < nextHoldId; i++) {... */\n      jump(tag_166)\n    tag_167:\n      pop\n        /* \"Tiket.sol\":7057:7068  tiketDiHold */\n      dup1\n        /* \"Tiket.sol\":7042:7054  tiketTerjual */\n      sload(0x03)\n        /* \"Tiket.sol\":7029:7039  totalTiket */\n      sload(0x02)\n        /* \"Tiket.sol\":7029:7054  totalTiket - tiketTerjual */\n      tag_172\n      swap2\n      swap1\n      tag_173\n      jump\t// in\n    tag_172:\n        /* \"Tiket.sol\":7029:7068  totalTiket - tiketTerjual - tiketDiHold */\n      tag_174\n      swap2\n      swap1\n      tag_173\n      jump\t// in\n    tag_174:\n        /* \"Tiket.sol\":7022:7068  return totalTiket - tiketTerjual - tiketDiHold */\n      swap2\n      pop\n      pop\n        /* \"Tiket.sol\":6743:7076  function tiketTersedia() public view returns (uint256) {... */\n      swap1\n      jump\t// out\n        /* \"Tiket.sol\":7084:7392  function getTiketDiHold() public view returns (uint256) {... */\n    tag_83:\n        /* \"Tiket.sol\":7131:7138  uint256 */\n      0x00\n        /* \"Tiket.sol\":7151:7170  uint256 tiketDiHold */\n      dup1\n        /* \"Tiket.sol\":7186:7195  uint256 i */\n      0x00\n        /* \"Tiket.sol\":7198:7199  1 */\n      0x01\n        /* \"Tiket.sol\":7186:7199  uint256 i = 1 */\n      swap1\n      pop\n        /* \"Tiket.sol\":7181:7354  for (uint256 i = 1; i < nextHoldId; i++) {... */\n    tag_176:\n        /* \"Tiket.sol\":7205:7215  nextHoldId */\n      sload(0x06)\n        /* \"Tiket.sol\":7201:7202  i */\n      dup2\n        /* \"Tiket.sol\":7201:7215  i < nextHoldId */\n      lt\n        /* \"Tiket.sol\":7181:7354  for (uint256 i = 1; i < nextHoldId; i++) {... */\n      iszero\n      tag_177\n      jumpi\n        /* \"Tiket.sol\":7241:7254  holdTiketData */\n      0x08\n        /* \"Tiket.sol\":7241:7257  holdTiketData[i] */\n      0x00\n        /* \"Tiket.sol\":7255:7256  i */\n      dup3\n        /* \"Tiket.sol\":7241:7257  holdTiketData[i] */\n      dup2\n      mstore\n      0x20\n      add\n      swap1\n      dup2\n      mstore\n      0x20\n      add\n      0x00\n      keccak256\n        /* \"Tiket.sol\":7241:7263  holdTiketData[i].aktif */\n      0x02\n      add\n      0x00\n      swap1\n      sload\n      swap1\n      0x0100\n      exp\n      swap1\n      div\n      0xff\n      and\n        /* \"Tiket.sol\":7237:7343  if (holdTiketData[i].aktif) {... */\n      iszero\n      tag_179\n      jumpi\n        /* \"Tiket.sol\":7299:7312  holdTiketData */\n      0x08\n        /* \"Tiket.sol\":7299:7315  holdTiketData[i] */\n      0x00\n        /* \"Tiket.sol\":7313:7314  i */\n      dup3\n        /* \"Tiket.sol\":7299:7315  holdTiketData[i] */\n      dup2\n      mstore\n      0x20\n      add\n      swap1\n      dup2\n      mstore\n      0x20\n      add\n      0x00\n      keccak256\n        /* \"Tiket.sol\":7299:7327  holdTiketData[i].jumlahTiket */\n      0x00\n      add\n      sload\n        /* \"Tiket.sol\":7284:7327  tiketDiHold += holdTiketData[i].jumlahTiket */\n      dup3\n      tag_180\n      swap2\n      swap1\n      tag_123\n      jump\t// in\n    tag_180:\n      swap2\n      pop\n        /* \"Tiket.sol\":7237:7343  if (holdTiketData[i].aktif) {... */\n    tag_179:\n        /* \"Tiket.sol\":7217:7220  i++ */\n      dup1\n      dup1\n      tag_181\n      swap1\n      tag_125\n      jump\t// in\n    tag_181:\n      swap2\n      pop\n      pop\n        /* \"Tiket.sol\":7181:7354  for (uint256 i = 1; i < nextHoldId; i++) {... */\n      jump(tag_176)\n    tag_177:\n      pop\n        /* \"Tiket.sol\":7373:7384  tiketDiHold */\n      dup1\n        /* \"Tiket.sol\":7366:7384  return tiketDiHold */\n      swap2\n      pop\n      pop\n        /* \"Tiket.sol\":7084:7392  function getTiketDiHold() public view returns (uint256) {... */\n      swap1\n      jump\t// out\n        /* \"Tiket.sol\":697:738  mapping(uint256 => string) public holdNik */\n    tag_87:\n      mstore(0x20, 0x09)\n      dup1\n      0x00\n      mstore\n      keccak256(0x00, 0x40)\n      0x00\n      swap2\n      pop\n      swap1\n      pop\n      dup1\n      sload\n      tag_182\n      swap1\n      tag_160\n      jump\t// in\n    tag_182:\n      dup1\n      0x1f\n      add\n      0x20\n      dup1\n      swap2\n      div\n      mul\n      0x20\n      add\n      mload(0x40)\n      swap1\n      dup2\n      add\n      0x40\n      mstore\n      dup1\n      swap3\n      swap2\n      swap1\n      dup2\n      dup2\n      mstore\n      0x20\n      add\n      dup3\n      dup1\n      sload\n      tag_183\n      swap1\n      tag_160\n      jump\t// in\n    tag_183:\n      dup1\n      iszero\n      tag_184\n      jumpi\n      dup1\n      0x1f\n      lt\n      tag_185\n      jumpi\n      0x0100\n      dup1\n      dup4\n      sload\n      div\n      mul\n      dup4\n      mstore\n      swap2\n      0x20\n      add\n      swap2\n      jump(tag_184)\n    tag_185:\n      dup3\n      add\n      swap2\n      swap1\n      0x00\n      mstore\n      keccak256(0x00, 0x20)\n      swap1\n    tag_186:\n      dup2\n      sload\n      dup2\n      mstore\n      swap1\n      0x01\n      add\n      swap1\n      0x20\n      add\n      dup1\n      dup4\n      gt\n      tag_186\n      jumpi\n      dup3\n      swap1\n      sub\n      0x1f\n      and\n      dup3\n      add\n      swap2\n    tag_184:\n      pop\n      pop\n      pop\n      pop\n      pop\n      dup2\n      jump\t// out\n        /* \"Tiket.sol\":4146:5452  function beliTiket(... */\n    tag_93:\n        /* \"Tiket.sol\":1329:1334  owner */\n      0x01\n      0x00\n      swap1\n      sload\n      swap1\n      0x0100\n      exp\n      swap1\n      div\n      0xffffffffffffffffffffffffffffffffffffffff\n      and\n        /* \"Tiket.sol\":1315:1334  msg.sender == owner */\n      0xffffffffffffffffffffffffffffffffffffffff\n      and\n        /* \"Tiket.sol\":1315:1325  msg.sender */\n      caller\n        /* \"Tiket.sol\":1315:1334  msg.sender == owner */\n      0xffffffffffffffffffffffffffffffffffffffff\n      and\n      eq\n        /* \"Tiket.sol\":1293:1406  require(... */\n      tag_188\n      jumpi\n      mload(0x40)\n      0x08c379a000000000000000000000000000000000000000000000000000000000\n      dup2\n      mstore\n      0x04\n      add\n      tag_189\n      swap1\n      tag_113\n      jump\t// in\n    tag_189:\n      mload(0x40)\n      dup1\n      swap2\n      sub\n      swap1\n      revert\n    tag_188:\n        /* \"@openzeppelin/contracts/security/ReentrancyGuard.sol\":2261:2282   */\n      tag_191\n        /* \"@openzeppelin/contracts/security/ReentrancyGuard.sol\":2261:2280   */\n      tag_116\n        /* \"@openzeppelin/contracts/security/ReentrancyGuard.sol\":2261:2282   */\n      jump\t// in\n    tag_191:\n        /* \"Tiket.sol\":4298:4300  16 */\n      0x10\n        /* \"Tiket.sol\":4283:4286  nik */\n      dup2\n        /* \"Tiket.sol\":4277:4294  bytes(nik).length */\n      mload\n        /* \"Tiket.sol\":4277:4300  bytes(nik).length == 16 */\n      eq\n        /* \"Tiket.sol\":4269:4336  require(bytes(nik).length == 16, \"NIK harus terdiri dari 16 digit\") */\n      tag_193\n      jumpi\n      mload(0x40)\n      0x08c379a000000000000000000000000000000000000000000000000000000000\n      dup2\n      mstore\n      0x04\n      add\n      tag_194\n      swap1\n      tag_195\n      jump\t// in\n    tag_194:\n      mload(0x40)\n      dup1\n      swap2\n      sub\n      swap1\n      revert\n    tag_193:\n        /* \"Tiket.sol\":4369:4382  holdTiketData */\n      0x08\n        /* \"Tiket.sol\":4369:4390  holdTiketData[holdId] */\n      0x00\n        /* \"Tiket.sol\":4383:4389  holdId */\n      dup4\n        /* \"Tiket.sol\":4369:4390  holdTiketData[holdId] */\n      dup2\n      mstore\n      0x20\n      add\n      swap1\n      dup2\n      mstore\n      0x20\n      add\n      0x00\n      keccak256\n        /* \"Tiket.sol\":4369:4396  holdTiketData[holdId].aktif */\n      0x02\n      add\n      0x00\n      swap1\n      sload\n      swap1\n      0x0100\n      exp\n      swap1\n      div\n      0xff\n      and\n        /* \"Tiket.sol\":4347:4462  require(... */\n      tag_196\n      jumpi\n      mload(0x40)\n      0x08c379a000000000000000000000000000000000000000000000000000000000\n      dup2\n      mstore\n      0x04\n      add\n      tag_197\n      swap1\n      tag_198\n      jump\t// in\n    tag_197:\n      mload(0x40)\n      dup1\n      swap2\n      sub\n      swap1\n      revert\n    tag_196:\n        /* \"Tiket.sol\":4475:4490  bytes32 nikHash */\n      0x00\n        /* \"Tiket.sol\":4493:4505  hashNIK(nik) */\n      tag_199\n        /* \"Tiket.sol\":4501:4504  nik */\n      dup3\n        /* \"Tiket.sol\":4493:4500  hashNIK */\n      tag_154\n        /* \"Tiket.sol\":4493:4505  hashNIK(nik) */\n      jump\t// in\n    tag_199:\n        /* \"Tiket.sol\":4475:4505  bytes32 nikHash = hashNIK(nik) */\n      swap1\n      pop\n        /* \"Tiket.sol\":4568:4569  0 */\n      0x00\n        /* \"Tiket.sol\":4538:4555  tiketPerIdentitas */\n      0x0a\n        /* \"Tiket.sol\":4538:4564  tiketPerIdentitas[nikHash] */\n      0x00\n        /* \"Tiket.sol\":4556:4563  nikHash */\n      dup4\n        /* \"Tiket.sol\":4538:4564  tiketPerIdentitas[nikHash] */\n      dup2\n      mstore\n      0x20\n      add\n      swap1\n      dup2\n      mstore\n      0x20\n      add\n      0x00\n      keccak256\n      sload\n        /* \"Tiket.sol\":4538:4569  tiketPerIdentitas[nikHash] == 0 */\n      eq\n        /* \"Tiket.sol\":4516:4630  require(... */\n      tag_200\n      jumpi\n      mload(0x40)\n      0x08c379a000000000000000000000000000000000000000000000000000000000\n      dup2\n      mstore\n      0x04\n      add\n      tag_201\n      swap1\n      tag_202\n      jump\t// in\n    tag_201:\n      mload(0x40)\n      dup1\n      swap2\n      sub\n      swap1\n      revert\n    tag_200:\n        /* \"Tiket.sol\":4665:4678  holdTiketData */\n      0x08\n        /* \"Tiket.sol\":4665:4686  holdTiketData[holdId] */\n      0x00\n        /* \"Tiket.sol\":4679:4685  holdId */\n      dup5\n        /* \"Tiket.sol\":4665:4686  holdTiketData[holdId] */\n      dup2\n      mstore\n      0x20\n      add\n      swap1\n      dup2\n      mstore\n      0x20\n      add\n      0x00\n      keccak256\n        /* \"Tiket.sol\":4665:4700  holdTiketData[holdId].holdTimestamp */\n      0x01\n      add\n      sload\n        /* \"Tiket.sol\":4647:4662  block.timestamp */\n      timestamp\n        /* \"Tiket.sol\":4647:4700  block.timestamp > holdTiketData[holdId].holdTimestamp */\n      gt\n        /* \"Tiket.sol\":4643:4882  if (block.timestamp > holdTiketData[holdId].holdTimestamp) {... */\n      iszero\n      tag_203\n      jumpi\n        /* \"Tiket.sol\":4747:4752  false */\n      0x00\n        /* \"Tiket.sol\":4717:4730  holdTiketData */\n      0x08\n        /* \"Tiket.sol\":4717:4738  holdTiketData[holdId] */\n      0x00\n        /* \"Tiket.sol\":4731:4737  holdId */\n      dup6\n        /* \"Tiket.sol\":4717:4738  holdTiketData[holdId] */\n      dup2\n      mstore\n      0x20\n      add\n      swap1\n      dup2\n      mstore\n      0x20\n      add\n      0x00\n      keccak256\n        /* \"Tiket.sol\":4717:4744  holdTiketData[holdId].aktif */\n      0x02\n      add\n      0x00\n        /* \"Tiket.sol\":4717:4752  holdTiketData[holdId].aktif = false */\n      0x0100\n      exp\n      dup2\n      sload\n      dup2\n      0xff\n      mul\n      not\n      and\n      swap1\n      dup4\n      iszero\n      iszero\n      mul\n      or\n      swap1\n      sstore\n      pop\n        /* \"Tiket.sol\":4785:4791  holdId */\n      dup3\n        /* \"Tiket.sol\":4772:4792  TiketDilepas(holdId) */\n      0x75b500e641878a21886fc52000b2750ae82d6a6866c48b29bccb1848d742c3ca\n      mload(0x40)\n      mload(0x40)\n      dup1\n      swap2\n      sub\n      swap1\n      log2\n        /* \"Tiket.sol\":4807:4870  revert(\"Waktu hold tiket sudah habis dan tiket telah dilepas.\") */\n      mload(0x40)\n      0x08c379a000000000000000000000000000000000000000000000000000000000\n      dup2\n      mstore\n      0x04\n      add\n      tag_204\n      swap1\n      tag_205\n      jump\t// in\n    tag_204:\n      mload(0x40)\n      dup1\n      swap2\n      sub\n      swap1\n      revert\n        /* \"Tiket.sol\":4643:4882  if (block.timestamp > holdTiketData[holdId].holdTimestamp) {... */\n    tag_203:\n        /* \"Tiket.sol\":4894:4913  uint256 jumlahTiket */\n      0x00\n        /* \"Tiket.sol\":4916:4929  holdTiketData */\n      0x08\n        /* \"Tiket.sol\":4916:4937  holdTiketData[holdId] */\n      0x00\n        /* \"Tiket.sol\":4930:4936  holdId */\n      dup6\n        /* \"Tiket.sol\":4916:4937  holdTiketData[holdId] */\n      dup2\n      mstore\n      0x20\n      add\n      swap1\n      dup2\n      mstore\n      0x20\n      add\n      0x00\n      keccak256\n        /* \"Tiket.sol\":4916:4949  holdTiketData[holdId].jumlahTiket */\n      0x00\n      add\n      sload\n        /* \"Tiket.sol\":4894:4949  uint256 jumlahTiket = holdTiketData[holdId].jumlahTiket */\n      swap1\n      pop\n        /* \"Tiket.sol\":4989:5000  jumlahTiket */\n      dup1\n        /* \"Tiket.sol\":4960:4977  tiketPerIdentitas */\n      0x0a\n        /* \"Tiket.sol\":4960:4986  tiketPerIdentitas[nikHash] */\n      0x00\n        /* \"Tiket.sol\":4978:4985  nikHash */\n      dup5\n        /* \"Tiket.sol\":4960:4986  tiketPerIdentitas[nikHash] */\n      dup2\n      mstore\n      0x20\n      add\n      swap1\n      dup2\n      mstore\n      0x20\n      add\n      0x00\n      keccak256\n        /* \"Tiket.sol\":4960:5000  tiketPerIdentitas[nikHash] = jumlahTiket */\n      dup2\n      swap1\n      sstore\n      pop\n        /* \"Tiket.sol\":5018:5027  uint256 i */\n      0x00\n        /* \"Tiket.sol\":5013:5397  for (uint256 i = 0; i < jumlahTiket; i++) {... */\n    tag_206:\n        /* \"Tiket.sol\":5037:5048  jumlahTiket */\n      dup2\n        /* \"Tiket.sol\":5033:5034  i */\n      dup2\n        /* \"Tiket.sol\":5033:5048  i < jumlahTiket */\n      lt\n        /* \"Tiket.sol\":5013:5397  for (uint256 i = 0; i < jumlahTiket; i++) {... */\n      iszero\n      tag_207\n      jumpi\n        /* \"Tiket.sol\":5070:5085  uint256 idTiket */\n      0x00\n        /* \"Tiket.sol\":5103:5104  1 */\n      0x01\n        /* \"Tiket.sol\":5088:5100  tiketTerjual */\n      sload(0x03)\n        /* \"Tiket.sol\":5088:5104  tiketTerjual + 1 */\n      tag_209\n      swap2\n      swap1\n      tag_123\n      jump\t// in\n    tag_209:\n        /* \"Tiket.sol\":5070:5104  uint256 idTiket = tiketTerjual + 1 */\n      swap1\n      pop\n        /* \"Tiket.sol\":5119:5141  string memory kodeUnik */\n      0x00\n        /* \"Tiket.sol\":5144:5174  generateKodeUnik(idTiket, nik) */\n      tag_210\n        /* \"Tiket.sol\":5161:5168  idTiket */\n      dup3\n        /* \"Tiket.sol\":5170:5173  nik */\n      dup8\n        /* \"Tiket.sol\":5144:5160  generateKodeUnik */\n      tag_211\n        /* \"Tiket.sol\":5144:5174  generateKodeUnik(idTiket, nik) */\n      jump\t// in\n    tag_210:\n        /* \"Tiket.sol\":5119:5174  string memory kodeUnik = generateKodeUnik(idTiket, nik) */\n      swap1\n      pop\n        /* \"Tiket.sol\":5212:5249  TiketDetail(nikHash, kodeUnik, false) */\n      mload(0x40)\n      dup1\n      0x60\n      add\n      0x40\n      mstore\n      dup1\n        /* \"Tiket.sol\":5224:5231  nikHash */\n      dup7\n        /* \"Tiket.sol\":5212:5249  TiketDetail(nikHash, kodeUnik, false) */\n      dup2\n      mstore\n      0x20\n      add\n        /* \"Tiket.sol\":5233:5241  kodeUnik */\n      dup3\n        /* \"Tiket.sol\":5212:5249  TiketDetail(nikHash, kodeUnik, false) */\n      dup2\n      mstore\n      0x20\n      add\n        /* \"Tiket.sol\":5243:5248  false */\n      0x00\n        /* \"Tiket.sol\":5212:5249  TiketDetail(nikHash, kodeUnik, false) */\n      iszero\n      iszero\n      dup2\n      mstore\n      pop\n        /* \"Tiket.sol\":5189:5200  daftarTiket */\n      0x0c\n        /* \"Tiket.sol\":5189:5209  daftarTiket[idTiket] */\n      0x00\n        /* \"Tiket.sol\":5201:5208  idTiket */\n      dup5\n        /* \"Tiket.sol\":5189:5209  daftarTiket[idTiket] */\n      dup2\n      mstore\n      0x20\n      add\n      swap1\n      dup2\n      mstore\n      0x20\n      add\n      0x00\n      keccak256\n        /* \"Tiket.sol\":5189:5249  daftarTiket[idTiket] = TiketDetail(nikHash, kodeUnik, false) */\n      0x00\n      dup3\n      add\n      mload\n      dup2\n      0x00\n      add\n      sstore\n      0x20\n      dup3\n      add\n      mload\n      dup2\n      0x01\n      add\n      swap1\n      dup1\n      mload\n      swap1\n      0x20\n      add\n      swap1\n      tag_212\n      swap3\n      swap2\n      swap1\n      tag_213\n      jump\t// in\n    tag_212:\n      pop\n      0x40\n      dup3\n      add\n      mload\n      dup2\n      0x02\n      add\n      exp(0x0100, 0x00)\n      dup2\n      sload\n      dup2\n      0xff\n      mul\n      not\n      and\n      swap1\n      dup4\n      iszero\n      iszero\n      mul\n      or\n      swap1\n      sstore\n      pop\n      swap1\n      pop\n      pop\n        /* \"Tiket.sol\":5290:5297  idTiket */\n      dup2\n        /* \"Tiket.sol\":5264:5277  kodeTiketToId */\n      0x0b\n        /* \"Tiket.sol\":5278:5286  kodeUnik */\n      dup3\n        /* \"Tiket.sol\":5264:5287  kodeTiketToId[kodeUnik] */\n      mload(0x40)\n      tag_214\n      swap2\n      swap1\n      tag_146\n      jump\t// in\n    tag_214:\n      swap1\n      dup2\n      mstore\n      0x20\n      add\n      mload(0x40)\n      dup1\n      swap2\n      sub\n      swap1\n      keccak256\n        /* \"Tiket.sol\":5264:5297  kodeTiketToId[kodeUnik] = idTiket */\n      dup2\n      swap1\n      sstore\n      pop\n        /* \"Tiket.sol\":5312:5324  tiketTerjual */\n      0x03\n      0x00\n        /* \"Tiket.sol\":5312:5326  tiketTerjual++ */\n      dup2\n      sload\n      dup1\n      swap3\n      swap2\n      swap1\n      tag_215\n      swap1\n      tag_125\n      jump\t// in\n    tag_215:\n      swap2\n      swap1\n      pop\n      sstore\n      pop\n        /* \"Tiket.sol\":5367:5374  nikHash */\n      dup5\n        /* \"Tiket.sol\":5358:5365  idTiket */\n      dup3\n        /* \"Tiket.sol\":5346:5385  TiketDibeli(idTiket, nikHash, kodeUnik) */\n      0xfcacde2872c0256e989158662a881413445b12a912c04f5c50d78b40250804fb\n        /* \"Tiket.sol\":5376:5384  kodeUnik */\n      dup4\n        /* \"Tiket.sol\":5346:5385  TiketDibeli(idTiket, nikHash, kodeUnik) */\n      mload(0x40)\n      tag_216\n      swap2\n      swap1\n      tag_89\n      jump\t// in\n    tag_216:\n      mload(0x40)\n      dup1\n      swap2\n      sub\n      swap1\n      log3\n        /* \"Tiket.sol\":5055:5397  {... */\n      pop\n      pop\n        /* \"Tiket.sol\":5050:5053  i++ */\n      dup1\n      dup1\n      tag_217\n      swap1\n      tag_125\n      jump\t// in\n    tag_217:\n      swap2\n      pop\n      pop\n        /* \"Tiket.sol\":5013:5397  for (uint256 i = 0; i < jumlahTiket; i++) {... */\n      jump(tag_206)\n    tag_207:\n      pop\n        /* \"Tiket.sol\":5439:5444  false */\n      0x00\n        /* \"Tiket.sol\":5409:5422  holdTiketData */\n      0x08\n        /* \"Tiket.sol\":5409:5430  holdTiketData[holdId] */\n      0x00\n        /* \"Tiket.sol\":5423:5429  holdId */\n      dup7\n        /* \"Tiket.sol\":5409:5430  holdTiketData[holdId] */\n      dup2\n      mstore\n      0x20\n      add\n      swap1\n      dup2\n      mstore\n      0x20\n      add\n      0x00\n      keccak256\n        /* \"Tiket.sol\":5409:5436  holdTiketData[holdId].aktif */\n      0x02\n      add\n      0x00\n        /* \"Tiket.sol\":5409:5444  holdTiketData[holdId].aktif = false */\n      0x0100\n      exp\n      dup2\n      sload\n      dup2\n      0xff\n      mul\n      not\n      and\n      swap1\n      dup4\n      iszero\n      iszero\n      mul\n      or\n      swap1\n      sstore\n      pop\n        /* \"Tiket.sol\":4258:5452  {... */\n      pop\n      pop\n        /* \"@openzeppelin/contracts/security/ReentrancyGuard.sol\":2303:2323   */\n      tag_218\n        /* \"@openzeppelin/contracts/security/ReentrancyGuard.sol\":2303:2321   */\n      tag_138\n        /* \"@openzeppelin/contracts/security/ReentrancyGuard.sol\":2303:2323   */\n      jump\t// in\n    tag_218:\n        /* \"Tiket.sol\":4146:5452  function beliTiket(... */\n      pop\n      pop\n      jump\t// out\n        /* \"Tiket.sol\":6049:6735  function cekTiket(... */\n    tag_96:\n        /* \"Tiket.sol\":6157:6161  bool */\n      0x00\n        /* \"Tiket.sol\":6163:6176  string memory */\n      0x60\n        /* \"Tiket.sol\":6189:6204  uint256 idTiket */\n      0x00\n        /* \"Tiket.sol\":6207:6220  kodeTiketToId */\n      0x0b\n        /* \"Tiket.sol\":6221:6230  kodeTiket */\n      dup6\n        /* \"Tiket.sol\":6207:6231  kodeTiketToId[kodeTiket] */\n      mload(0x40)\n      tag_220\n      swap2\n      swap1\n      tag_146\n      jump\t// in\n    tag_220:\n      swap1\n      dup2\n      mstore\n      0x20\n      add\n      mload(0x40)\n      dup1\n      swap2\n      sub\n      swap1\n      keccak256\n      sload\n        /* \"Tiket.sol\":6189:6231  uint256 idTiket = kodeTiketToId[kodeTiket] */\n      swap1\n      pop\n        /* \"Tiket.sol\":6257:6258  0 */\n      0x00\n        /* \"Tiket.sol\":6246:6253  idTiket */\n      dup2\n        /* \"Tiket.sol\":6246:6258  idTiket == 0 */\n      eq\n        /* \"Tiket.sol\":6242:6326  if (idTiket == 0) {... */\n      iszero\n      tag_221\n      jumpi\n        /* \"Tiket.sol\":6283:6288  false */\n      0x00\n        /* \"Tiket.sol\":6275:6314  return (false, \"Tiket tidak ditemukan\") */\n      mload(0x40)\n      dup1\n      0x40\n      add\n      0x40\n      mstore\n      dup1\n      0x15\n      dup2\n      mstore\n      0x20\n      add\n      0x54696b657420746964616b20646974656d756b616e0000000000000000000000\n      dup2\n      mstore\n      pop\n      swap3\n      pop\n      swap3\n      pop\n      pop\n      jump(tag_219)\n        /* \"Tiket.sol\":6242:6326  if (idTiket == 0) {... */\n    tag_221:\n        /* \"Tiket.sol\":6338:6353  bytes32 nikHash */\n      0x00\n        /* \"Tiket.sol\":6356:6368  hashNIK(nik) */\n      tag_222\n        /* \"Tiket.sol\":6364:6367  nik */\n      dup6\n        /* \"Tiket.sol\":6356:6363  hashNIK */\n      tag_154\n        /* \"Tiket.sol\":6356:6368  hashNIK(nik) */\n      jump\t// in\n    tag_222:\n        /* \"Tiket.sol\":6338:6368  bytes32 nikHash = hashNIK(nik) */\n      swap1\n      pop\n        /* \"Tiket.sol\":6415:6422  nikHash */\n      dup1\n        /* \"Tiket.sol\":6383:6394  daftarTiket */\n      0x0c\n        /* \"Tiket.sol\":6383:6403  daftarTiket[idTiket] */\n      0x00\n        /* \"Tiket.sol\":6395:6402  idTiket */\n      dup5\n        /* \"Tiket.sol\":6383:6403  daftarTiket[idTiket] */\n      dup2\n      mstore\n      0x20\n      add\n      swap1\n      dup2\n      mstore\n      0x20\n      add\n      0x00\n      keccak256\n        /* \"Tiket.sol\":6383:6411  daftarTiket[idTiket].nikHash */\n      0x00\n      add\n      sload\n        /* \"Tiket.sol\":6383:6422  daftarTiket[idTiket].nikHash == nikHash */\n      eq\n        /* \"Tiket.sol\":6379:6728  if (daftarTiket[idTiket].nikHash == nikHash) {... */\n      iszero\n      tag_223\n      jumpi\n        /* \"Tiket.sol\":6444:6455  daftarTiket */\n      0x0c\n        /* \"Tiket.sol\":6444:6464  daftarTiket[idTiket] */\n      0x00\n        /* \"Tiket.sol\":6456:6463  idTiket */\n      dup4\n        /* \"Tiket.sol\":6444:6464  daftarTiket[idTiket] */\n      dup2\n      mstore\n      0x20\n      add\n      swap1\n      dup2\n      mstore\n      0x20\n      add\n      0x00\n      keccak256\n        /* \"Tiket.sol\":6444:6474  daftarTiket[idTiket].digunakan */\n      0x02\n      add\n      0x00\n      swap1\n      sload\n      swap1\n      0x0100\n      exp\n      swap1\n      div\n      0xff\n      and\n        /* \"Tiket.sol\":6439:6649  if (!daftarTiket[idTiket].digunakan) {... */\n      tag_224\n      jumpi\n        /* \"Tiket.sol\":6503:6507  true */\n      0x01\n        /* \"Tiket.sol\":6495:6543  return (true, \"Tiket valid dan belum digunakan\") */\n      mload(0x40)\n      dup1\n      0x40\n      add\n      0x40\n      mstore\n      dup1\n      0x1f\n      dup2\n      mstore\n      0x20\n      add\n      0x54696b65742076616c69642064616e2062656c756d20646967756e616b616e00\n      dup2\n      mstore\n      pop\n      swap4\n      pop\n      swap4\n      pop\n      pop\n      pop\n      jump(tag_219)\n        /* \"Tiket.sol\":6439:6649  if (!daftarTiket[idTiket].digunakan) {... */\n    tag_224:\n        /* \"Tiket.sol\":6592:6597  false */\n      0x00\n        /* \"Tiket.sol\":6584:6633  return (false, \"Tiket valid dan sudah digunakan\") */\n      mload(0x40)\n      dup1\n      0x40\n      add\n      0x40\n      mstore\n      dup1\n      0x1f\n      dup2\n      mstore\n      0x20\n      add\n      0x54696b65742076616c69642064616e20737564616820646967756e616b616e00\n      dup2\n      mstore\n      pop\n      swap4\n      pop\n      swap4\n      pop\n      pop\n      pop\n      jump(tag_219)\n        /* \"Tiket.sol\":6379:6728  if (daftarTiket[idTiket].nikHash == nikHash) {... */\n    tag_223:\n        /* \"Tiket.sol\":6689:6694  false */\n      0x00\n        /* \"Tiket.sol\":6681:6716  return (false, \"Tiket tidak valid\") */\n      mload(0x40)\n      dup1\n      0x40\n      add\n      0x40\n      mstore\n      dup1\n      0x11\n      dup2\n      mstore\n      0x20\n      add\n      0x54696b657420746964616b2076616c6964000000000000000000000000000000\n      dup2\n      mstore\n      pop\n      swap4\n      pop\n      swap4\n      pop\n      pop\n      pop\n        /* \"Tiket.sol\":6049:6735  function cekTiket(... */\n    tag_219:\n      swap3\n      pop\n      swap3\n      swap1\n      pop\n      jump\t// out\n        /* \"Tiket.sol\":915:966  mapping(string => uint256) public tiketDibeliPerNIK */\n    tag_101:\n      0x0d\n      dup2\n      dup1\n      mload\n      0x20\n      dup2\n      add\n      dup3\n      add\n      dup1\n      mload\n      dup5\n      dup3\n      mstore\n      0x20\n      dup4\n      add\n      0x20\n      dup6\n      add\n      keccak256\n      dup2\n      dup4\n      mstore\n      dup1\n      swap6\n      pop\n      pop\n      pop\n      pop\n      pop\n      pop\n      0x00\n      swap2\n      pop\n      swap1\n      pop\n      sload\n      dup2\n      jump\t// out\n        /* \"Tiket.sol\":342:371  uint256 public nextHoldId = 1 */\n    tag_104:\n      sload(0x06)\n      dup2\n      jump\t// out\n        /* \"Tiket.sol\":3741:4138  function releaseHoldTiket(uint256 holdId) public hanyaPemilik nonReentrant {... */\n    tag_108:\n        /* \"Tiket.sol\":1329:1334  owner */\n      0x01\n      0x00\n      swap1\n      sload\n      swap1\n      0x0100\n      exp\n      swap1\n      div\n      0xffffffffffffffffffffffffffffffffffffffff\n      and\n        /* \"Tiket.sol\":1315:1334  msg.sender == owner */\n      0xffffffffffffffffffffffffffffffffffffffff\n      and\n        /* \"Tiket.sol\":1315:1325  msg.sender */\n      caller\n        /* \"Tiket.sol\":1315:1334  msg.sender == owner */\n      0xffffffffffffffffffffffffffffffffffffffff\n      and\n      eq\n        /* \"Tiket.sol\":1293:1406  require(... */\n      tag_228\n      jumpi\n      mload(0x40)\n      0x08c379a000000000000000000000000000000000000000000000000000000000\n      dup2\n      mstore\n      0x04\n      add\n      tag_229\n      swap1\n      tag_113\n      jump\t// in\n    tag_229:\n      mload(0x40)\n      dup1\n      swap2\n      sub\n      swap1\n      revert\n    tag_228:\n        /* \"@openzeppelin/contracts/security/ReentrancyGuard.sol\":2261:2282   */\n      tag_231\n        /* \"@openzeppelin/contracts/security/ReentrancyGuard.sol\":2261:2280   */\n      tag_116\n        /* \"@openzeppelin/contracts/security/ReentrancyGuard.sol\":2261:2282   */\n      jump\t// in\n    tag_231:\n        /* \"Tiket.sol\":3849:3862  holdTiketData */\n      0x08\n        /* \"Tiket.sol\":3849:3870  holdTiketData[holdId] */\n      0x00\n        /* \"Tiket.sol\":3863:3869  holdId */\n      dup3\n        /* \"Tiket.sol\":3849:3870  holdTiketData[holdId] */\n      dup2\n      mstore\n      0x20\n      add\n      swap1\n      dup2\n      mstore\n      0x20\n      add\n      0x00\n      keccak256\n        /* \"Tiket.sol\":3849:3876  holdTiketData[holdId].aktif */\n      0x02\n      add\n      0x00\n      swap1\n      sload\n      swap1\n      0x0100\n      exp\n      swap1\n      div\n      0xff\n      and\n        /* \"Tiket.sol\":3827:3942  require(... */\n      tag_233\n      jumpi\n      mload(0x40)\n      0x08c379a000000000000000000000000000000000000000000000000000000000\n      dup2\n      mstore\n      0x04\n      add\n      tag_234\n      swap1\n      tag_198\n      jump\t// in\n    tag_234:\n      mload(0x40)\n      dup1\n      swap2\n      sub\n      swap1\n      revert\n    tag_233:\n        /* \"Tiket.sol\":4089:4094  false */\n      0x00\n        /* \"Tiket.sol\":4059:4072  holdTiketData */\n      0x08\n        /* \"Tiket.sol\":4059:4080  holdTiketData[holdId] */\n      0x00\n        /* \"Tiket.sol\":4073:4079  holdId */\n      dup4\n        /* \"Tiket.sol\":4059:4080  holdTiketData[holdId] */\n      dup2\n      mstore\n      0x20\n      add\n      swap1\n      dup2\n      mstore\n      0x20\n      add\n      0x00\n      keccak256\n        /* \"Tiket.sol\":4059:4086  holdTiketData[holdId].aktif */\n      0x02\n      add\n      0x00\n        /* \"Tiket.sol\":4059:4094  holdTiketData[holdId].aktif = false */\n      0x0100\n      exp\n      dup2\n      sload\n      dup2\n      0xff\n      mul\n      not\n      and\n      swap1\n      dup4\n      iszero\n      iszero\n      mul\n      or\n      swap1\n      sstore\n      pop\n        /* \"Tiket.sol\":4123:4129  holdId */\n      dup1\n        /* \"Tiket.sol\":4110:4130  TiketDilepas(holdId) */\n      0x75b500e641878a21886fc52000b2750ae82d6a6866c48b29bccb1848d742c3ca\n      mload(0x40)\n      mload(0x40)\n      dup1\n      swap2\n      sub\n      swap1\n      log2\n        /* \"@openzeppelin/contracts/security/ReentrancyGuard.sol\":2303:2323   */\n      tag_235\n        /* \"@openzeppelin/contracts/security/ReentrancyGuard.sol\":2303:2321   */\n      tag_138\n        /* \"@openzeppelin/contracts/security/ReentrancyGuard.sol\":2303:2323   */\n      jump\t// in\n    tag_235:\n        /* \"Tiket.sol\":3741:4138  function releaseHoldTiket(uint256 holdId) public hanyaPemilik nonReentrant {... */\n      pop\n      jump\t// out\n        /* \"@openzeppelin/contracts/security/ReentrancyGuard.sol\":2336:2623   */\n    tag_116:\n        /* \"@openzeppelin/contracts/security/ReentrancyGuard.sol\":1759:1760   */\n      0x02\n        /* \"@openzeppelin/contracts/security/ReentrancyGuard.sol\":2468:2475   */\n      sload(0x00)\n        /* \"@openzeppelin/contracts/security/ReentrancyGuard.sol\":2468:2487   */\n      eq\n      iszero\n        /* \"@openzeppelin/contracts/security/ReentrancyGuard.sol\":2460:2523   */\n      tag_237\n      jumpi\n      mload(0x40)\n      0x08c379a000000000000000000000000000000000000000000000000000000000\n      dup2\n      mstore\n      0x04\n      add\n      tag_238\n      swap1\n      tag_239\n      jump\t// in\n    tag_238:\n      mload(0x40)\n      dup1\n      swap2\n      sub\n      swap1\n      revert\n    tag_237:\n        /* \"@openzeppelin/contracts/security/ReentrancyGuard.sol\":1759:1760   */\n      0x02\n        /* \"@openzeppelin/contracts/security/ReentrancyGuard.sol\":2598:2605   */\n      0x00\n        /* \"@openzeppelin/contracts/security/ReentrancyGuard.sol\":2598:2616   */\n      dup2\n      swap1\n      sstore\n      pop\n        /* \"@openzeppelin/contracts/security/ReentrancyGuard.sol\":2336:2623   */\n      jump\t// out\n        /* \"@openzeppelin/contracts/security/ReentrancyGuard.sol\":2629:2838   */\n    tag_138:\n        /* \"@openzeppelin/contracts/security/ReentrancyGuard.sol\":1716:1717   */\n      0x01\n        /* \"@openzeppelin/contracts/security/ReentrancyGuard.sol\":2809:2816   */\n      0x00\n        /* \"@openzeppelin/contracts/security/ReentrancyGuard.sol\":2809:2831   */\n      dup2\n      swap1\n      sstore\n      pop\n        /* \"@openzeppelin/contracts/security/ReentrancyGuard.sol\":2629:2838   */\n      jump\t// out\n        /* \"Tiket.sol\":1750:1875  function hashNIK(string memory nik) private pure returns (bytes32) {... */\n    tag_154:\n        /* \"Tiket.sol\":1808:1815  bytes32 */\n      0x00\n        /* \"Tiket.sol\":1862:1865  nik */\n      dup2\n        /* \"Tiket.sol\":1845:1866  abi.encodePacked(nik) */\n      add(0x20, mload(0x40))\n      tag_242\n      swap2\n      swap1\n      tag_146\n      jump\t// in\n    tag_242:\n      mload(0x40)\n      0x20\n      dup2\n      dup4\n      sub\n      sub\n      dup2\n      mstore\n      swap1\n      0x40\n      mstore\n        /* \"Tiket.sol\":1835:1867  keccak256(abi.encodePacked(nik)) */\n      dup1\n      mload\n      swap1\n      0x20\n      add\n      keccak256\n        /* \"Tiket.sol\":1828:1867  return keccak256(abi.encodePacked(nik)) */\n      swap1\n      pop\n        /* \"Tiket.sol\":1750:1875  function hashNIK(string memory nik) private pure returns (bytes32) {... */\n      swap2\n      swap1\n      pop\n      jump\t// out\n        /* \"Tiket.sol\":1883:2277  function generateKodeUnik(... */\n    tag_211:\n        /* \"Tiket.sol\":1992:2005  string memory */\n      0x60\n        /* \"Tiket.sol\":2018:2033  bytes32 nikHash */\n      0x00\n        /* \"Tiket.sol\":2036:2048  hashNIK(nik) */\n      tag_244\n        /* \"Tiket.sol\":2044:2047  nik */\n      dup4\n        /* \"Tiket.sol\":2036:2043  hashNIK */\n      tag_154\n        /* \"Tiket.sol\":2036:2048  hashNIK(nik) */\n      jump\t// in\n    tag_244:\n        /* \"Tiket.sol\":2018:2048  bytes32 nikHash = hashNIK(nik) */\n      swap1\n      pop\n        /* \"Tiket.sol\":2143:2169  uint2str(uint256(nikHash)) */\n      tag_245\n        /* \"Tiket.sol\":2160:2167  nikHash */\n      dup2\n        /* \"Tiket.sol\":2152:2168  uint256(nikHash) */\n      0x00\n      shr\n        /* \"Tiket.sol\":2143:2151  uint2str */\n      tag_246\n        /* \"Tiket.sol\":2143:2169  uint2str(uint256(nikHash)) */\n      jump\t// in\n    tag_245:\n        /* \"Tiket.sol\":2218:2235  uint2str(idTiket) */\n      tag_247\n        /* \"Tiket.sol\":2227:2234  idTiket */\n      dup6\n        /* \"Tiket.sol\":2218:2226  uint2str */\n      tag_246\n        /* \"Tiket.sol\":2218:2235  uint2str(idTiket) */\n      jump\t// in\n    tag_247:\n        /* \"Tiket.sol\":2104:2254  abi.encodePacked(... */\n      add(0x20, mload(0x40))\n      tag_248\n      swap3\n      swap2\n      swap1\n      tag_249\n      jump\t// in\n    tag_248:\n      mload(0x40)\n      0x20\n      dup2\n      dup4\n      sub\n      sub\n      dup2\n      mstore\n      swap1\n      0x40\n      mstore\n        /* \"Tiket.sol\":2059:2269  return... */\n      swap2\n      pop\n      pop\n        /* \"Tiket.sol\":1883:2277  function generateKodeUnik(... */\n      swap3\n      swap2\n      pop\n      pop\n      jump\t// out\n        /* \"Tiket.sol\":2285:2812  function uint2str(uint256 _i) private pure returns (string memory) {... */\n    tag_246:\n        /* \"Tiket.sol\":2337:2350  string memory */\n      0x60\n        /* \"Tiket.sol\":2373:2374  0 */\n      0x00\n        /* \"Tiket.sol\":2367:2369  _i */\n      dup3\n        /* \"Tiket.sol\":2367:2374  _i == 0 */\n      eq\n        /* \"Tiket.sol\":2363:2413  if (_i == 0) {... */\n      iszero\n      tag_251\n      jumpi\n        /* \"Tiket.sol\":2391:2401  return \"0\" */\n      mload(0x40)\n      dup1\n      0x40\n      add\n      0x40\n      mstore\n      dup1\n      0x01\n      dup2\n      mstore\n      0x20\n      add\n      0x3000000000000000000000000000000000000000000000000000000000000000\n      dup2\n      mstore\n      pop\n      swap1\n      pop\n      jump(tag_250)\n        /* \"Tiket.sol\":2363:2413  if (_i == 0) {... */\n    tag_251:\n        /* \"Tiket.sol\":2423:2432  uint256 j */\n      0x00\n        /* \"Tiket.sol\":2435:2437  _i */\n      dup3\n        /* \"Tiket.sol\":2423:2437  uint256 j = _i */\n      swap1\n      pop\n        /* \"Tiket.sol\":2448:2462  uint256 length */\n      0x00\n        /* \"Tiket.sol\":2473:2545  while (j != 0) {... */\n    tag_252:\n        /* \"Tiket.sol\":2485:2486  0 */\n      0x00\n        /* \"Tiket.sol\":2480:2481  j */\n      dup3\n        /* \"Tiket.sol\":2480:2486  j != 0 */\n      eq\n        /* \"Tiket.sol\":2473:2545  while (j != 0) {... */\n      tag_253\n      jumpi\n        /* \"Tiket.sol\":2503:2511  length++ */\n      dup1\n      dup1\n      tag_254\n      swap1\n      tag_125\n      jump\t// in\n    tag_254:\n      swap2\n      pop\n      pop\n        /* \"Tiket.sol\":2531:2533  10 */\n      0x0a\n        /* \"Tiket.sol\":2526:2533  j /= 10 */\n      dup3\n      tag_255\n      swap2\n      swap1\n      tag_256\n      jump\t// in\n    tag_255:\n      swap2\n      pop\n        /* \"Tiket.sol\":2473:2545  while (j != 0) {... */\n      jump(tag_252)\n    tag_253:\n        /* \"Tiket.sol\":2555:2572  bytes memory bstr */\n      0x00\n        /* \"Tiket.sol\":2585:2591  length */\n      dup2\n        /* \"Tiket.sol\":2575:2592  new bytes(length) */\n      0xffffffffffffffff\n      dup2\n      gt\n      iszero\n      tag_257\n      jumpi\n      tag_258\n      tag_259\n      jump\t// in\n    tag_258:\n    tag_257:\n      mload(0x40)\n      swap1\n      dup1\n      dup3\n      mstore\n      dup1\n      0x1f\n      add\n      not(0x1f)\n      and\n      0x20\n      add\n      dup3\n      add\n      0x40\n      mstore\n      dup1\n      iszero\n      tag_260\n      jumpi\n      dup2\n      0x20\n      add\n      0x01\n      dup3\n      mul\n      dup1\n      calldatasize\n      dup4\n      calldatacopy\n      dup1\n      dup3\n      add\n      swap2\n      pop\n      pop\n      swap1\n      pop\n    tag_260:\n      pop\n        /* \"Tiket.sol\":2555:2592  bytes memory bstr = new bytes(length) */\n      swap1\n      pop\n        /* \"Tiket.sol\":2603:2612  uint256 k */\n      0x00\n        /* \"Tiket.sol\":2615:2621  length */\n      dup3\n        /* \"Tiket.sol\":2603:2621  uint256 k = length */\n      swap1\n      pop\n        /* \"Tiket.sol\":2636:2638  _i */\n      dup6\n        /* \"Tiket.sol\":2632:2638  j = _i */\n      swap4\n      pop\n        /* \"Tiket.sol\":2649:2775  while (j != 0) {... */\n    tag_261:\n        /* \"Tiket.sol\":2661:2662  0 */\n      0x00\n        /* \"Tiket.sol\":2656:2657  j */\n      dup5\n        /* \"Tiket.sol\":2656:2662  j != 0 */\n      eq\n        /* \"Tiket.sol\":2649:2775  while (j != 0) {... */\n      tag_262\n      jumpi\n        /* \"Tiket.sol\":2687:2688  1 */\n      0x01\n        /* \"Tiket.sol\":2683:2684  k */\n      dup2\n        /* \"Tiket.sol\":2683:2688  k - 1 */\n      tag_263\n      swap2\n      swap1\n      tag_173\n      jump\t// in\n    tag_263:\n        /* \"Tiket.sol\":2679:2688  k = k - 1 */\n      swap1\n      pop\n        /* \"Tiket.sol\":2736:2738  10 */\n      0x0a\n        /* \"Tiket.sol\":2732:2733  j */\n      dup5\n        /* \"Tiket.sol\":2732:2738  j % 10 */\n      tag_264\n      swap2\n      swap1\n      tag_265\n      jump\t// in\n    tag_264:\n        /* \"Tiket.sol\":2726:2728  48 */\n      0x30\n        /* \"Tiket.sol\":2726:2739  48 + (j % 10) */\n      tag_266\n      swap2\n      swap1\n      tag_123\n      jump\t// in\n    tag_266:\n        /* \"Tiket.sol\":2713:2741  bytes1(uint8(48 + (j % 10))) */\n      0xf8\n      shl\n        /* \"Tiket.sol\":2703:2707  bstr */\n      dup3\n        /* \"Tiket.sol\":2708:2709  k */\n      dup3\n        /* \"Tiket.sol\":2703:2710  bstr[k] */\n      dup2\n      mload\n      dup2\n      lt\n      tag_267\n      jumpi\n      tag_268\n      tag_269\n      jump\t// in\n    tag_268:\n    tag_267:\n      0x20\n      add\n      add\n        /* \"Tiket.sol\":2703:2741  bstr[k] = bytes1(uint8(48 + (j % 10))) */\n      swap1\n      not(0xffffffffffffffffffffffffffffffffffffffffffffffffffffffffffffff)\n      and\n      swap1\n      dup2\n      0x00\n      byte\n      swap1\n      mstore8\n      pop\n        /* \"Tiket.sol\":2761:2763  10 */\n      0x0a\n        /* \"Tiket.sol\":2756:2763  j /= 10 */\n      dup5\n      tag_270\n      swap2\n      swap1\n      tag_256\n      jump\t// in\n    tag_270:\n      swap4\n      pop\n        /* \"Tiket.sol\":2649:2775  while (j != 0) {... */\n      jump(tag_261)\n    tag_262:\n        /* \"Tiket.sol\":2799:2803  bstr */\n      dup2\n        /* \"Tiket.sol\":2785:2804  return string(bstr) */\n      swap5\n      pop\n      pop\n      pop\n      pop\n      pop\n        /* \"Tiket.sol\":2285:2812  function uint2str(uint256 _i) private pure returns (string memory) {... */\n    tag_250:\n      swap2\n      swap1\n      pop\n      jump\t// out\n    tag_213:\n      dup3\n      dup1\n      sload\n      tag_271\n      swap1\n      tag_160\n      jump\t// in\n    tag_271:\n      swap1\n      0x00\n      mstore\n      keccak256(0x00, 0x20)\n      swap1\n      0x1f\n      add\n      0x20\n      swap1\n      div\n      dup2\n      add\n      swap3\n      dup3\n      tag_273\n      jumpi\n      0x00\n      dup6\n      sstore\n      jump(tag_272)\n    tag_273:\n      dup3\n      0x1f\n      lt\n      tag_274\n      jumpi\n      dup1\n      mload\n      not(0xff)\n      and\n      dup4\n      dup1\n      add\n      or\n      dup6\n      sstore\n      jump(tag_272)\n    tag_274:\n      dup3\n      dup1\n      add\n      0x01\n      add\n      dup6\n      sstore\n      dup3\n      iszero\n      tag_272\n      jumpi\n      swap2\n      dup3\n      add\n    tag_275:\n      dup3\n      dup2\n      gt\n      iszero\n      tag_276\n      jumpi\n      dup3\n      mload\n      dup3\n      sstore\n      swap2\n      0x20\n      add\n      swap2\n      swap1\n      0x01\n      add\n      swap1\n      jump(tag_275)\n    tag_276:\n    tag_272:\n      pop\n      swap1\n      pop\n      tag_277\n      swap2\n      swap1\n      tag_278\n      jump\t// in\n    tag_277:\n      pop\n      swap1\n      jump\t// out\n    tag_278:\n    tag_279:\n      dup1\n      dup3\n      gt\n      iszero\n      tag_280\n      jumpi\n      0x00\n      dup2\n      0x00\n      swap1\n      sstore\n      pop\n      0x01\n      add\n      jump(tag_279)\n    tag_280:\n      pop\n      swap1\n      jump\t// out\n        /* \"#utility.yul\":7:84   */\n    tag_281:\n        /* \"#utility.yul\":44:51   */\n      0x00\n        /* \"#utility.yul\":73:78   */\n      dup2\n        /* \"#utility.yul\":62:78   */\n      swap1\n      pop\n        /* \"#utility.yul\":7:84   */\n      swap2\n      swap1\n      pop\n      jump\t// out\n        /* \"#utility.yul\":90:208   */\n    tag_282:\n        /* \"#utility.yul\":177:201   */\n      tag_342\n        /* \"#utility.yul\":195:200   */\n      dup2\n        /* \"#utility.yul\":177:201   */\n      tag_281\n      jump\t// in\n    tag_342:\n        /* \"#utility.yul\":172:175   */\n      dup3\n        /* \"#utility.yul\":165:202   */\n      mstore\n        /* \"#utility.yul\":90:208   */\n      pop\n      pop\n      jump\t// out\n        /* \"#utility.yul\":214:436   */\n    tag_30:\n        /* \"#utility.yul\":307:311   */\n      0x00\n        /* \"#utility.yul\":345:347   */\n      0x20\n        /* \"#utility.yul\":334:343   */\n      dup3\n        /* \"#utility.yul\":330:348   */\n      add\n        /* \"#utility.yul\":322:348   */\n      swap1\n      pop\n        /* \"#utility.yul\":358:429   */\n      tag_344\n        /* \"#utility.yul\":426:427   */\n      0x00\n        /* \"#utility.yul\":415:424   */\n      dup4\n        /* \"#utility.yul\":411:428   */\n      add\n        /* \"#utility.yul\":402:408   */\n      dup5\n        /* \"#utility.yul\":358:429   */\n      tag_282\n      jump\t// in\n    tag_344:\n        /* \"#utility.yul\":214:436   */\n      swap3\n      swap2\n      pop\n      pop\n      jump\t// out\n        /* \"#utility.yul\":442:517   */\n    tag_283:\n        /* \"#utility.yul\":475:481   */\n      0x00\n        /* \"#utility.yul\":508:510   */\n      0x40\n        /* \"#utility.yul\":502:511   */\n      mload\n        /* \"#utility.yul\":492:511   */\n      swap1\n      pop\n        /* \"#utility.yul\":442:517   */\n      swap1\n      jump\t// out\n        /* \"#utility.yul\":523:640   */\n    tag_284:\n        /* \"#utility.yul\":632:633   */\n      0x00\n        /* \"#utility.yul\":629:630   */\n      dup1\n        /* \"#utility.yul\":622:634   */\n      revert\n        /* \"#utility.yul\":646:763   */\n    tag_285:\n        /* \"#utility.yul\":755:756   */\n      0x00\n        /* \"#utility.yul\":752:753   */\n      dup1\n        /* \"#utility.yul\":745:757   */\n      revert\n        /* \"#utility.yul\":769:846   */\n    tag_286:\n        /* \"#utility.yul\":806:813   */\n      0x00\n        /* \"#utility.yul\":835:840   */\n      dup2\n        /* \"#utility.yul\":824:840   */\n      swap1\n      pop\n        /* \"#utility.yul\":769:846   */\n      swap2\n      swap1\n      pop\n      jump\t// out\n        /* \"#utility.yul\":852:974   */\n    tag_287:\n        /* \"#utility.yul\":925:949   */\n      tag_350\n        /* \"#utility.yul\":943:948   */\n      dup2\n        /* \"#utility.yul\":925:949   */\n      tag_286\n      jump\t// in\n    tag_350:\n        /* \"#utility.yul\":918:923   */\n      dup2\n        /* \"#utility.yul\":915:950   */\n      eq\n        /* \"#utility.yul\":905:968   */\n      tag_351\n      jumpi\n        /* \"#utility.yul\":964:965   */\n      0x00\n        /* \"#utility.yul\":961:962   */\n      dup1\n        /* \"#utility.yul\":954:966   */\n      revert\n        /* \"#utility.yul\":905:968   */\n    tag_351:\n        /* \"#utility.yul\":852:974   */\n      pop\n      jump\t// out\n        /* \"#utility.yul\":980:1119   */\n    tag_288:\n        /* \"#utility.yul\":1026:1031   */\n      0x00\n        /* \"#utility.yul\":1064:1070   */\n      dup2\n        /* \"#utility.yul\":1051:1071   */\n      calldataload\n        /* \"#utility.yul\":1042:1071   */\n      swap1\n      pop\n        /* \"#utility.yul\":1080:1113   */\n      tag_353\n        /* \"#utility.yul\":1107:1112   */\n      dup2\n        /* \"#utility.yul\":1080:1113   */\n      tag_287\n      jump\t// in\n    tag_353:\n        /* \"#utility.yul\":980:1119   */\n      swap3\n      swap2\n      pop\n      pop\n      jump\t// out\n        /* \"#utility.yul\":1125:1454   */\n    tag_39:\n        /* \"#utility.yul\":1184:1190   */\n      0x00\n        /* \"#utility.yul\":1233:1235   */\n      0x20\n        /* \"#utility.yul\":1221:1230   */\n      dup3\n        /* \"#utility.yul\":1212:1219   */\n      dup5\n        /* \"#utility.yul\":1208:1231   */\n      sub\n        /* \"#utility.yul\":1204:1236   */\n      slt\n        /* \"#utility.yul\":1201:1320   */\n      iszero\n      tag_355\n      jumpi\n        /* \"#utility.yul\":1239:1318   */\n      tag_356\n      tag_284\n      jump\t// in\n    tag_356:\n        /* \"#utility.yul\":1201:1320   */\n    tag_355:\n        /* \"#utility.yul\":1359:1360   */\n      0x00\n        /* \"#utility.yul\":1384:1437   */\n      tag_357\n        /* \"#utility.yul\":1429:1436   */\n      dup5\n        /* \"#utility.yul\":1420:1426   */\n      dup3\n        /* \"#utility.yul\":1409:1418   */\n      dup6\n        /* \"#utility.yul\":1405:1427   */\n      add\n        /* \"#utility.yul\":1384:1437   */\n      tag_288\n      jump\t// in\n    tag_357:\n        /* \"#utility.yul\":1374:1437   */\n      swap2\n      pop\n        /* \"#utility.yul\":1330:1447   */\n      pop\n        /* \"#utility.yul\":1125:1454   */\n      swap3\n      swap2\n      pop\n      pop\n      jump\t// out\n        /* \"#utility.yul\":1460:1582   */\n    tag_289:\n        /* \"#utility.yul\":1533:1557   */\n      tag_359\n        /* \"#utility.yul\":1551:1556   */\n      dup2\n        /* \"#utility.yul\":1533:1557   */\n      tag_281\n      jump\t// in\n    tag_359:\n        /* \"#utility.yul\":1526:1531   */\n      dup2\n        /* \"#utility.yul\":1523:1558   */\n      eq\n        /* \"#utility.yul\":1513:1576   */\n      tag_360\n      jumpi\n        /* \"#utility.yul\":1572:1573   */\n      0x00\n        /* \"#utility.yul\":1569:1570   */\n      dup1\n        /* \"#utility.yul\":1562:1574   */\n      revert\n        /* \"#utility.yul\":1513:1576   */\n    tag_360:\n        /* \"#utility.yul\":1460:1582   */\n      pop\n      jump\t// out\n        /* \"#utility.yul\":1588:1727   */\n    tag_290:\n        /* \"#utility.yul\":1634:1639   */\n      0x00\n        /* \"#utility.yul\":1672:1678   */\n      dup2\n        /* \"#utility.yul\":1659:1679   */\n      calldataload\n        /* \"#utility.yul\":1650:1679   */\n      swap1\n      pop\n        /* \"#utility.yul\":1688:1721   */\n      tag_362\n        /* \"#utility.yul\":1715:1720   */\n      dup2\n        /* \"#utility.yul\":1688:1721   */\n      tag_289\n      jump\t// in\n    tag_362:\n        /* \"#utility.yul\":1588:1727   */\n      swap3\n      swap2\n      pop\n      pop\n      jump\t// out\n        /* \"#utility.yul\":1733:2062   */\n    tag_44:\n        /* \"#utility.yul\":1792:1798   */\n      0x00\n        /* \"#utility.yul\":1841:1843   */\n      0x20\n        /* \"#utility.yul\":1829:1838   */\n      dup3\n        /* \"#utility.yul\":1820:1827   */\n      dup5\n        /* \"#utility.yul\":1816:1839   */\n      sub\n        /* \"#utility.yul\":1812:1844   */\n      slt\n        /* \"#utility.yul\":1809:1928   */\n      iszero\n      tag_364\n      jumpi\n        /* \"#utility.yul\":1847:1926   */\n      tag_365\n      tag_284\n      jump\t// in\n    tag_365:\n        /* \"#utility.yul\":1809:1928   */\n    tag_364:\n        /* \"#utility.yul\":1967:1968   */\n      0x00\n        /* \"#utility.yul\":1992:2045   */\n      tag_366\n        /* \"#utility.yul\":2037:2044   */\n      dup5\n        /* \"#utility.yul\":2028:2034   */\n      dup3\n        /* \"#utility.yul\":2017:2026   */\n      dup6\n        /* \"#utility.yul\":2013:2035   */\n      add\n        /* \"#utility.yul\":1992:2045   */\n      tag_290\n      jump\t// in\n    tag_366:\n        /* \"#utility.yul\":1982:2045   */\n      swap2\n      pop\n        /* \"#utility.yul\":1938:2055   */\n      pop\n        /* \"#utility.yul\":1733:2062   */\n      swap3\n      swap2\n      pop\n      pop\n      jump\t// out\n        /* \"#utility.yul\":2068:2185   */\n    tag_291:\n        /* \"#utility.yul\":2177:2178   */\n      0x00\n        /* \"#utility.yul\":2174:2175   */\n      dup1\n        /* \"#utility.yul\":2167:2179   */\n      revert\n        /* \"#utility.yul\":2191:2308   */\n    tag_292:\n        /* \"#utility.yul\":2300:2301   */\n      0x00\n        /* \"#utility.yul\":2297:2298   */\n      dup1\n        /* \"#utility.yul\":2290:2302   */\n      revert\n        /* \"#utility.yul\":2314:2416   */\n    tag_293:\n        /* \"#utility.yul\":2355:2361   */\n      0x00\n        /* \"#utility.yul\":2406:2408   */\n      0x1f\n        /* \"#utility.yul\":2402:2409   */\n      not\n        /* \"#utility.yul\":2397:2399   */\n      0x1f\n        /* \"#utility.yul\":2390:2395   */\n      dup4\n        /* \"#utility.yul\":2386:2400   */\n      add\n        /* \"#utility.yul\":2382:2410   */\n      and\n        /* \"#utility.yul\":2372:2410   */\n      swap1\n      pop\n        /* \"#utility.yul\":2314:2416   */\n      swap2\n      swap1\n      pop\n      jump\t// out\n        /* \"#utility.yul\":2422:2602   */\n    tag_259:\n        /* \"#utility.yul\":2470:2547   */\n      0x4e487b7100000000000000000000000000000000000000000000000000000000\n        /* \"#utility.yul\":2467:2468   */\n      0x00\n        /* \"#utility.yul\":2460:2548   */\n      mstore\n        /* \"#utility.yul\":2567:2571   */\n      0x41\n        /* \"#utility.yul\":2564:2565   */\n      0x04\n        /* \"#utility.yul\":2557:2572   */\n      mstore\n        /* \"#utility.yul\":2591:2595   */\n      0x24\n        /* \"#utility.yul\":2588:2589   */\n      0x00\n        /* \"#utility.yul\":2581:2596   */\n      revert\n        /* \"#utility.yul\":2608:2889   */\n    tag_294:\n        /* \"#utility.yul\":2691:2718   */\n      tag_372\n        /* \"#utility.yul\":2713:2717   */\n      dup3\n        /* \"#utility.yul\":2691:2718   */\n      tag_293\n      jump\t// in\n    tag_372:\n        /* \"#utility.yul\":2683:2689   */\n      dup2\n        /* \"#utility.yul\":2679:2719   */\n      add\n        /* \"#utility.yul\":2821:2827   */\n      dup2\n        /* \"#utility.yul\":2809:2819   */\n      dup2\n        /* \"#utility.yul\":2806:2828   */\n      lt\n        /* \"#utility.yul\":2785:2803   */\n      0xffffffffffffffff\n        /* \"#utility.yul\":2773:2783   */\n      dup3\n        /* \"#utility.yul\":2770:2804   */\n      gt\n        /* \"#utility.yul\":2767:2829   */\n      or\n        /* \"#utility.yul\":2764:2852   */\n      iszero\n      tag_373\n      jumpi\n        /* \"#utility.yul\":2832:2850   */\n      tag_374\n      tag_259\n      jump\t// in\n    tag_374:\n        /* \"#utility.yul\":2764:2852   */\n    tag_373:\n        /* \"#utility.yul\":2872:2882   */\n      dup1\n        /* \"#utility.yul\":2868:2870   */\n      0x40\n        /* \"#utility.yul\":2861:2883   */\n      mstore\n        /* \"#utility.yul\":2651:2889   */\n      pop\n        /* \"#utility.yul\":2608:2889   */\n      pop\n      pop\n      jump\t// out\n        /* \"#utility.yul\":2895:3024   */\n    tag_295:\n        /* \"#utility.yul\":2929:2935   */\n      0x00\n        /* \"#utility.yul\":2956:2976   */\n      tag_376\n      tag_283\n      jump\t// in\n    tag_376:\n        /* \"#utility.yul\":2946:2976   */\n      swap1\n      pop\n        /* \"#utility.yul\":2985:3018   */\n      tag_377\n        /* \"#utility.yul\":3013:3017   */\n      dup3\n        /* \"#utility.yul\":3005:3011   */\n      dup3\n        /* \"#utility.yul\":2985:3018   */\n      tag_294\n      jump\t// in\n    tag_377:\n        /* \"#utility.yul\":2895:3024   */\n      swap2\n      swap1\n      pop\n      jump\t// out\n        /* \"#utility.yul\":3030:3338   */\n    tag_296:\n        /* \"#utility.yul\":3092:3096   */\n      0x00\n        /* \"#utility.yul\":3182:3200   */\n      0xffffffffffffffff\n        /* \"#utility.yul\":3174:3180   */\n      dup3\n        /* \"#utility.yul\":3171:3201   */\n      gt\n        /* \"#utility.yul\":3168:3224   */\n      iszero\n      tag_379\n      jumpi\n        /* \"#utility.yul\":3204:3222   */\n      tag_380\n      tag_259\n      jump\t// in\n    tag_380:\n        /* \"#utility.yul\":3168:3224   */\n    tag_379:\n        /* \"#utility.yul\":3242:3271   */\n      tag_381\n        /* \"#utility.yul\":3264:3270   */\n      dup3\n        /* \"#utility.yul\":3242:3271   */\n      tag_293\n      jump\t// in\n    tag_381:\n        /* \"#utility.yul\":3234:3271   */\n      swap1\n      pop\n        /* \"#utility.yul\":3326:3330   */\n      0x20\n        /* \"#utility.yul\":3320:3324   */\n      dup2\n        /* \"#utility.yul\":3316:3331   */\n      add\n        /* \"#utility.yul\":3308:3331   */\n      swap1\n      pop\n        /* \"#utility.yul\":3030:3338   */\n      swap2\n      swap1\n      pop\n      jump\t// out\n        /* \"#utility.yul\":3344:3498   */\n    tag_297:\n        /* \"#utility.yul\":3428:3434   */\n      dup3\n        /* \"#utility.yul\":3423:3426   */\n      dup2\n        /* \"#utility.yul\":3418:3421   */\n      dup4\n        /* \"#utility.yul\":3405:3435   */\n      calldatacopy\n        /* \"#utility.yul\":3490:3491   */\n      0x00\n        /* \"#utility.yul\":3481:3487   */\n      dup4\n        /* \"#utility.yul\":3476:3479   */\n      dup4\n        /* \"#utility.yul\":3472:3488   */\n      add\n        /* \"#utility.yul\":3465:3492   */\n      mstore\n        /* \"#utility.yul\":3344:3498   */\n      pop\n      pop\n      pop\n      jump\t// out\n        /* \"#utility.yul\":3504:3916   */\n    tag_298:\n        /* \"#utility.yul\":3582:3587   */\n      0x00\n        /* \"#utility.yul\":3607:3673   */\n      tag_384\n        /* \"#utility.yul\":3623:3672   */\n      tag_385\n        /* \"#utility.yul\":3665:3671   */\n      dup5\n        /* \"#utility.yul\":3623:3672   */\n      tag_296\n      jump\t// in\n    tag_385:\n        /* \"#utility.yul\":3607:3673   */\n      tag_295\n      jump\t// in\n    tag_384:\n        /* \"#utility.yul\":3598:3673   */\n      swap1\n      pop\n        /* \"#utility.yul\":3696:3702   */\n      dup3\n        /* \"#utility.yul\":3689:3694   */\n      dup2\n        /* \"#utility.yul\":3682:3703   */\n      mstore\n        /* \"#utility.yul\":3734:3738   */\n      0x20\n        /* \"#utility.yul\":3727:3732   */\n      dup2\n        /* \"#utility.yul\":3723:3739   */\n      add\n        /* \"#utility.yul\":3772:3775   */\n      dup5\n        /* \"#utility.yul\":3763:3769   */\n      dup5\n        /* \"#utility.yul\":3758:3761   */\n      dup5\n        /* \"#utility.yul\":3754:3770   */\n      add\n        /* \"#utility.yul\":3751:3776   */\n      gt\n        /* \"#utility.yul\":3748:3860   */\n      iszero\n      tag_386\n      jumpi\n        /* \"#utility.yul\":3779:3858   */\n      tag_387\n      tag_292\n      jump\t// in\n    tag_387:\n        /* \"#utility.yul\":3748:3860   */\n    tag_386:\n        /* \"#utility.yul\":3869:3910   */\n      tag_388\n        /* \"#utility.yul\":3903:3909   */\n      dup5\n        /* \"#utility.yul\":3898:3901   */\n      dup3\n        /* \"#utility.yul\":3893:3896   */\n      dup6\n        /* \"#utility.yul\":3869:3910   */\n      tag_297\n      jump\t// in\n    tag_388:\n        /* \"#utility.yul\":3588:3916   */\n      pop\n        /* \"#utility.yul\":3504:3916   */\n      swap4\n      swap3\n      pop\n      pop\n      pop\n      jump\t// out\n        /* \"#utility.yul\":3936:4276   */\n    tag_299:\n        /* \"#utility.yul\":3992:3997   */\n      0x00\n        /* \"#utility.yul\":4041:4044   */\n      dup3\n        /* \"#utility.yul\":4034:4038   */\n      0x1f\n        /* \"#utility.yul\":4026:4032   */\n      dup4\n        /* \"#utility.yul\":4022:4039   */\n      add\n        /* \"#utility.yul\":4018:4045   */\n      slt\n        /* \"#utility.yul\":4008:4130   */\n      tag_390\n      jumpi\n        /* \"#utility.yul\":4049:4128   */\n      tag_391\n      tag_291\n      jump\t// in\n    tag_391:\n        /* \"#utility.yul\":4008:4130   */\n    tag_390:\n        /* \"#utility.yul\":4166:4172   */\n      dup2\n        /* \"#utility.yul\":4153:4173   */\n      calldataload\n        /* \"#utility.yul\":4191:4270   */\n      tag_392\n        /* \"#utility.yul\":4266:4269   */\n      dup5\n        /* \"#utility.yul\":4258:4264   */\n      dup3\n        /* \"#utility.yul\":4251:4255   */\n      0x20\n        /* \"#utility.yul\":4243:4249   */\n      dup7\n        /* \"#utility.yul\":4239:4256   */\n      add\n        /* \"#utility.yul\":4191:4270   */\n      tag_298\n      jump\t// in\n    tag_392:\n        /* \"#utility.yul\":4182:4270   */\n      swap2\n      pop\n        /* \"#utility.yul\":3998:4276   */\n      pop\n        /* \"#utility.yul\":3936:4276   */\n      swap3\n      swap2\n      pop\n      pop\n      jump\t// out\n        /* \"#utility.yul\":4282:4791   */\n    tag_49:\n        /* \"#utility.yul\":4351:4357   */\n      0x00\n        /* \"#utility.yul\":4400:4402   */\n      0x20\n        /* \"#utility.yul\":4388:4397   */\n      dup3\n        /* \"#utility.yul\":4379:4386   */\n      dup5\n        /* \"#utility.yul\":4375:4398   */\n      sub\n        /* \"#utility.yul\":4371:4403   */\n      slt\n        /* \"#utility.yul\":4368:4487   */\n      iszero\n      tag_394\n      jumpi\n        /* \"#utility.yul\":4406:4485   */\n      tag_395\n      tag_284\n      jump\t// in\n    tag_395:\n        /* \"#utility.yul\":4368:4487   */\n    tag_394:\n        /* \"#utility.yul\":4554:4555   */\n      0x00\n        /* \"#utility.yul\":4543:4552   */\n      dup3\n        /* \"#utility.yul\":4539:4556   */\n      add\n        /* \"#utility.yul\":4526:4557   */\n      calldataload\n        /* \"#utility.yul\":4584:4602   */\n      0xffffffffffffffff\n        /* \"#utility.yul\":4576:4582   */\n      dup2\n        /* \"#utility.yul\":4573:4603   */\n      gt\n        /* \"#utility.yul\":4570:4687   */\n      iszero\n      tag_396\n      jumpi\n        /* \"#utility.yul\":4606:4685   */\n      tag_397\n      tag_285\n      jump\t// in\n    tag_397:\n        /* \"#utility.yul\":4570:4687   */\n    tag_396:\n        /* \"#utility.yul\":4711:4774   */\n      tag_398\n        /* \"#utility.yul\":4766:4773   */\n      dup5\n        /* \"#utility.yul\":4757:4763   */\n      dup3\n        /* \"#utility.yul\":4746:4755   */\n      dup6\n        /* \"#utility.yul\":4742:4764   */\n      add\n        /* \"#utility.yul\":4711:4774   */\n      tag_299\n      jump\t// in\n    tag_398:\n        /* \"#utility.yul\":4701:4774   */\n      swap2\n      pop\n        /* \"#utility.yul\":4497:4784   */\n      pop\n        /* \"#utility.yul\":4282:4791   */\n      swap3\n      swap2\n      pop\n      pop\n      jump\t// out\n        /* \"#utility.yul\":4797:4887   */\n    tag_300:\n        /* \"#utility.yul\":4831:4838   */\n      0x00\n        /* \"#utility.yul\":4874:4879   */\n      dup2\n        /* \"#utility.yul\":4867:4880   */\n      iszero\n        /* \"#utility.yul\":4860:4881   */\n      iszero\n        /* \"#utility.yul\":4849:4881   */\n      swap1\n      pop\n        /* \"#utility.yul\":4797:4887   */\n      swap2\n      swap1\n      pop\n      jump\t// out\n        /* \"#utility.yul\":4893:5002   */\n    tag_301:\n        /* \"#utility.yul\":4974:4995   */\n      tag_401\n        /* \"#utility.yul\":4989:4994   */\n      dup2\n        /* \"#utility.yul\":4974:4995   */\n      tag_300\n      jump\t// in\n    tag_401:\n        /* \"#utility.yul\":4969:4972   */\n      dup3\n        /* \"#utility.yul\":4962:4996   */\n      mstore\n        /* \"#utility.yul\":4893:5002   */\n      pop\n      pop\n      jump\t// out\n        /* \"#utility.yul\":5008:5438   */\n    tag_62:\n        /* \"#utility.yul\":5151:5155   */\n      0x00\n        /* \"#utility.yul\":5189:5191   */\n      0x60\n        /* \"#utility.yul\":5178:5187   */\n      dup3\n        /* \"#utility.yul\":5174:5192   */\n      add\n        /* \"#utility.yul\":5166:5192   */\n      swap1\n      pop\n        /* \"#utility.yul\":5202:5273   */\n      tag_403\n        /* \"#utility.yul\":5270:5271   */\n      0x00\n        /* \"#utility.yul\":5259:5268   */\n      dup4\n        /* \"#utility.yul\":5255:5272   */\n      add\n        /* \"#utility.yul\":5246:5252   */\n      dup7\n        /* \"#utility.yul\":5202:5273   */\n      tag_282\n      jump\t// in\n    tag_403:\n        /* \"#utility.yul\":5283:5355   */\n      tag_404\n        /* \"#utility.yul\":5351:5353   */\n      0x20\n        /* \"#utility.yul\":5340:5349   */\n      dup4\n        /* \"#utility.yul\":5336:5354   */\n      add\n        /* \"#utility.yul\":5327:5333   */\n      dup6\n        /* \"#utility.yul\":5283:5355   */\n      tag_282\n      jump\t// in\n    tag_404:\n        /* \"#utility.yul\":5365:5431   */\n      tag_405\n        /* \"#utility.yul\":5427:5429   */\n      0x40\n        /* \"#utility.yul\":5416:5425   */\n      dup4\n        /* \"#utility.yul\":5412:5430   */\n      add\n        /* \"#utility.yul\":5403:5409   */\n      dup5\n        /* \"#utility.yul\":5365:5431   */\n      tag_301\n      jump\t// in\n    tag_405:\n        /* \"#utility.yul\":5008:5438   */\n      swap5\n      swap4\n      pop\n      pop\n      pop\n      pop\n      jump\t// out\n        /* \"#utility.yul\":5444:5570   */\n    tag_302:\n        /* \"#utility.yul\":5481:5488   */\n      0x00\n        /* \"#utility.yul\":5521:5563   */\n      0xffffffffffffffffffffffffffffffffffffffff\n        /* \"#utility.yul\":5514:5519   */\n      dup3\n        /* \"#utility.yul\":5510:5564   */\n      and\n        /* \"#utility.yul\":5499:5564   */\n      swap1\n      pop\n        /* \"#utility.yul\":5444:5570   */\n      swap2\n      swap1\n      pop\n      jump\t// out\n        /* \"#utility.yul\":5576:5672   */\n    tag_303:\n        /* \"#utility.yul\":5613:5620   */\n      0x00\n        /* \"#utility.yul\":5642:5666   */\n      tag_408\n        /* \"#utility.yul\":5660:5665   */\n      dup3\n        /* \"#utility.yul\":5642:5666   */\n      tag_302\n      jump\t// in\n    tag_408:\n        /* \"#utility.yul\":5631:5666   */\n      swap1\n      pop\n        /* \"#utility.yul\":5576:5672   */\n      swap2\n      swap1\n      pop\n      jump\t// out\n        /* \"#utility.yul\":5678:5796   */\n    tag_304:\n        /* \"#utility.yul\":5765:5789   */\n      tag_410\n        /* \"#utility.yul\":5783:5788   */\n      dup2\n        /* \"#utility.yul\":5765:5789   */\n      tag_303\n      jump\t// in\n    tag_410:\n        /* \"#utility.yul\":5760:5763   */\n      dup3\n        /* \"#utility.yul\":5753:5790   */\n      mstore\n        /* \"#utility.yul\":5678:5796   */\n      pop\n      pop\n      jump\t// out\n        /* \"#utility.yul\":5802:6024   */\n    tag_66:\n        /* \"#utility.yul\":5895:5899   */\n      0x00\n        /* \"#utility.yul\":5933:5935   */\n      0x20\n        /* \"#utility.yul\":5922:5931   */\n      dup3\n        /* \"#utility.yul\":5918:5936   */\n      add\n        /* \"#utility.yul\":5910:5936   */\n      swap1\n      pop\n        /* \"#utility.yul\":5946:6017   */\n      tag_412\n        /* \"#utility.yul\":6014:6015   */\n      0x00\n        /* \"#utility.yul\":6003:6012   */\n      dup4\n        /* \"#utility.yul\":5999:6016   */\n      add\n        /* \"#utility.yul\":5990:5996   */\n      dup5\n        /* \"#utility.yul\":5946:6017   */\n      tag_304\n      jump\t// in\n    tag_412:\n        /* \"#utility.yul\":5802:6024   */\n      swap3\n      swap2\n      pop\n      pop\n      jump\t// out\n        /* \"#utility.yul\":6030:6864   */\n    tag_69:\n        /* \"#utility.yul\":6118:6124   */\n      0x00\n        /* \"#utility.yul\":6126:6132   */\n      dup1\n        /* \"#utility.yul\":6175:6177   */\n      0x40\n        /* \"#utility.yul\":6163:6172   */\n      dup4\n        /* \"#utility.yul\":6154:6161   */\n      dup6\n        /* \"#utility.yul\":6150:6173   */\n      sub\n        /* \"#utility.yul\":6146:6178   */\n      slt\n        /* \"#utility.yul\":6143:6262   */\n      iszero\n      tag_414\n      jumpi\n        /* \"#utility.yul\":6181:6260   */\n      tag_415\n      tag_284\n      jump\t// in\n    tag_415:\n        /* \"#utility.yul\":6143:6262   */\n    tag_414:\n        /* \"#utility.yul\":6329:6330   */\n      0x00\n        /* \"#utility.yul\":6318:6327   */\n      dup4\n        /* \"#utility.yul\":6314:6331   */\n      add\n        /* \"#utility.yul\":6301:6332   */\n      calldataload\n        /* \"#utility.yul\":6359:6377   */\n      0xffffffffffffffff\n        /* \"#utility.yul\":6351:6357   */\n      dup2\n        /* \"#utility.yul\":6348:6378   */\n      gt\n        /* \"#utility.yul\":6345:6462   */\n      iszero\n      tag_416\n      jumpi\n        /* \"#utility.yul\":6381:6460   */\n      tag_417\n      tag_285\n      jump\t// in\n    tag_417:\n        /* \"#utility.yul\":6345:6462   */\n    tag_416:\n        /* \"#utility.yul\":6486:6549   */\n      tag_418\n        /* \"#utility.yul\":6541:6548   */\n      dup6\n        /* \"#utility.yul\":6532:6538   */\n      dup3\n        /* \"#utility.yul\":6521:6530   */\n      dup7\n        /* \"#utility.yul\":6517:6539   */\n      add\n        /* \"#utility.yul\":6486:6549   */\n      tag_299\n      jump\t// in\n    tag_418:\n        /* \"#utility.yul\":6476:6549   */\n      swap3\n      pop\n        /* \"#utility.yul\":6272:6559   */\n      pop\n        /* \"#utility.yul\":6626:6628   */\n      0x20\n        /* \"#utility.yul\":6615:6624   */\n      dup4\n        /* \"#utility.yul\":6611:6629   */\n      add\n        /* \"#utility.yul\":6598:6630   */\n      calldataload\n        /* \"#utility.yul\":6657:6675   */\n      0xffffffffffffffff\n        /* \"#utility.yul\":6649:6655   */\n      dup2\n        /* \"#utility.yul\":6646:6676   */\n      gt\n        /* \"#utility.yul\":6643:6760   */\n      iszero\n      tag_419\n      jumpi\n        /* \"#utility.yul\":6679:6758   */\n      tag_420\n      tag_285\n      jump\t// in\n    tag_420:\n        /* \"#utility.yul\":6643:6760   */\n    tag_419:\n        /* \"#utility.yul\":6784:6847   */\n      tag_421\n        /* \"#utility.yul\":6839:6846   */\n      dup6\n        /* \"#utility.yul\":6830:6836   */\n      dup3\n        /* \"#utility.yul\":6819:6828   */\n      dup7\n        /* \"#utility.yul\":6815:6837   */\n      add\n        /* \"#utility.yul\":6784:6847   */\n      tag_299\n      jump\t// in\n    tag_421:\n        /* \"#utility.yul\":6774:6847   */\n      swap2\n      pop\n        /* \"#utility.yul\":6569:6857   */\n      pop\n        /* \"#utility.yul\":6030:6864   */\n      swap3\n      pop\n      swap3\n      swap1\n      pop\n      jump\t// out\n        /* \"#utility.yul\":6870:6988   */\n    tag_305:\n        /* \"#utility.yul\":6957:6981   */\n      tag_423\n        /* \"#utility.yul\":6975:6980   */\n      dup2\n        /* \"#utility.yul\":6957:6981   */\n      tag_286\n      jump\t// in\n    tag_423:\n        /* \"#utility.yul\":6952:6955   */\n      dup3\n        /* \"#utility.yul\":6945:6982   */\n      mstore\n        /* \"#utility.yul\":6870:6988   */\n      pop\n      pop\n      jump\t// out\n        /* \"#utility.yul\":6994:7093   */\n    tag_306:\n        /* \"#utility.yul\":7046:7052   */\n      0x00\n        /* \"#utility.yul\":7080:7085   */\n      dup2\n        /* \"#utility.yul\":7074:7086   */\n      mload\n        /* \"#utility.yul\":7064:7086   */\n      swap1\n      pop\n        /* \"#utility.yul\":6994:7093   */\n      swap2\n      swap1\n      pop\n      jump\t// out\n        /* \"#utility.yul\":7099:7268   */\n    tag_307:\n        /* \"#utility.yul\":7183:7194   */\n      0x00\n        /* \"#utility.yul\":7217:7223   */\n      dup3\n        /* \"#utility.yul\":7212:7215   */\n      dup3\n        /* \"#utility.yul\":7205:7224   */\n      mstore\n        /* \"#utility.yul\":7257:7261   */\n      0x20\n        /* \"#utility.yul\":7252:7255   */\n      dup3\n        /* \"#utility.yul\":7248:7262   */\n      add\n        /* \"#utility.yul\":7233:7262   */\n      swap1\n      pop\n        /* \"#utility.yul\":7099:7268   */\n      swap3\n      swap2\n      pop\n      pop\n      jump\t// out\n        /* \"#utility.yul\":7274:7581   */\n    tag_308:\n        /* \"#utility.yul\":7342:7343   */\n      0x00\n        /* \"#utility.yul\":7352:7465   */\n    tag_427:\n        /* \"#utility.yul\":7366:7372   */\n      dup4\n        /* \"#utility.yul\":7363:7364   */\n      dup2\n        /* \"#utility.yul\":7360:7373   */\n      lt\n        /* \"#utility.yul\":7352:7465   */\n      iszero\n      tag_429\n      jumpi\n        /* \"#utility.yul\":7451:7452   */\n      dup1\n        /* \"#utility.yul\":7446:7449   */\n      dup3\n        /* \"#utility.yul\":7442:7453   */\n      add\n        /* \"#utility.yul\":7436:7454   */\n      mload\n        /* \"#utility.yul\":7432:7433   */\n      dup2\n        /* \"#utility.yul\":7427:7430   */\n      dup5\n        /* \"#utility.yul\":7423:7434   */\n      add\n        /* \"#utility.yul\":7416:7455   */\n      mstore\n        /* \"#utility.yul\":7388:7390   */\n      0x20\n        /* \"#utility.yul\":7385:7386   */\n      dup2\n        /* \"#utility.yul\":7381:7391   */\n      add\n        /* \"#utility.yul\":7376:7391   */\n      swap1\n      pop\n        /* \"#utility.yul\":7352:7465   */\n      jump(tag_427)\n    tag_429:\n        /* \"#utility.yul\":7483:7489   */\n      dup4\n        /* \"#utility.yul\":7480:7481   */\n      dup2\n        /* \"#utility.yul\":7477:7490   */\n      gt\n        /* \"#utility.yul\":7474:7575   */\n      iszero\n      tag_430\n      jumpi\n        /* \"#utility.yul\":7563:7564   */\n      0x00\n        /* \"#utility.yul\":7554:7560   */\n      dup5\n        /* \"#utility.yul\":7549:7552   */\n      dup5\n        /* \"#utility.yul\":7545:7561   */\n      add\n        /* \"#utility.yul\":7538:7565   */\n      mstore\n        /* \"#utility.yul\":7474:7575   */\n    tag_430:\n        /* \"#utility.yul\":7323:7581   */\n      pop\n        /* \"#utility.yul\":7274:7581   */\n      pop\n      pop\n      pop\n      jump\t// out\n        /* \"#utility.yul\":7587:7951   */\n    tag_309:\n        /* \"#utility.yul\":7675:7678   */\n      0x00\n        /* \"#utility.yul\":7703:7742   */\n      tag_432\n        /* \"#utility.yul\":7736:7741   */\n      dup3\n        /* \"#utility.yul\":7703:7742   */\n      tag_306\n      jump\t// in\n    tag_432:\n        /* \"#utility.yul\":7758:7829   */\n      tag_433\n        /* \"#utility.yul\":7822:7828   */\n      dup2\n        /* \"#utility.yul\":7817:7820   */\n      dup6\n        /* \"#utility.yul\":7758:7829   */\n      tag_307\n      jump\t// in\n    tag_433:\n        /* \"#utility.yul\":7751:7829   */\n      swap4\n      pop\n        /* \"#utility.yul\":7838:7890   */\n      tag_434\n        /* \"#utility.yul\":7883:7889   */\n      dup2\n        /* \"#utility.yul\":7878:7881   */\n      dup6\n        /* \"#utility.yul\":7871:7875   */\n      0x20\n        /* \"#utility.yul\":7864:7869   */\n      dup7\n        /* \"#utility.yul\":7860:7876   */\n      add\n        /* \"#utility.yul\":7838:7890   */\n      tag_308\n      jump\t// in\n    tag_434:\n        /* \"#utility.yul\":7915:7944   */\n      tag_435\n        /* \"#utility.yul\":7937:7943   */\n      dup2\n        /* \"#utility.yul\":7915:7944   */\n      tag_293\n      jump\t// in\n    tag_435:\n        /* \"#utility.yul\":7910:7913   */\n      dup5\n        /* \"#utility.yul\":7906:7945   */\n      add\n        /* \"#utility.yul\":7899:7945   */\n      swap2\n      pop\n        /* \"#utility.yul\":7679:7951   */\n      pop\n        /* \"#utility.yul\":7587:7951   */\n      swap3\n      swap2\n      pop\n      pop\n      jump\t// out\n        /* \"#utility.yul\":7957:8478   */\n    tag_78:\n        /* \"#utility.yul\":8120:8124   */\n      0x00\n        /* \"#utility.yul\":8158:8160   */\n      0x60\n        /* \"#utility.yul\":8147:8156   */\n      dup3\n        /* \"#utility.yul\":8143:8161   */\n      add\n        /* \"#utility.yul\":8135:8161   */\n      swap1\n      pop\n        /* \"#utility.yul\":8171:8242   */\n      tag_437\n        /* \"#utility.yul\":8239:8240   */\n      0x00\n        /* \"#utility.yul\":8228:8237   */\n      dup4\n        /* \"#utility.yul\":8224:8241   */\n      add\n        /* \"#utility.yul\":8215:8221   */\n      dup7\n        /* \"#utility.yul\":8171:8242   */\n      tag_305\n      jump\t// in\n    tag_437:\n        /* \"#utility.yul\":8289:8298   */\n      dup2\n        /* \"#utility.yul\":8283:8287   */\n      dup2\n        /* \"#utility.yul\":8279:8299   */\n      sub\n        /* \"#utility.yul\":8274:8276   */\n      0x20\n        /* \"#utility.yul\":8263:8272   */\n      dup4\n        /* \"#utility.yul\":8259:8277   */\n      add\n        /* \"#utility.yul\":8252:8300   */\n      mstore\n        /* \"#utility.yul\":8317:8395   */\n      tag_438\n        /* \"#utility.yul\":8390:8394   */\n      dup2\n        /* \"#utility.yul\":8381:8387   */\n      dup6\n        /* \"#utility.yul\":8317:8395   */\n      tag_309\n      jump\t// in\n    tag_438:\n        /* \"#utility.yul\":8309:8395   */\n      swap1\n      pop\n        /* \"#utility.yul\":8405:8471   */\n      tag_439\n        /* \"#utility.yul\":8467:8469   */\n      0x40\n        /* \"#utility.yul\":8456:8465   */\n      dup4\n        /* \"#utility.yul\":8452:8470   */\n      add\n        /* \"#utility.yul\":8443:8449   */\n      dup5\n        /* \"#utility.yul\":8405:8471   */\n      tag_301\n      jump\t// in\n    tag_439:\n        /* \"#utility.yul\":7957:8478   */\n      swap5\n      swap4\n      pop\n      pop\n      pop\n      pop\n      jump\t// out\n        /* \"#utility.yul\":8484:8797   */\n    tag_89:\n        /* \"#utility.yul\":8597:8601   */\n      0x00\n        /* \"#utility.yul\":8635:8637   */\n      0x20\n        /* \"#utility.yul\":8624:8633   */\n      dup3\n        /* \"#utility.yul\":8620:8638   */\n      add\n        /* \"#utility.yul\":8612:8638   */\n      swap1\n      pop\n        /* \"#utility.yul\":8684:8693   */\n      dup2\n        /* \"#utility.yul\":8678:8682   */\n      dup2\n        /* \"#utility.yul\":8674:8694   */\n      sub\n        /* \"#utility.yul\":8670:8671   */\n      0x00\n        /* \"#utility.yul\":8659:8668   */\n      dup4\n        /* \"#utility.yul\":8655:8672   */\n      add\n        /* \"#utility.yul\":8648:8695   */\n      mstore\n        /* \"#utility.yul\":8712:8790   */\n      tag_441\n        /* \"#utility.yul\":8785:8789   */\n      dup2\n        /* \"#utility.yul\":8776:8782   */\n      dup5\n        /* \"#utility.yul\":8712:8790   */\n      tag_309\n      jump\t// in\n    tag_441:\n        /* \"#utility.yul\":8704:8790   */\n      swap1\n      pop\n        /* \"#utility.yul\":8484:8797   */\n      swap3\n      swap2\n      pop\n      pop\n      jump\t// out\n        /* \"#utility.yul\":8803:9457   */\n    tag_92:\n        /* \"#utility.yul\":8881:8887   */\n      0x00\n        /* \"#utility.yul\":8889:8895   */\n      dup1\n        /* \"#utility.yul\":8938:8940   */\n      0x40\n        /* \"#utility.yul\":8926:8935   */\n      dup4\n        /* \"#utility.yul\":8917:8924   */\n      dup6\n        /* \"#utility.yul\":8913:8936   */\n      sub\n        /* \"#utility.yul\":8909:8941   */\n      slt\n        /* \"#utility.yul\":8906:9025   */\n      iszero\n      tag_443\n      jumpi\n        /* \"#utility.yul\":8944:9023   */\n      tag_444\n      tag_284\n      jump\t// in\n    tag_444:\n        /* \"#utility.yul\":8906:9025   */\n    tag_443:\n        /* \"#utility.yul\":9064:9065   */\n      0x00\n        /* \"#utility.yul\":9089:9142   */\n      tag_445\n        /* \"#utility.yul\":9134:9141   */\n      dup6\n        /* \"#utility.yul\":9125:9131   */\n      dup3\n        /* \"#utility.yul\":9114:9123   */\n      dup7\n        /* \"#utility.yul\":9110:9132   */\n      add\n        /* \"#utility.yul\":9089:9142   */\n      tag_290\n      jump\t// in\n    tag_445:\n        /* \"#utility.yul\":9079:9142   */\n      swap3\n      pop\n        /* \"#utility.yul\":9035:9152   */\n      pop\n        /* \"#utility.yul\":9219:9221   */\n      0x20\n        /* \"#utility.yul\":9208:9217   */\n      dup4\n        /* \"#utility.yul\":9204:9222   */\n      add\n        /* \"#utility.yul\":9191:9223   */\n      calldataload\n        /* \"#utility.yul\":9250:9268   */\n      0xffffffffffffffff\n        /* \"#utility.yul\":9242:9248   */\n      dup2\n        /* \"#utility.yul\":9239:9269   */\n      gt\n        /* \"#utility.yul\":9236:9353   */\n      iszero\n      tag_446\n      jumpi\n        /* \"#utility.yul\":9272:9351   */\n      tag_447\n      tag_285\n      jump\t// in\n    tag_447:\n        /* \"#utility.yul\":9236:9353   */\n    tag_446:\n        /* \"#utility.yul\":9377:9440   */\n      tag_448\n        /* \"#utility.yul\":9432:9439   */\n      dup6\n        /* \"#utility.yul\":9423:9429   */\n      dup3\n        /* \"#utility.yul\":9412:9421   */\n      dup7\n        /* \"#utility.yul\":9408:9430   */\n      add\n        /* \"#utility.yul\":9377:9440   */\n      tag_299\n      jump\t// in\n    tag_448:\n        /* \"#utility.yul\":9367:9440   */\n      swap2\n      pop\n        /* \"#utility.yul\":9162:9450   */\n      pop\n        /* \"#utility.yul\":8803:9457   */\n      swap3\n      pop\n      swap3\n      swap1\n      pop\n      jump\t// out\n        /* \"#utility.yul\":9463:9874   */\n    tag_98:\n        /* \"#utility.yul\":9598:9602   */\n      0x00\n        /* \"#utility.yul\":9636:9638   */\n      0x40\n        /* \"#utility.yul\":9625:9634   */\n      dup3\n        /* \"#utility.yul\":9621:9639   */\n      add\n        /* \"#utility.yul\":9613:9639   */\n      swap1\n      pop\n        /* \"#utility.yul\":9649:9714   */\n      tag_450\n        /* \"#utility.yul\":9711:9712   */\n      0x00\n        /* \"#utility.yul\":9700:9709   */\n      dup4\n        /* \"#utility.yul\":9696:9713   */\n      add\n        /* \"#utility.yul\":9687:9693   */\n      dup6\n        /* \"#utility.yul\":9649:9714   */\n      tag_301\n      jump\t// in\n    tag_450:\n        /* \"#utility.yul\":9761:9770   */\n      dup2\n        /* \"#utility.yul\":9755:9759   */\n      dup2\n        /* \"#utility.yul\":9751:9771   */\n      sub\n        /* \"#utility.yul\":9746:9748   */\n      0x20\n        /* \"#utility.yul\":9735:9744   */\n      dup4\n        /* \"#utility.yul\":9731:9749   */\n      add\n        /* \"#utility.yul\":9724:9772   */\n      mstore\n        /* \"#utility.yul\":9789:9867   */\n      tag_451\n        /* \"#utility.yul\":9862:9866   */\n      dup2\n        /* \"#utility.yul\":9853:9859   */\n      dup5\n        /* \"#utility.yul\":9789:9867   */\n      tag_309\n      jump\t// in\n    tag_451:\n        /* \"#utility.yul\":9781:9867   */\n      swap1\n      pop\n        /* \"#utility.yul\":9463:9874   */\n      swap4\n      swap3\n      pop\n      pop\n      pop\n      jump\t// out\n        /* \"#utility.yul\":9880:10111   */\n    tag_310:\n        /* \"#utility.yul\":10020:10054   */\n      0x48616e79612070656d696c696b2061636172612079616e67206461706174206d\n        /* \"#utility.yul\":10016:10017   */\n      0x00\n        /* \"#utility.yul\":10008:10014   */\n      dup3\n        /* \"#utility.yul\":10004:10018   */\n      add\n        /* \"#utility.yul\":9997:10055   */\n      mstore\n        /* \"#utility.yul\":10089:10103   */\n      0x656c616b756b616e20696e690000000000000000000000000000000000000000\n        /* \"#utility.yul\":10084:10086   */\n      0x20\n        /* \"#utility.yul\":10076:10082   */\n      dup3\n        /* \"#utility.yul\":10072:10087   */\n      add\n        /* \"#utility.yul\":10065:10104   */\n      mstore\n        /* \"#utility.yul\":9880:10111   */\n      pop\n      jump\t// out\n        /* \"#utility.yul\":10117:10483   */\n    tag_311:\n        /* \"#utility.yul\":10259:10262   */\n      0x00\n        /* \"#utility.yul\":10280:10347   */\n      tag_454\n        /* \"#utility.yul\":10344:10346   */\n      0x2c\n        /* \"#utility.yul\":10339:10342   */\n      dup4\n        /* \"#utility.yul\":10280:10347   */\n      tag_307\n      jump\t// in\n    tag_454:\n        /* \"#utility.yul\":10273:10347   */\n      swap2\n      pop\n        /* \"#utility.yul\":10356:10449   */\n      tag_455\n        /* \"#utility.yul\":10445:10448   */\n      dup3\n        /* \"#utility.yul\":10356:10449   */\n      tag_310\n      jump\t// in\n    tag_455:\n        /* \"#utility.yul\":10474:10476   */\n      0x40\n        /* \"#utility.yul\":10469:10472   */\n      dup3\n        /* \"#utility.yul\":10465:10477   */\n      add\n        /* \"#utility.yul\":10458:10477   */\n      swap1\n      pop\n        /* \"#utility.yul\":10117:10483   */\n      swap2\n      swap1\n      pop\n      jump\t// out\n        /* \"#utility.yul\":10489:10908   */\n    tag_113:\n        /* \"#utility.yul\":10655:10659   */\n      0x00\n        /* \"#utility.yul\":10693:10695   */\n      0x20\n        /* \"#utility.yul\":10682:10691   */\n      dup3\n        /* \"#utility.yul\":10678:10696   */\n      add\n        /* \"#utility.yul\":10670:10696   */\n      swap1\n      pop\n        /* \"#utility.yul\":10742:10751   */\n      dup2\n        /* \"#utility.yul\":10736:10740   */\n      dup2\n        /* \"#utility.yul\":10732:10752   */\n      sub\n        /* \"#utility.yul\":10728:10729   */\n      0x00\n        /* \"#utility.yul\":10717:10726   */\n      dup4\n        /* \"#utility.yul\":10713:10730   */\n      add\n        /* \"#utility.yul\":10706:10753   */\n      mstore\n        /* \"#utility.yul\":10770:10901   */\n      tag_457\n        /* \"#utility.yul\":10896:10900   */\n      dup2\n        /* \"#utility.yul\":10770:10901   */\n      tag_311\n      jump\t// in\n    tag_457:\n        /* \"#utility.yul\":10762:10901   */\n      swap1\n      pop\n        /* \"#utility.yul\":10489:10908   */\n      swap2\n      swap1\n      pop\n      jump\t// out\n        /* \"#utility.yul\":10914:11094   */\n    tag_312:\n        /* \"#utility.yul\":10962:11039   */\n      0x4e487b7100000000000000000000000000000000000000000000000000000000\n        /* \"#utility.yul\":10959:10960   */\n      0x00\n        /* \"#utility.yul\":10952:11040   */\n      mstore\n        /* \"#utility.yul\":11059:11063   */\n      0x11\n        /* \"#utility.yul\":11056:11057   */\n      0x04\n        /* \"#utility.yul\":11049:11064   */\n      mstore\n        /* \"#utility.yul\":11083:11087   */\n      0x24\n        /* \"#utility.yul\":11080:11081   */\n      0x00\n        /* \"#utility.yul\":11073:11088   */\n      revert\n        /* \"#utility.yul\":11100:11405   */\n    tag_123:\n        /* \"#utility.yul\":11140:11143   */\n      0x00\n        /* \"#utility.yul\":11159:11179   */\n      tag_460\n        /* \"#utility.yul\":11177:11178   */\n      dup3\n        /* \"#utility.yul\":11159:11179   */\n      tag_281\n      jump\t// in\n    tag_460:\n        /* \"#utility.yul\":11154:11179   */\n      swap2\n      pop\n        /* \"#utility.yul\":11193:11213   */\n      tag_461\n        /* \"#utility.yul\":11211:11212   */\n      dup4\n        /* \"#utility.yul\":11193:11213   */\n      tag_281\n      jump\t// in\n    tag_461:\n        /* \"#utility.yul\":11188:11213   */\n      swap3\n      pop\n        /* \"#utility.yul\":11347:11348   */\n      dup3\n        /* \"#utility.yul\":11279:11345   */\n      0xffffffffffffffffffffffffffffffffffffffffffffffffffffffffffffffff\n        /* \"#utility.yul\":11275:11349   */\n      sub\n        /* \"#utility.yul\":11272:11273   */\n      dup3\n        /* \"#utility.yul\":11269:11350   */\n      gt\n        /* \"#utility.yul\":11266:11373   */\n      iszero\n      tag_462\n      jumpi\n        /* \"#utility.yul\":11353:11371   */\n      tag_463\n      tag_312\n      jump\t// in\n    tag_463:\n        /* \"#utility.yul\":11266:11373   */\n    tag_462:\n        /* \"#utility.yul\":11397:11398   */\n      dup3\n        /* \"#utility.yul\":11394:11395   */\n      dup3\n        /* \"#utility.yul\":11390:11399   */\n      add\n        /* \"#utility.yul\":11383:11399   */\n      swap1\n      pop\n        /* \"#utility.yul\":11100:11405   */\n      swap3\n      swap2\n      pop\n      pop\n      jump\t// out\n        /* \"#utility.yul\":11411:11644   */\n    tag_125:\n        /* \"#utility.yul\":11450:11453   */\n      0x00\n        /* \"#utility.yul\":11473:11497   */\n      tag_465\n        /* \"#utility.yul\":11491:11496   */\n      dup3\n        /* \"#utility.yul\":11473:11497   */\n      tag_281\n      jump\t// in\n    tag_465:\n        /* \"#utility.yul\":11464:11497   */\n      swap2\n      pop\n        /* \"#utility.yul\":11519:11585   */\n      0xffffffffffffffffffffffffffffffffffffffffffffffffffffffffffffffff\n        /* \"#utility.yul\":11512:11517   */\n      dup3\n        /* \"#utility.yul\":11509:11586   */\n      eq\n        /* \"#utility.yul\":11506:11609   */\n      iszero\n      tag_466\n      jumpi\n        /* \"#utility.yul\":11589:11607   */\n      tag_467\n      tag_312\n      jump\t// in\n    tag_467:\n        /* \"#utility.yul\":11506:11609   */\n    tag_466:\n        /* \"#utility.yul\":11636:11637   */\n      0x01\n        /* \"#utility.yul\":11629:11634   */\n      dup3\n        /* \"#utility.yul\":11625:11638   */\n      add\n        /* \"#utility.yul\":11618:11638   */\n      swap1\n      pop\n        /* \"#utility.yul\":11411:11644   */\n      swap2\n      swap1\n      pop\n      jump\t// out\n        /* \"#utility.yul\":11650:11827   */\n    tag_313:\n        /* \"#utility.yul\":11790:11819   */\n      0x4a756d6c61682074696b657420746964616b2074657273656469610000000000\n        /* \"#utility.yul\":11786:11787   */\n      0x00\n        /* \"#utility.yul\":11778:11784   */\n      dup3\n        /* \"#utility.yul\":11774:11788   */\n      add\n        /* \"#utility.yul\":11767:11820   */\n      mstore\n        /* \"#utility.yul\":11650:11827   */\n      pop\n      jump\t// out\n        /* \"#utility.yul\":11833:12199   */\n    tag_314:\n        /* \"#utility.yul\":11975:11978   */\n      0x00\n        /* \"#utility.yul\":11996:12063   */\n      tag_470\n        /* \"#utility.yul\":12060:12062   */\n      0x1b\n        /* \"#utility.yul\":12055:12058   */\n      dup4\n        /* \"#utility.yul\":11996:12063   */\n      tag_307\n      jump\t// in\n    tag_470:\n        /* \"#utility.yul\":11989:12063   */\n      swap2\n      pop\n        /* \"#utility.yul\":12072:12165   */\n      tag_471\n        /* \"#utility.yul\":12161:12164   */\n      dup3\n        /* \"#utility.yul\":12072:12165   */\n      tag_313\n      jump\t// in\n    tag_471:\n        /* \"#utility.yul\":12190:12192   */\n      0x20\n        /* \"#utility.yul\":12185:12188   */\n      dup3\n        /* \"#utility.yul\":12181:12193   */\n      add\n        /* \"#utility.yul\":12174:12193   */\n      swap1\n      pop\n        /* \"#utility.yul\":11833:12199   */\n      swap2\n      swap1\n      pop\n      jump\t// out\n        /* \"#utility.yul\":12205:12624   */\n    tag_130:\n        /* \"#utility.yul\":12371:12375   */\n      0x00\n        /* \"#utility.yul\":12409:12411   */\n      0x20\n        /* \"#utility.yul\":12398:12407   */\n      dup3\n        /* \"#utility.yul\":12394:12412   */\n      add\n        /* \"#utility.yul\":12386:12412   */\n      swap1\n      pop\n        /* \"#utility.yul\":12458:12467   */\n      dup2\n        /* \"#utility.yul\":12452:12456   */\n      dup2\n        /* \"#utility.yul\":12448:12468   */\n      sub\n        /* \"#utility.yul\":12444:12445   */\n      0x00\n        /* \"#utility.yul\":12433:12442   */\n      dup4\n        /* \"#utility.yul\":12429:12446   */\n      add\n        /* \"#utility.yul\":12422:12469   */\n      mstore\n        /* \"#utility.yul\":12486:12617   */\n      tag_473\n        /* \"#utility.yul\":12612:12616   */\n      dup2\n        /* \"#utility.yul\":12486:12617   */\n      tag_314\n      jump\t// in\n    tag_473:\n        /* \"#utility.yul\":12478:12617   */\n      swap1\n      pop\n        /* \"#utility.yul\":12205:12624   */\n      swap2\n      swap1\n      pop\n      jump\t// out\n        /* \"#utility.yul\":12630:12867   */\n    tag_315:\n        /* \"#utility.yul\":12770:12804   */\n      0x4a756d6c61682074696b6574206d656c6562696869206261746173206d616b73\n        /* \"#utility.yul\":12766:12767   */\n      0x00\n        /* \"#utility.yul\":12758:12764   */\n      dup3\n        /* \"#utility.yul\":12754:12768   */\n      add\n        /* \"#utility.yul\":12747:12805   */\n      mstore\n        /* \"#utility.yul\":12839:12859   */\n      0x696d756d20706572206964656e74697461730000000000000000000000000000\n        /* \"#utility.yul\":12834:12836   */\n      0x20\n        /* \"#utility.yul\":12826:12832   */\n      dup3\n        /* \"#utility.yul\":12822:12837   */\n      add\n        /* \"#utility.yul\":12815:12860   */\n      mstore\n        /* \"#utility.yul\":12630:12867   */\n      pop\n      jump\t// out\n        /* \"#utility.yul\":12873:13239   */\n    tag_316:\n        /* \"#utility.yul\":13015:13018   */\n      0x00\n        /* \"#utility.yul\":13036:13103   */\n      tag_476\n        /* \"#utility.yul\":13100:13102   */\n      0x32\n        /* \"#utility.yul\":13095:13098   */\n      dup4\n        /* \"#utility.yul\":13036:13103   */\n      tag_307\n      jump\t// in\n    tag_476:\n        /* \"#utility.yul\":13029:13103   */\n      swap2\n      pop\n        /* \"#utility.yul\":13112:13205   */\n      tag_477\n        /* \"#utility.yul\":13201:13204   */\n      dup3\n        /* \"#utility.yul\":13112:13205   */\n      tag_315\n      jump\t// in\n    tag_477:\n        /* \"#utility.yul\":13230:13232   */\n      0x40\n        /* \"#utility.yul\":13225:13228   */\n      dup3\n        /* \"#utility.yul\":13221:13233   */\n      add\n        /* \"#utility.yul\":13214:13233   */\n      swap1\n      pop\n        /* \"#utility.yul\":12873:13239   */\n      swap2\n      swap1\n      pop\n      jump\t// out\n        /* \"#utility.yul\":13245:13664   */\n    tag_133:\n        /* \"#utility.yul\":13411:13415   */\n      0x00\n        /* \"#utility.yul\":13449:13451   */\n      0x20\n        /* \"#utility.yul\":13438:13447   */\n      dup3\n        /* \"#utility.yul\":13434:13452   */\n      add\n        /* \"#utility.yul\":13426:13452   */\n      swap1\n      pop\n        /* \"#utility.yul\":13498:13507   */\n      dup2\n        /* \"#utility.yul\":13492:13496   */\n      dup2\n        /* \"#utility.yul\":13488:13508   */\n      sub\n        /* \"#utility.yul\":13484:13485   */\n      0x00\n        /* \"#utility.yul\":13473:13482   */\n      dup4\n        /* \"#utility.yul\":13469:13486   */\n      add\n        /* \"#utility.yul\":13462:13509   */\n      mstore\n        /* \"#utility.yul\":13526:13657   */\n      tag_479\n        /* \"#utility.yul\":13652:13656   */\n      dup2\n        /* \"#utility.yul\":13526:13657   */\n      tag_316\n      jump\t// in\n    tag_479:\n        /* \"#utility.yul\":13518:13657   */\n      swap1\n      pop\n        /* \"#utility.yul\":13245:13664   */\n      swap2\n      swap1\n      pop\n      jump\t// out\n        /* \"#utility.yul\":13670:13818   */\n    tag_317:\n        /* \"#utility.yul\":13772:13783   */\n      0x00\n        /* \"#utility.yul\":13809:13812   */\n      dup2\n        /* \"#utility.yul\":13794:13812   */\n      swap1\n      pop\n        /* \"#utility.yul\":13670:13818   */\n      swap3\n      swap2\n      pop\n      pop\n      jump\t// out\n        /* \"#utility.yul\":13824:14201   */\n    tag_318:\n        /* \"#utility.yul\":13930:13933   */\n      0x00\n        /* \"#utility.yul\":13958:13997   */\n      tag_482\n        /* \"#utility.yul\":13991:13996   */\n      dup3\n        /* \"#utility.yul\":13958:13997   */\n      tag_306\n      jump\t// in\n    tag_482:\n        /* \"#utility.yul\":14013:14102   */\n      tag_483\n        /* \"#utility.yul\":14095:14101   */\n      dup2\n        /* \"#utility.yul\":14090:14093   */\n      dup6\n        /* \"#utility.yul\":14013:14102   */\n      tag_317\n      jump\t// in\n    tag_483:\n        /* \"#utility.yul\":14006:14102   */\n      swap4\n      pop\n        /* \"#utility.yul\":14111:14163   */\n      tag_484\n        /* \"#utility.yul\":14156:14162   */\n      dup2\n        /* \"#utility.yul\":14151:14154   */\n      dup6\n        /* \"#utility.yul\":14144:14148   */\n      0x20\n        /* \"#utility.yul\":14137:14142   */\n      dup7\n        /* \"#utility.yul\":14133:14149   */\n      add\n        /* \"#utility.yul\":14111:14163   */\n      tag_308\n      jump\t// in\n    tag_484:\n        /* \"#utility.yul\":14188:14194   */\n      dup1\n        /* \"#utility.yul\":14183:14186   */\n      dup5\n        /* \"#utility.yul\":14179:14195   */\n      add\n        /* \"#utility.yul\":14172:14195   */\n      swap2\n      pop\n        /* \"#utility.yul\":13934:14201   */\n      pop\n        /* \"#utility.yul\":13824:14201   */\n      swap3\n      swap2\n      pop\n      pop\n      jump\t// out\n        /* \"#utility.yul\":14207:14482   */\n    tag_146:\n        /* \"#utility.yul\":14339:14342   */\n      0x00\n        /* \"#utility.yul\":14361:14456   */\n      tag_486\n        /* \"#utility.yul\":14452:14455   */\n      dup3\n        /* \"#utility.yul\":14443:14449   */\n      dup5\n        /* \"#utility.yul\":14361:14456   */\n      tag_318\n      jump\t// in\n    tag_486:\n        /* \"#utility.yul\":14354:14456   */\n      swap2\n      pop\n        /* \"#utility.yul\":14473:14476   */\n      dup2\n        /* \"#utility.yul\":14466:14476   */\n      swap1\n      pop\n        /* \"#utility.yul\":14207:14482   */\n      swap3\n      swap2\n      pop\n      pop\n      jump\t// out\n        /* \"#utility.yul\":14488:14659   */\n    tag_319:\n        /* \"#utility.yul\":14628:14651   */\n      0x54696b657420746964616b20646974656d756b616e0000000000000000000000\n        /* \"#utility.yul\":14624:14625   */\n      0x00\n        /* \"#utility.yul\":14616:14622   */\n      dup3\n        /* \"#utility.yul\":14612:14626   */\n      add\n        /* \"#utility.yul\":14605:14652   */\n      mstore\n        /* \"#utility.yul\":14488:14659   */\n      pop\n      jump\t// out\n        /* \"#utility.yul\":14665:15031   */\n    tag_320:\n        /* \"#utility.yul\":14807:14810   */\n      0x00\n        /* \"#utility.yul\":14828:14895   */\n      tag_489\n        /* \"#utility.yul\":14892:14894   */\n      0x15\n        /* \"#utility.yul\":14887:14890   */\n      dup4\n        /* \"#utility.yul\":14828:14895   */\n      tag_307\n      jump\t// in\n    tag_489:\n        /* \"#utility.yul\":14821:14895   */\n      swap2\n      pop\n        /* \"#utility.yul\":14904:14997   */\n      tag_490\n        /* \"#utility.yul\":14993:14996   */\n      dup3\n        /* \"#utility.yul\":14904:14997   */\n      tag_319\n      jump\t// in\n    tag_490:\n        /* \"#utility.yul\":15022:15024   */\n      0x20\n        /* \"#utility.yul\":15017:15020   */\n      dup3\n        /* \"#utility.yul\":15013:15025   */\n      add\n        /* \"#utility.yul\":15006:15025   */\n      swap1\n      pop\n        /* \"#utility.yul\":14665:15031   */\n      swap2\n      swap1\n      pop\n      jump\t// out\n        /* \"#utility.yul\":15037:15456   */\n    tag_149:\n        /* \"#utility.yul\":15203:15207   */\n      0x00\n        /* \"#utility.yul\":15241:15243   */\n      0x20\n        /* \"#utility.yul\":15230:15239   */\n      dup3\n        /* \"#utility.yul\":15226:15244   */\n      add\n        /* \"#utility.yul\":15218:15244   */\n      swap1\n      pop\n        /* \"#utility.yul\":15290:15299   */\n      dup2\n        /* \"#utility.yul\":15284:15288   */\n      dup2\n        /* \"#utility.yul\":15280:15300   */\n      sub\n        /* \"#utility.yul\":15276:15277   */\n      0x00\n        /* \"#utility.yul\":15265:15274   */\n      dup4\n        /* \"#utility.yul\":15261:15278   */\n      add\n        /* \"#utility.yul\":15254:15301   */\n      mstore\n        /* \"#utility.yul\":15318:15449   */\n      tag_492\n        /* \"#utility.yul\":15444:15448   */\n      dup2\n        /* \"#utility.yul\":15318:15449   */\n      tag_320\n      jump\t// in\n    tag_492:\n        /* \"#utility.yul\":15310:15449   */\n      swap1\n      pop\n        /* \"#utility.yul\":15037:15456   */\n      swap2\n      swap1\n      pop\n      jump\t// out\n        /* \"#utility.yul\":15462:15633   */\n    tag_321:\n        /* \"#utility.yul\":15602:15625   */\n      0x54696b657420737564616820646967756e616b616e0000000000000000000000\n        /* \"#utility.yul\":15598:15599   */\n      0x00\n        /* \"#utility.yul\":15590:15596   */\n      dup3\n        /* \"#utility.yul\":15586:15600   */\n      add\n        /* \"#utility.yul\":15579:15626   */\n      mstore\n        /* \"#utility.yul\":15462:15633   */\n      pop\n      jump\t// out\n        /* \"#utility.yul\":15639:16005   */\n    tag_322:\n        /* \"#utility.yul\":15781:15784   */\n      0x00\n        /* \"#utility.yul\":15802:15869   */\n      tag_495\n        /* \"#utility.yul\":15866:15868   */\n      0x15\n        /* \"#utility.yul\":15861:15864   */\n      dup4\n        /* \"#utility.yul\":15802:15869   */\n      tag_307\n      jump\t// in\n    tag_495:\n        /* \"#utility.yul\":15795:15869   */\n      swap2\n      pop\n        /* \"#utility.yul\":15878:15971   */\n      tag_496\n        /* \"#utility.yul\":15967:15970   */\n      dup3\n        /* \"#utility.yul\":15878:15971   */\n      tag_321\n      jump\t// in\n    tag_496:\n        /* \"#utility.yul\":15996:15998   */\n      0x20\n        /* \"#utility.yul\":15991:15994   */\n      dup3\n        /* \"#utility.yul\":15987:15999   */\n      add\n        /* \"#utility.yul\":15980:15999   */\n      swap1\n      pop\n        /* \"#utility.yul\":15639:16005   */\n      swap2\n      swap1\n      pop\n      jump\t// out\n        /* \"#utility.yul\":16011:16430   */\n    tag_152:\n        /* \"#utility.yul\":16177:16181   */\n      0x00\n        /* \"#utility.yul\":16215:16217   */\n      0x20\n        /* \"#utility.yul\":16204:16213   */\n      dup3\n        /* \"#utility.yul\":16200:16218   */\n      add\n        /* \"#utility.yul\":16192:16218   */\n      swap1\n      pop\n        /* \"#utility.yul\":16264:16273   */\n      dup2\n        /* \"#utility.yul\":16258:16262   */\n      dup2\n        /* \"#utility.yul\":16254:16274   */\n      sub\n        /* \"#utility.yul\":16250:16251   */\n      0x00\n        /* \"#utility.yul\":16239:16248   */\n      dup4\n        /* \"#utility.yul\":16235:16252   */\n      add\n        /* \"#utility.yul\":16228:16275   */\n      mstore\n        /* \"#utility.yul\":16292:16423   */\n      tag_498\n        /* \"#utility.yul\":16418:16422   */\n      dup2\n        /* \"#utility.yul\":16292:16423   */\n      tag_322\n      jump\t// in\n    tag_498:\n        /* \"#utility.yul\":16284:16423   */\n      swap1\n      pop\n        /* \"#utility.yul\":16011:16430   */\n      swap2\n      swap1\n      pop\n      jump\t// out\n        /* \"#utility.yul\":16436:16608   */\n    tag_323:\n        /* \"#utility.yul\":16576:16600   */\n      0x4964656e746974617320746964616b2073657375616900000000000000000000\n        /* \"#utility.yul\":16572:16573   */\n      0x00\n        /* \"#utility.yul\":16564:16570   */\n      dup3\n        /* \"#utility.yul\":16560:16574   */\n      add\n        /* \"#utility.yul\":16553:16601   */\n      mstore\n        /* \"#utility.yul\":16436:16608   */\n      pop\n      jump\t// out\n        /* \"#utility.yul\":16614:16980   */\n    tag_324:\n        /* \"#utility.yul\":16756:16759   */\n      0x00\n        /* \"#utility.yul\":16777:16844   */\n      tag_501\n        /* \"#utility.yul\":16841:16843   */\n      0x16\n        /* \"#utility.yul\":16836:16839   */\n      dup4\n        /* \"#utility.yul\":16777:16844   */\n      tag_307\n      jump\t// in\n    tag_501:\n        /* \"#utility.yul\":16770:16844   */\n      swap2\n      pop\n        /* \"#utility.yul\":16853:16946   */\n      tag_502\n        /* \"#utility.yul\":16942:16945   */\n      dup3\n        /* \"#utility.yul\":16853:16946   */\n      tag_323\n      jump\t// in\n    tag_502:\n        /* \"#utility.yul\":16971:16973   */\n      0x20\n        /* \"#utility.yul\":16966:16969   */\n      dup3\n        /* \"#utility.yul\":16962:16974   */\n      add\n        /* \"#utility.yul\":16955:16974   */\n      swap1\n      pop\n        /* \"#utility.yul\":16614:16980   */\n      swap2\n      swap1\n      pop\n      jump\t// out\n        /* \"#utility.yul\":16986:17405   */\n    tag_157:\n        /* \"#utility.yul\":17152:17156   */\n      0x00\n        /* \"#utility.yul\":17190:17192   */\n      0x20\n        /* \"#utility.yul\":17179:17188   */\n      dup3\n        /* \"#utility.yul\":17175:17193   */\n      add\n        /* \"#utility.yul\":17167:17193   */\n      swap1\n      pop\n        /* \"#utility.yul\":17239:17248   */\n      dup2\n        /* \"#utility.yul\":17233:17237   */\n      dup2\n        /* \"#utility.yul\":17229:17249   */\n      sub\n        /* \"#utility.yul\":17225:17226   */\n      0x00\n        /* \"#utility.yul\":17214:17223   */\n      dup4\n        /* \"#utility.yul\":17210:17227   */\n      add\n        /* \"#utility.yul\":17203:17250   */\n      mstore\n        /* \"#utility.yul\":17267:17398   */\n      tag_504\n        /* \"#utility.yul\":17393:17397   */\n      dup2\n        /* \"#utility.yul\":17267:17398   */\n      tag_324\n      jump\t// in\n    tag_504:\n        /* \"#utility.yul\":17259:17398   */\n      swap1\n      pop\n        /* \"#utility.yul\":16986:17405   */\n      swap2\n      swap1\n      pop\n      jump\t// out\n        /* \"#utility.yul\":17411:17591   */\n    tag_325:\n        /* \"#utility.yul\":17459:17536   */\n      0x4e487b7100000000000000000000000000000000000000000000000000000000\n        /* \"#utility.yul\":17456:17457   */\n      0x00\n        /* \"#utility.yul\":17449:17537   */\n      mstore\n        /* \"#utility.yul\":17556:17560   */\n      0x22\n        /* \"#utility.yul\":17553:17554   */\n      0x04\n        /* \"#utility.yul\":17546:17561   */\n      mstore\n        /* \"#utility.yul\":17580:17584   */\n      0x24\n        /* \"#utility.yul\":17577:17578   */\n      0x00\n        /* \"#utility.yul\":17570:17585   */\n      revert\n        /* \"#utility.yul\":17597:17917   */\n    tag_160:\n        /* \"#utility.yul\":17641:17647   */\n      0x00\n        /* \"#utility.yul\":17678:17679   */\n      0x02\n        /* \"#utility.yul\":17672:17676   */\n      dup3\n        /* \"#utility.yul\":17668:17680   */\n      div\n        /* \"#utility.yul\":17658:17680   */\n      swap1\n      pop\n        /* \"#utility.yul\":17725:17726   */\n      0x01\n        /* \"#utility.yul\":17719:17723   */\n      dup3\n        /* \"#utility.yul\":17715:17727   */\n      and\n        /* \"#utility.yul\":17746:17764   */\n      dup1\n        /* \"#utility.yul\":17736:17817   */\n      tag_507\n      jumpi\n        /* \"#utility.yul\":17802:17806   */\n      0x7f\n        /* \"#utility.yul\":17794:17800   */\n      dup3\n        /* \"#utility.yul\":17790:17807   */\n      and\n        /* \"#utility.yul\":17780:17807   */\n      swap2\n      pop\n        /* \"#utility.yul\":17736:17817   */\n    tag_507:\n        /* \"#utility.yul\":17864:17866   */\n      0x20\n        /* \"#utility.yul\":17856:17862   */\n      dup3\n        /* \"#utility.yul\":17853:17867   */\n      lt\n        /* \"#utility.yul\":17833:17851   */\n      dup2\n        /* \"#utility.yul\":17830:17868   */\n      eq\n        /* \"#utility.yul\":17827:17911   */\n      iszero\n      tag_508\n      jumpi\n        /* \"#utility.yul\":17883:17901   */\n      tag_509\n      tag_325\n      jump\t// in\n    tag_509:\n        /* \"#utility.yul\":17827:17911   */\n    tag_508:\n        /* \"#utility.yul\":17648:17917   */\n      pop\n        /* \"#utility.yul\":17597:17917   */\n      swap2\n      swap1\n      pop\n      jump\t// out\n        /* \"#utility.yul\":17923:18114   */\n    tag_173:\n        /* \"#utility.yul\":17963:17967   */\n      0x00\n        /* \"#utility.yul\":17983:18003   */\n      tag_511\n        /* \"#utility.yul\":18001:18002   */\n      dup3\n        /* \"#utility.yul\":17983:18003   */\n      tag_281\n      jump\t// in\n    tag_511:\n        /* \"#utility.yul\":17978:18003   */\n      swap2\n      pop\n        /* \"#utility.yul\":18017:18037   */\n      tag_512\n        /* \"#utility.yul\":18035:18036   */\n      dup4\n        /* \"#utility.yul\":18017:18037   */\n      tag_281\n      jump\t// in\n    tag_512:\n        /* \"#utility.yul\":18012:18037   */\n      swap3\n      pop\n        /* \"#utility.yul\":18056:18057   */\n      dup3\n        /* \"#utility.yul\":18053:18054   */\n      dup3\n        /* \"#utility.yul\":18050:18058   */\n      lt\n        /* \"#utility.yul\":18047:18081   */\n      iszero\n      tag_513\n      jumpi\n        /* \"#utility.yul\":18061:18079   */\n      tag_514\n      tag_312\n      jump\t// in\n    tag_514:\n        /* \"#utility.yul\":18047:18081   */\n    tag_513:\n        /* \"#utility.yul\":18106:18107   */\n      dup3\n        /* \"#utility.yul\":18103:18104   */\n      dup3\n        /* \"#utility.yul\":18099:18108   */\n      sub\n        /* \"#utility.yul\":18091:18108   */\n      swap1\n      pop\n        /* \"#utility.yul\":17923:18114   */\n      swap3\n      swap2\n      pop\n      pop\n      jump\t// out\n        /* \"#utility.yul\":18120:18301   */\n    tag_326:\n        /* \"#utility.yul\":18260:18293   */\n      0x4e494b2068617275732074657264697269206461726920313620646967697400\n        /* \"#utility.yul\":18256:18257   */\n      0x00\n        /* \"#utility.yul\":18248:18254   */\n      dup3\n        /* \"#utility.yul\":18244:18258   */\n      add\n        /* \"#utility.yul\":18237:18294   */\n      mstore\n        /* \"#utility.yul\":18120:18301   */\n      pop\n      jump\t// out\n        /* \"#utility.yul\":18307:18673   */\n    tag_327:\n        /* \"#utility.yul\":18449:18452   */\n      0x00\n        /* \"#utility.yul\":18470:18537   */\n      tag_517\n        /* \"#utility.yul\":18534:18536   */\n      0x1f\n        /* \"#utility.yul\":18529:18532   */\n      dup4\n        /* \"#utility.yul\":18470:18537   */\n      tag_307\n      jump\t// in\n    tag_517:\n        /* \"#utility.yul\":18463:18537   */\n      swap2\n      pop\n        /* \"#utility.yul\":18546:18639   */\n      tag_518\n        /* \"#utility.yul\":18635:18638   */\n      dup3\n        /* \"#utility.yul\":18546:18639   */\n      tag_326\n      jump\t// in\n    tag_518:\n        /* \"#utility.yul\":18664:18666   */\n      0x20\n        /* \"#utility.yul\":18659:18662   */\n      dup3\n        /* \"#utility.yul\":18655:18667   */\n      add\n        /* \"#utility.yul\":18648:18667   */\n      swap1\n      pop\n        /* \"#utility.yul\":18307:18673   */\n      swap2\n      swap1\n      pop\n      jump\t// out\n        /* \"#utility.yul\":18679:19098   */\n    tag_195:\n        /* \"#utility.yul\":18845:18849   */\n      0x00\n        /* \"#utility.yul\":18883:18885   */\n      0x20\n        /* \"#utility.yul\":18872:18881   */\n      dup3\n        /* \"#utility.yul\":18868:18886   */\n      add\n        /* \"#utility.yul\":18860:18886   */\n      swap1\n      pop\n        /* \"#utility.yul\":18932:18941   */\n      dup2\n        /* \"#utility.yul\":18926:18930   */\n      dup2\n        /* \"#utility.yul\":18922:18942   */\n      sub\n        /* \"#utility.yul\":18918:18919   */\n      0x00\n        /* \"#utility.yul\":18907:18916   */\n      dup4\n        /* \"#utility.yul\":18903:18920   */\n      add\n        /* \"#utility.yul\":18896:18943   */\n      mstore\n        /* \"#utility.yul\":18960:19091   */\n      tag_520\n        /* \"#utility.yul\":19086:19090   */\n      dup2\n        /* \"#utility.yul\":18960:19091   */\n      tag_327\n      jump\t// in\n    tag_520:\n        /* \"#utility.yul\":18952:19091   */\n      swap1\n      pop\n        /* \"#utility.yul\":18679:19098   */\n      swap2\n      swap1\n      pop\n      jump\t// out\n        /* \"#utility.yul\":19104:19329   */\n    tag_328:\n        /* \"#utility.yul\":19244:19278   */\n      0x486f6c6420494420746964616b2076616c696420617461752073756461682064\n        /* \"#utility.yul\":19240:19241   */\n      0x00\n        /* \"#utility.yul\":19232:19238   */\n      dup3\n        /* \"#utility.yul\":19228:19242   */\n      add\n        /* \"#utility.yul\":19221:19279   */\n      mstore\n        /* \"#utility.yul\":19313:19321   */\n      0x696c657061730000000000000000000000000000000000000000000000000000\n        /* \"#utility.yul\":19308:19310   */\n      0x20\n        /* \"#utility.yul\":19300:19306   */\n      dup3\n        /* \"#utility.yul\":19296:19311   */\n      add\n        /* \"#utility.yul\":19289:19322   */\n      mstore\n        /* \"#utility.yul\":19104:19329   */\n      pop\n      jump\t// out\n        /* \"#utility.yul\":19335:19701   */\n    tag_329:\n        /* \"#utility.yul\":19477:19480   */\n      0x00\n        /* \"#utility.yul\":19498:19565   */\n      tag_523\n        /* \"#utility.yul\":19562:19564   */\n      0x26\n        /* \"#utility.yul\":19557:19560   */\n      dup4\n        /* \"#utility.yul\":19498:19565   */\n      tag_307\n      jump\t// in\n    tag_523:\n        /* \"#utility.yul\":19491:19565   */\n      swap2\n      pop\n        /* \"#utility.yul\":19574:19667   */\n      tag_524\n        /* \"#utility.yul\":19663:19666   */\n      dup3\n        /* \"#utility.yul\":19574:19667   */\n      tag_328\n      jump\t// in\n    tag_524:\n        /* \"#utility.yul\":19692:19694   */\n      0x40\n        /* \"#utility.yul\":19687:19690   */\n      dup3\n        /* \"#utility.yul\":19683:19695   */\n      add\n        /* \"#utility.yul\":19676:19695   */\n      swap1\n      pop\n        /* \"#utility.yul\":19335:19701   */\n      swap2\n      swap1\n      pop\n      jump\t// out\n        /* \"#utility.yul\":19707:20126   */\n    tag_198:\n        /* \"#utility.yul\":19873:19877   */\n      0x00\n        /* \"#utility.yul\":19911:19913   */\n      0x20\n        /* \"#utility.yul\":19900:19909   */\n      dup3\n        /* \"#utility.yul\":19896:19914   */\n      add\n        /* \"#utility.yul\":19888:19914   */\n      swap1\n      pop\n        /* \"#utility.yul\":19960:19969   */\n      dup2\n        /* \"#utility.yul\":19954:19958   */\n      dup2\n        /* \"#utility.yul\":19950:19970   */\n      sub\n        /* \"#utility.yul\":19946:19947   */\n      0x00\n        /* \"#utility.yul\":19935:19944   */\n      dup4\n        /* \"#utility.yul\":19931:19948   */\n      add\n        /* \"#utility.yul\":19924:19971   */\n      mstore\n        /* \"#utility.yul\":19988:20119   */\n      tag_526\n        /* \"#utility.yul\":20114:20118   */\n      dup2\n        /* \"#utility.yul\":19988:20119   */\n      tag_329\n      jump\t// in\n    tag_526:\n        /* \"#utility.yul\":19980:20119   */\n      swap1\n      pop\n        /* \"#utility.yul\":19707:20126   */\n      swap2\n      swap1\n      pop\n      jump\t// out\n        /* \"#utility.yul\":20132:20352   */\n    tag_330:\n        /* \"#utility.yul\":20272:20306   */\n      0x4964656e746974617320696e69207375646168206d656d62656c692074696b65\n        /* \"#utility.yul\":20268:20269   */\n      0x00\n        /* \"#utility.yul\":20260:20266   */\n      dup3\n        /* \"#utility.yul\":20256:20270   */\n      add\n        /* \"#utility.yul\":20249:20307   */\n      mstore\n        /* \"#utility.yul\":20341:20344   */\n      0x7400000000000000000000000000000000000000000000000000000000000000\n        /* \"#utility.yul\":20336:20338   */\n      0x20\n        /* \"#utility.yul\":20328:20334   */\n      dup3\n        /* \"#utility.yul\":20324:20339   */\n      add\n        /* \"#utility.yul\":20317:20345   */\n      mstore\n        /* \"#utility.yul\":20132:20352   */\n      pop\n      jump\t// out\n        /* \"#utility.yul\":20358:20724   */\n    tag_331:\n        /* \"#utility.yul\":20500:20503   */\n      0x00\n        /* \"#utility.yul\":20521:20588   */\n      tag_529\n        /* \"#utility.yul\":20585:20587   */\n      0x21\n        /* \"#utility.yul\":20580:20583   */\n      dup4\n        /* \"#utility.yul\":20521:20588   */\n      tag_307\n      jump\t// in\n    tag_529:\n        /* \"#utility.yul\":20514:20588   */\n      swap2\n      pop\n        /* \"#utility.yul\":20597:20690   */\n      tag_530\n        /* \"#utility.yul\":20686:20689   */\n      dup3\n        /* \"#utility.yul\":20597:20690   */\n      tag_330\n      jump\t// in\n    tag_530:\n        /* \"#utility.yul\":20715:20717   */\n      0x40\n        /* \"#utility.yul\":20710:20713   */\n      dup3\n        /* \"#utility.yul\":20706:20718   */\n      add\n        /* \"#utility.yul\":20699:20718   */\n      swap1\n      pop\n        /* \"#utility.yul\":20358:20724   */\n      swap2\n      swap1\n      pop\n      jump\t// out\n        /* \"#utility.yul\":20730:21149   */\n    tag_202:\n        /* \"#utility.yul\":20896:20900   */\n      0x00\n        /* \"#utility.yul\":20934:20936   */\n      0x20\n        /* \"#utility.yul\":20923:20932   */\n      dup3\n        /* \"#utility.yul\":20919:20937   */\n      add\n        /* \"#utility.yul\":20911:20937   */\n      swap1\n      pop\n        /* \"#utility.yul\":20983:20992   */\n      dup2\n        /* \"#utility.yul\":20977:20981   */\n      dup2\n        /* \"#utility.yul\":20973:20993   */\n      sub\n        /* \"#utility.yul\":20969:20970   */\n      0x00\n        /* \"#utility.yul\":20958:20967   */\n      dup4\n        /* \"#utility.yul\":20954:20971   */\n      add\n        /* \"#utility.yul\":20947:20994   */\n      mstore\n        /* \"#utility.yul\":21011:21142   */\n      tag_532\n        /* \"#utility.yul\":21137:21141   */\n      dup2\n        /* \"#utility.yul\":21011:21142   */\n      tag_331\n      jump\t// in\n    tag_532:\n        /* \"#utility.yul\":21003:21142   */\n      swap1\n      pop\n        /* \"#utility.yul\":20730:21149   */\n      swap2\n      swap1\n      pop\n      jump\t// out\n        /* \"#utility.yul\":21155:21395   */\n    tag_332:\n        /* \"#utility.yul\":21295:21329   */\n      0x57616b747520686f6c642074696b65742073756461682068616269732064616e\n        /* \"#utility.yul\":21291:21292   */\n      0x00\n        /* \"#utility.yul\":21283:21289   */\n      dup3\n        /* \"#utility.yul\":21279:21293   */\n      add\n        /* \"#utility.yul\":21272:21330   */\n      mstore\n        /* \"#utility.yul\":21364:21387   */\n      0x2074696b65742074656c61682064696c657061732e0000000000000000000000\n        /* \"#utility.yul\":21359:21361   */\n      0x20\n        /* \"#utility.yul\":21351:21357   */\n      dup3\n        /* \"#utility.yul\":21347:21362   */\n      add\n        /* \"#utility.yul\":21340:21388   */\n      mstore\n        /* \"#utility.yul\":21155:21395   */\n      pop\n      jump\t// out\n        /* \"#utility.yul\":21401:21767   */\n    tag_333:\n        /* \"#utility.yul\":21543:21546   */\n      0x00\n        /* \"#utility.yul\":21564:21631   */\n      tag_535\n        /* \"#utility.yul\":21628:21630   */\n      0x35\n        /* \"#utility.yul\":21623:21626   */\n      dup4\n        /* \"#utility.yul\":21564:21631   */\n      tag_307\n      jump\t// in\n    tag_535:\n        /* \"#utility.yul\":21557:21631   */\n      swap2\n      pop\n        /* \"#utility.yul\":21640:21733   */\n      tag_536\n        /* \"#utility.yul\":21729:21732   */\n      dup3\n        /* \"#utility.yul\":21640:21733   */\n      tag_332\n      jump\t// in\n    tag_536:\n        /* \"#utility.yul\":21758:21760   */\n      0x40\n        /* \"#utility.yul\":21753:21756   */\n      dup3\n        /* \"#utility.yul\":21749:21761   */\n      add\n        /* \"#utility.yul\":21742:21761   */\n      swap1\n      pop\n        /* \"#utility.yul\":21401:21767   */\n      swap2\n      swap1\n      pop\n      jump\t// out\n        /* \"#utility.yul\":21773:22192   */\n    tag_205:\n        /* \"#utility.yul\":21939:21943   */\n      0x00\n        /* \"#utility.yul\":21977:21979   */\n      0x20\n        /* \"#utility.yul\":21966:21975   */\n      dup3\n        /* \"#utility.yul\":21962:21980   */\n      add\n        /* \"#utility.yul\":21954:21980   */\n      swap1\n      pop\n        /* \"#utility.yul\":22026:22035   */\n      dup2\n        /* \"#utility.yul\":22020:22024   */\n      dup2\n        /* \"#utility.yul\":22016:22036   */\n      sub\n        /* \"#utility.yul\":22012:22013   */\n      0x00\n        /* \"#utility.yul\":22001:22010   */\n      dup4\n        /* \"#utility.yul\":21997:22014   */\n      add\n        /* \"#utility.yul\":21990:22037   */\n      mstore\n        /* \"#utility.yul\":22054:22185   */\n      tag_538\n        /* \"#utility.yul\":22180:22184   */\n      dup2\n        /* \"#utility.yul\":22054:22185   */\n      tag_333\n      jump\t// in\n    tag_538:\n        /* \"#utility.yul\":22046:22185   */\n      swap1\n      pop\n        /* \"#utility.yul\":21773:22192   */\n      swap2\n      swap1\n      pop\n      jump\t// out\n        /* \"#utility.yul\":22198:22379   */\n    tag_334:\n        /* \"#utility.yul\":22338:22371   */\n      0x5265656e7472616e637947756172643a207265656e7472616e742063616c6c00\n        /* \"#utility.yul\":22334:22335   */\n      0x00\n        /* \"#utility.yul\":22326:22332   */\n      dup3\n        /* \"#utility.yul\":22322:22336   */\n      add\n        /* \"#utility.yul\":22315:22372   */\n      mstore\n        /* \"#utility.yul\":22198:22379   */\n      pop\n      jump\t// out\n        /* \"#utility.yul\":22385:22751   */\n    tag_335:\n        /* \"#utility.yul\":22527:22530   */\n      0x00\n        /* \"#utility.yul\":22548:22615   */\n      tag_541\n        /* \"#utility.yul\":22612:22614   */\n      0x1f\n        /* \"#utility.yul\":22607:22610   */\n      dup4\n        /* \"#utility.yul\":22548:22615   */\n      tag_307\n      jump\t// in\n    tag_541:\n        /* \"#utility.yul\":22541:22615   */\n      swap2\n      pop\n        /* \"#utility.yul\":22624:22717   */\n      tag_542\n        /* \"#utility.yul\":22713:22716   */\n      dup3\n        /* \"#utility.yul\":22624:22717   */\n      tag_334\n      jump\t// in\n    tag_542:\n        /* \"#utility.yul\":22742:22744   */\n      0x20\n        /* \"#utility.yul\":22737:22740   */\n      dup3\n        /* \"#utility.yul\":22733:22745   */\n      add\n        /* \"#utility.yul\":22726:22745   */\n      swap1\n      pop\n        /* \"#utility.yul\":22385:22751   */\n      swap2\n      swap1\n      pop\n      jump\t// out\n        /* \"#utility.yul\":22757:23176   */\n    tag_239:\n        /* \"#utility.yul\":22923:22927   */\n      0x00\n        /* \"#utility.yul\":22961:22963   */\n      0x20\n        /* \"#utility.yul\":22950:22959   */\n      dup3\n        /* \"#utility.yul\":22946:22964   */\n      add\n        /* \"#utility.yul\":22938:22964   */\n      swap1\n      pop\n        /* \"#utility.yul\":23010:23019   */\n      dup2\n        /* \"#utility.yul\":23004:23008   */\n      dup2\n        /* \"#utility.yul\":23000:23020   */\n      sub\n        /* \"#utility.yul\":22996:22997   */\n      0x00\n        /* \"#utility.yul\":22985:22994   */\n      dup4\n        /* \"#utility.yul\":22981:22998   */\n      add\n        /* \"#utility.yul\":22974:23021   */\n      mstore\n        /* \"#utility.yul\":23038:23169   */\n      tag_544\n        /* \"#utility.yul\":23164:23168   */\n      dup2\n        /* \"#utility.yul\":23038:23169   */\n      tag_335\n      jump\t// in\n    tag_544:\n        /* \"#utility.yul\":23030:23169   */\n      swap1\n      pop\n        /* \"#utility.yul\":22757:23176   */\n      swap2\n      swap1\n      pop\n      jump\t// out\n        /* \"#utility.yul\":23182:23333   */\n    tag_336:\n        /* \"#utility.yul\":23322:23325   */\n      0x2d00000000000000000000000000000000000000000000000000000000000000\n        /* \"#utility.yul\":23318:23319   */\n      0x00\n        /* \"#utility.yul\":23310:23316   */\n      dup3\n        /* \"#utility.yul\":23306:23320   */\n      add\n        /* \"#utility.yul\":23299:23326   */\n      mstore\n        /* \"#utility.yul\":23182:23333   */\n      pop\n      jump\t// out\n        /* \"#utility.yul\":23339:23739   */\n    tag_337:\n        /* \"#utility.yul\":23499:23502   */\n      0x00\n        /* \"#utility.yul\":23520:23604   */\n      tag_547\n        /* \"#utility.yul\":23602:23603   */\n      0x01\n        /* \"#utility.yul\":23597:23600   */\n      dup4\n        /* \"#utility.yul\":23520:23604   */\n      tag_317\n      jump\t// in\n    tag_547:\n        /* \"#utility.yul\":23513:23604   */\n      swap2\n      pop\n        /* \"#utility.yul\":23613:23706   */\n      tag_548\n        /* \"#utility.yul\":23702:23705   */\n      dup3\n        /* \"#utility.yul\":23613:23706   */\n      tag_336\n      jump\t// in\n    tag_548:\n        /* \"#utility.yul\":23731:23732   */\n      0x01\n        /* \"#utility.yul\":23726:23729   */\n      dup3\n        /* \"#utility.yul\":23722:23733   */\n      add\n        /* \"#utility.yul\":23715:23733   */\n      swap1\n      pop\n        /* \"#utility.yul\":23339:23739   */\n      swap2\n      swap1\n      pop\n      jump\t// out\n        /* \"#utility.yul\":23745:24446   */\n    tag_249:\n        /* \"#utility.yul\":24026:24029   */\n      0x00\n        /* \"#utility.yul\":24048:24143   */\n      tag_550\n        /* \"#utility.yul\":24139:24142   */\n      dup3\n        /* \"#utility.yul\":24130:24136   */\n      dup6\n        /* \"#utility.yul\":24048:24143   */\n      tag_318\n      jump\t// in\n    tag_550:\n        /* \"#utility.yul\":24041:24143   */\n      swap2\n      pop\n        /* \"#utility.yul\":24160:24308   */\n      tag_551\n        /* \"#utility.yul\":24304:24307   */\n      dup3\n        /* \"#utility.yul\":24160:24308   */\n      tag_337\n      jump\t// in\n    tag_551:\n        /* \"#utility.yul\":24153:24308   */\n      swap2\n      pop\n        /* \"#utility.yul\":24325:24420   */\n      tag_552\n        /* \"#utility.yul\":24416:24419   */\n      dup3\n        /* \"#utility.yul\":24407:24413   */\n      dup5\n        /* \"#utility.yul\":24325:24420   */\n      tag_318\n      jump\t// in\n    tag_552:\n        /* \"#utility.yul\":24318:24420   */\n      swap2\n      pop\n        /* \"#utility.yul\":24437:24440   */\n      dup2\n        /* \"#utility.yul\":24430:24440   */\n      swap1\n      pop\n        /* \"#utility.yul\":23745:24446   */\n      swap4\n      swap3\n      pop\n      pop\n      pop\n      jump\t// out\n        /* \"#utility.yul\":24452:24632   */\n    tag_338:\n        /* \"#utility.yul\":24500:24577   */\n      0x4e487b7100000000000000000000000000000000000000000000000000000000\n        /* \"#utility.yul\":24497:24498   */\n      0x00\n        /* \"#utility.yul\":24490:24578   */\n      mstore\n        /* \"#utility.yul\":24597:24601   */\n      0x12\n        /* \"#utility.yul\":24594:24595   */\n      0x04\n        /* \"#utility.yul\":24587:24602   */\n      mstore\n        /* \"#utility.yul\":24621:24625   */\n      0x24\n        /* \"#utility.yul\":24618:24619   */\n      0x00\n        /* \"#utility.yul\":24611:24626   */\n      revert\n        /* \"#utility.yul\":24638:24823   */\n    tag_256:\n        /* \"#utility.yul\":24678:24679   */\n      0x00\n        /* \"#utility.yul\":24695:24715   */\n      tag_555\n        /* \"#utility.yul\":24713:24714   */\n      dup3\n        /* \"#utility.yul\":24695:24715   */\n      tag_281\n      jump\t// in\n    tag_555:\n        /* \"#utility.yul\":24690:24715   */\n      swap2\n      pop\n        /* \"#utility.yul\":24729:24749   */\n      tag_556\n        /* \"#utility.yul\":24747:24748   */\n      dup4\n        /* \"#utility.yul\":24729:24749   */\n      tag_281\n      jump\t// in\n    tag_556:\n        /* \"#utility.yul\":24724:24749   */\n      swap3\n      pop\n        /* \"#utility.yul\":24768:24769   */\n      dup3\n        /* \"#utility.yul\":24758:24793   */\n      tag_557\n      jumpi\n        /* \"#utility.yul\":24773:24791   */\n      tag_558\n      tag_338\n      jump\t// in\n    tag_558:\n        /* \"#utility.yul\":24758:24793   */\n    tag_557:\n        /* \"#utility.yul\":24815:24816   */\n      dup3\n        /* \"#utility.yul\":24812:24813   */\n      dup3\n        /* \"#utility.yul\":24808:24817   */\n      div\n        /* \"#utility.yul\":24803:24817   */\n      swap1\n      pop\n        /* \"#utility.yul\":24638:24823   */\n      swap3\n      swap2\n      pop\n      pop\n      jump\t// out\n        /* \"#utility.yul\":24829:25005   */\n    tag_265:\n        /* \"#utility.yul\":24861:24862   */\n      0x00\n        /* \"#utility.yul\":24878:24898   */\n      tag_560\n        /* \"#utility.yul\":24896:24897   */\n      dup3\n        /* \"#utility.yul\":24878:24898   */\n      tag_281\n      jump\t// in\n    tag_560:\n        /* \"#utility.yul\":24873:24898   */\n      swap2\n      pop\n        /* \"#utility.yul\":24912:24932   */\n      tag_561\n        /* \"#utility.yul\":24930:24931   */\n      dup4\n        /* \"#utility.yul\":24912:24932   */\n      tag_281\n      jump\t// in\n    tag_561:\n        /* \"#utility.yul\":24907:24932   */\n      swap3\n      pop\n        /* \"#utility.yul\":24951:24952   */\n      dup3\n        /* \"#utility.yul\":24941:24976   */\n      tag_562\n      jumpi\n        /* \"#utility.yul\":24956:24974   */\n      tag_563\n      tag_338\n      jump\t// in\n    tag_563:\n        /* \"#utility.yul\":24941:24976   */\n    tag_562:\n        /* \"#utility.yul\":24997:24998   */\n      dup3\n        /* \"#utility.yul\":24994:24995   */\n      dup3\n        /* \"#utility.yul\":24990:24999   */\n      mod\n        /* \"#utility.yul\":24985:24999   */\n      swap1\n      pop\n        /* \"#utility.yul\":24829:25005   */\n      swap3\n      swap2\n      pop\n      pop\n      jump\t// out\n        /* \"#utility.yul\":25011:25191   */\n    tag_269:\n        /* \"#utility.yul\":25059:25136   */\n      0x4e487b7100000000000000000000000000000000000000000000000000000000\n        /* \"#utility.yul\":25056:25057   */\n      0x00\n        /* \"#utility.yul\":25049:25137   */\n      mstore\n        /* \"#utility.yul\":25156:25160   */\n      0x32\n        /* \"#utility.yul\":25153:25154   */\n      0x04\n        /* \"#utility.yul\":25146:25161   */\n      mstore\n        /* \"#utility.yul\":25180:25184   */\n      0x24\n        /* \"#utility.yul\":25177:25178   */\n      0x00\n        /* \"#utility.yul\":25170:25185   */\n      revert\n\n    auxdata: 0xa264697066735822122021856b06c7f3e3e136951353d080fa5084f116c1ccaf940c125ff23e173679a164736f6c63430008090033\n}\n","bytecode":{"linkReferences":{},"object":"608060405261012c60055560016006553480156200001c57600080fd5b5060405162002565380380620025658339818101604052810190620000429190620000f1565b600160008190555033600160006101000a81548173ffffffffffffffffffffffffffffffffffffffff021916908373ffffffffffffffffffffffffffffffffffffffff16021790555082600281905550816004819055506000600381905550806007819055505050506200014d565b600080fd5b6000819050919050565b620000cb81620000b6565b8114620000d757600080fd5b50565b600081519050620000eb81620000c0565b92915050565b6000806000606084860312156200010d576200010c620000b1565b5b60006200011d86828701620000da565b93505060206200013086828701620000da565b92505060406200014386828701620000da565b9150509250925092565b612408806200015d6000396000f3fe608060405234801561001057600080fd5b50600436106101375760003560e01c806390a9c2b3116100b8578063c62efa371161007c578063c62efa371461035a578063d13816c71461038a578063de94f377146103a6578063ef629b16146103d7578063f12e1dd014610407578063f75a99c11461042557610137565b806390a9c2b3146102b2578063950a8a54146102ce5780639b1537c2146102ec578063b7b3628e1461031e578063bbed3c8d1461033c57610137565b80634c7d460f116100ff5780634c7d460f146101f657806357e4288a1461022657806371367ab8146102445780638a5ce1cf146102625780638da5cb5b1461029457610137565b806308548f331461013c5780631e94d9741461015a578063276a14a614610178578063338843cc14610196578063480ddc60146101c6575b600080fd5b610144610441565b604051610151919061165c565b60405180910390f35b610162610447565b60405161016f919061165c565b60405180910390f35b61018061044d565b60405161018d919061165c565b60405180910390f35b6101b060048036038101906101ab91906116c1565b610457565b6040516101bd919061165c565b60405180910390f35b6101e060048036038101906101db919061171a565b61046f565b6040516101ed919061165c565b60405180910390f35b610210600480360381019061020b919061188d565b6106fd565b60405161021d919061165c565b60405180910390f35b61022e61072b565b60405161023b919061165c565b60405180910390f35b61024c610731565b604051610259919061165c565b60405180910390f35b61027c6004803603810190610277919061171a565b610737565b60405161028b939291906118f1565b60405180910390f35b61029c61076e565b6040516102a99190611969565b60405180910390f35b6102cc60048036038101906102c79190611984565b610794565b005b6102d66109c7565b6040516102e3919061165c565b60405180910390f35b6103066004803603810190610301919061171a565b6109cd565b60405161031593929190611a93565b60405180910390f35b610326610a8c565b604051610333919061165c565b60405180910390f35b610344610b23565b604051610351919061165c565b60405180910390f35b610374600480360381019061036f919061171a565b610ba0565b6040516103819190611ad1565b60405180910390f35b6103a4600480360381019061039f9190611af3565b610c40565b005b6103c060048036038101906103bb9190611984565b611038565b6040516103ce929190611b4f565b60405180910390f35b6103f160048036038101906103ec919061188d565b6111c9565b6040516103fe919061165c565b60405180910390f35b61040f6111f7565b60405161041c919061165c565b60405180910390f35b61043f600480360381019061043a919061171a565b6111fd565b005b60035481565b60045481565b6000600754905090565b600a6020528060005260406000206000915090505481565b6000600160009054906101000a900473ffffffffffffffffffffffffffffffffffffffff1673ffffffffffffffffffffffffffffffffffffffff163373ffffffffffffffffffffffffffffffffffffffff1614610501576040517f08c379a00000000000000000000000000000000000000000000000000000000081526004016104f890611bf1565b60405180910390fd5b61050961135f565b600080600190505b60065481101561057c576008600082815260200190815260200160002060020160009054906101000a900460ff1615610569576008600082815260200190815260200160002060000154826105669190611c40565b91505b808061057490611c96565b915050610511565b50600254838260035461058f9190611c40565b6105999190611c40565b11156105da576040517f08c379a00000000000000000000000000000000000000000000000000000000081526004016105d190611d2b565b60405180910390fd5b60045483111561061f576040517f08c379a000000000000000000000000000000000000000000000000000000000815260040161061690611dbd565b60405180910390fd5b600060065490506040518060600160405280858152602001600554426106459190611c40565b81526020016001151581525060086000838152602001908152602001600020600082015181600001556020820151816001015560408201518160020160006101000a81548160ff021916908315150217905550905050600660008154809291906106ae90611c96565b9190505550807f073b3d756f661440487a04655643e144e5101bec14c7ca31df8edece74ad7066856040516106e3919061165c565b60405180910390a280925050506106f86113af565b919050565b600b818051602081018201805184825260208301602085012081835280955050505050506000915090505481565b60055481565b60025481565b60086020528060005260406000206000915090508060000154908060010154908060020160009054906101000a900460ff16905083565b600160009054906101000a900473ffffffffffffffffffffffffffffffffffffffff1681565b600160009054906101000a900473ffffffffffffffffffffffffffffffffffffffff1673ffffffffffffffffffffffffffffffffffffffff163373ffffffffffffffffffffffffffffffffffffffff1614610824576040517f08c379a000000000000000000000000000000000000000000000000000000000815260040161081b90611bf1565b60405180910390fd5b61082c61135f565b6000600b8360405161083e9190611e19565b90815260200160405180910390205490506000811415610893576040517f08c379a000000000000000000000000000000000000000000000000000000000815260040161088a90611e7c565b60405180910390fd5b600c600082815260200190815260200160002060020160009054906101000a900460ff16156108f7576040517f08c379a00000000000000000000000000000000000000000000000000000000081526004016108ee90611ee8565b60405180910390fd5b6000610902836113b9565b905080600c6000848152602001908152602001600020600001541461095c576040517f08c379a000000000000000000000000000000000000000000000000000000000815260040161095390611f54565b60405180910390fd5b6001600c600084815260200190815260200160002060020160006101000a81548160ff02191690831515021790555080827f887b4a70143c4159cadeccebe8d1a3e975c797bd496dcc83af0bd96258e527bd60405160405180910390a350506109c36113af565b5050565b60075481565b600c6020528060005260406000206000915090508060000154908060010180546109f690611fa3565b80601f0160208091040260200160405190810160405280929190818152602001828054610a2290611fa3565b8015610a6f5780601f10610a4457610100808354040283529160200191610a6f565b820191906000526020600020905b815481529060010190602001808311610a5257829003601f168201915b5050505050908060020160009054906101000a900460ff16905083565b6000806000600190505b600654811015610b01576008600082815260200190815260200160002060020160009054906101000a900460ff1615610aee57600860008281526020019081526020016000206000015482610aeb9190611c40565b91505b8080610af990611c96565b915050610a96565b5080600354600254610b139190611fd5565b610b1d9190611fd5565b91505090565b6000806000600190505b600654811015610b98576008600082815260200190815260200160002060020160009054906101000a900460ff1615610b8557600860008281526020019081526020016000206000015482610b829190611c40565b91505b8080610b9090611c96565b915050610b2d565b508091505090565b60096020528060005260406000206000915090508054610bbf90611fa3565b80601f0160208091040260200160405190810160405280929190818152602001828054610beb90611fa3565b8015610c385780601f10610c0d57610100808354040283529160200191610c38565b820191906000526020600020905b815481529060010190602001808311610c1b57829003601f168201915b505050505081565b600160009054906101000a900473ffffffffffffffffffffffffffffffffffffffff1673ffffffffffffffffffffffffffffffffffffffff163373ffffffffffffffffffffffffffffffffffffffff1614610cd0576040517f08c379a0000000000000000000000000000000000000000000000000000000008152600401610cc790611bf1565b60405180910390fd5b610cd861135f565b6010815114610d1c576040517f08c379a0000000000000000000000000000000000000000000000000000000008152600401610d1390612055565b60405180910390fd5b6008600083815260200190815260200160002060020160009054906101000a900460ff16610d7f576040517f08c379a0000000000000000000000000000000000000000000000000000000008152600401610d76906120e7565b60405180910390fd5b6000610d8a826113b9565b90506000600a60008381526020019081526020016000205414610de2576040517f08c379a0000000000000000000000000000000000000000000000000000000008152600401610dd990612179565b60405180910390fd5b6008600084815260200190815260200160002060010154421115610e975760006008600085815260200190815260200160002060020160006101000a81548160ff021916908315150217905550827f75b500e641878a21886fc52000b2750ae82d6a6866c48b29bccb1848d742c3ca60405160405180910390a26040517f08c379a0000000000000000000000000000000000000000000000000000000008152600401610e8e9061220b565b60405180910390fd5b60006008600085815260200190815260200160002060000154905080600a60008481526020019081526020016000208190555060005b81811015610ffa5760006001600354610ee69190611c40565b90506000610ef482876113e9565b9050604051806060016040528086815260200182815260200160001515815250600c6000848152602001908152602001600020600082015181600001556020820151816001019080519060200190610f4d9291906115a0565b5060408201518160020160006101000a81548160ff02191690831515021790555090505081600b82604051610f829190611e19565b90815260200160405180910390208190555060036000815480929190610fa790611c96565b919050555084827ffcacde2872c0256e989158662a881413445b12a912c04f5c50d78b40250804fb83604051610fdd9190611ad1565b60405180910390a350508080610ff290611c96565b915050610ecd565b5060006008600086815260200190815260200160002060020160006101000a81548160ff02191690831515021790555050506110346113af565b5050565b600060606000600b8560405161104e9190611e19565b908152602001604051809103902054905060008114156110aa5760006040518060400160405280601581526020017f54696b657420746964616b20646974656d756b616e000000000000000000000081525092509250506111c2565b60006110b5856113b9565b905080600c600084815260200190815260200160002060000154141561118357600c600083815260200190815260200160002060020160009054906101000a900460ff166111405760016040518060400160405280601f81526020017f54696b65742076616c69642064616e2062656c756d20646967756e616b616e008152509350935050506111c2565b60006040518060400160405280601f81526020017f54696b65742076616c69642064616e20737564616820646967756e616b616e008152509350935050506111c2565b60006040518060400160405280601181526020017f54696b657420746964616b2076616c69640000000000000000000000000000008152509350935050505b9250929050565b600d818051602081018201805184825260208301602085012081835280955050505050506000915090505481565b60065481565b600160009054906101000a900473ffffffffffffffffffffffffffffffffffffffff1673ffffffffffffffffffffffffffffffffffffffff163373ffffffffffffffffffffffffffffffffffffffff161461128d576040517f08c379a000000000000000000000000000000000000000000000000000000000815260040161128490611bf1565b60405180910390fd5b61129561135f565b6008600082815260200190815260200160002060020160009054906101000a900460ff166112f8576040517f08c379a00000000000000000000000000000000000000000000000000000000081526004016112ef906120e7565b60405180910390fd5b60006008600083815260200190815260200160002060020160006101000a81548160ff021916908315150217905550807f75b500e641878a21886fc52000b2750ae82d6a6866c48b29bccb1848d742c3ca60405160405180910390a261135c6113af565b50565b600260005414156113a5576040517f08c379a000000000000000000000000000000000000000000000000000000000815260040161139c90612277565b60405180910390fd5b6002600081905550565b6001600081905550565b6000816040516020016113cc9190611e19565b604051602081830303815290604052805190602001209050919050565b606060006113f6836113b9565b90506114048160001c611436565b61140d85611436565b60405160200161141e9291906122e3565b60405160208183030381529060405291505092915050565b6060600082141561147e576040518060400160405280600181526020017f3000000000000000000000000000000000000000000000000000000000000000815250905061159b565b600082905060005b600082146114b057808061149990611c96565b915050600a826114a99190612341565b9150611486565b60008167ffffffffffffffff8111156114cc576114cb611762565b5b6040519080825280601f01601f1916602001820160405280156114fe5781602001600182028036833780820191505090505b50905060008290508593505b600084146115935760018161151f9190611fd5565b9050600a8461152e9190612372565b603061153a9190611c40565b60f81b8282815181106115505761154f6123a3565b5b60200101907effffffffffffffffffffffffffffffffffffffffffffffffffffffffffffff1916908160001a905350600a8461158c9190612341565b935061150a565b819450505050505b919050565b8280546115ac90611fa3565b90600052602060002090601f0160209004810192826115ce5760008555611615565b82601f106115e757805160ff1916838001178555611615565b82800160010185558215611615579182015b828111156116145782518255916020019190600101906115f9565b5b5090506116229190611626565b5090565b5b8082111561163f576000816000905550600101611627565b5090565b6000819050919050565b61165681611643565b82525050565b6000602082019050611671600083018461164d565b92915050565b6000604051905090565b600080fd5b600080fd5b6000819050919050565b61169e8161168b565b81146116a957600080fd5b50565b6000813590506116bb81611695565b92915050565b6000602082840312156116d7576116d6611681565b5b60006116e5848285016116ac565b91505092915050565b6116f781611643565b811461170257600080fd5b50565b600081359050611714816116ee565b92915050565b6000602082840312156117305761172f611681565b5b600061173e84828501611705565b91505092915050565b600080fd5b600080fd5b6000601f19601f8301169050919050565b7f4e487b7100000000000000000000000000000000000000000000000000000000600052604160045260246000fd5b61179a82611751565b810181811067ffffffffffffffff821117156117b9576117b8611762565b5b80604052505050565b60006117cc611677565b90506117d88282611791565b919050565b600067ffffffffffffffff8211156117f8576117f7611762565b5b61180182611751565b9050602081019050919050565b82818337600083830152505050565b600061183061182b846117dd565b6117c2565b90508281526020810184848401111561184c5761184b61174c565b5b61185784828561180e565b509392505050565b600082601f83011261187457611873611747565b5b813561188484826020860161181d565b91505092915050565b6000602082840312156118a3576118a2611681565b5b600082013567ffffffffffffffff8111156118c1576118c0611686565b5b6118cd8482850161185f565b91505092915050565b60008115159050919050565b6118eb816118d6565b82525050565b6000606082019050611906600083018661164d565b611913602083018561164d565b61192060408301846118e2565b949350505050565b600073ffffffffffffffffffffffffffffffffffffffff82169050919050565b600061195382611928565b9050919050565b61196381611948565b82525050565b600060208201905061197e600083018461195a565b92915050565b6000806040838503121561199b5761199a611681565b5b600083013567ffffffffffffffff8111156119b9576119b8611686565b5b6119c58582860161185f565b925050602083013567ffffffffffffffff8111156119e6576119e5611686565b5b6119f28582860161185f565b9150509250929050565b611a058161168b565b82525050565b600081519050919050565b600082825260208201905092915050565b60005b83811015611a45578082015181840152602081019050611a2a565b83811115611a54576000848401525b50505050565b6000611a6582611a0b565b611a6f8185611a16565b9350611a7f818560208601611a27565b611a8881611751565b840191505092915050565b6000606082019050611aa860008301866119fc565b8181036020830152611aba8185611a5a565b9050611ac960408301846118e2565b949350505050565b60006020820190508181036000830152611aeb8184611a5a565b905092915050565b60008060408385031215611b0a57611b09611681565b5b6000611b1885828601611705565b925050602083013567ffffffffffffffff811115611b3957611b38611686565b5b611b458582860161185f565b9150509250929050565b6000604082019050611b6460008301856118e2565b8181036020830152611b768184611a5a565b90509392505050565b7f48616e79612070656d696c696b2061636172612079616e67206461706174206d60008201527f656c616b756b616e20696e690000000000000000000000000000000000000000602082015250565b6000611bdb602c83611a16565b9150611be682611b7f565b604082019050919050565b60006020820190508181036000830152611c0a81611bce565b9050919050565b7f4e487b7100000000000000000000000000000000000000000000000000000000600052601160045260246000fd5b6000611c4b82611643565b9150611c5683611643565b9250827fffffffffffffffffffffffffffffffffffffffffffffffffffffffffffffffff03821115611c8b57611c8a611c11565b5b828201905092915050565b6000611ca182611643565b91507fffffffffffffffffffffffffffffffffffffffffffffffffffffffffffffffff821415611cd457611cd3611c11565b5b600182019050919050565b7f4a756d6c61682074696b657420746964616b2074657273656469610000000000600082015250565b6000611d15601b83611a16565b9150611d2082611cdf565b602082019050919050565b60006020820190508181036000830152611d4481611d08565b9050919050565b7f4a756d6c61682074696b6574206d656c6562696869206261746173206d616b7360008201527f696d756d20706572206964656e74697461730000000000000000000000000000602082015250565b6000611da7603283611a16565b9150611db282611d4b565b604082019050919050565b60006020820190508181036000830152611dd681611d9a565b9050919050565b600081905092915050565b6000611df382611a0b565b611dfd8185611ddd565b9350611e0d818560208601611a27565b80840191505092915050565b6000611e258284611de8565b915081905092915050565b7f54696b657420746964616b20646974656d756b616e0000000000000000000000600082015250565b6000611e66601583611a16565b9150611e7182611e30565b602082019050919050565b60006020820190508181036000830152611e9581611e59565b9050919050565b7f54696b657420737564616820646967756e616b616e0000000000000000000000600082015250565b6000611ed2601583611a16565b9150611edd82611e9c565b602082019050919050565b60006020820190508181036000830152611f0181611ec5565b9050919050565b7f4964656e746974617320746964616b2073657375616900000000000000000000600082015250565b6000611f3e601683611a16565b9150611f4982611f08565b602082019050919050565b60006020820190508181036000830152611f6d81611f31565b9050919050565b7f4e487b7100000000000000000000000000000000000000000000000000000000600052602260045260246000fd5b60006002820490506001821680611fbb57607f821691505b60208210811415611fcf57611fce611f74565b5b50919050565b6000611fe082611643565b9150611feb83611643565b925082821015611ffe57611ffd611c11565b5b828203905092915050565b7f4e494b2068617275732074657264697269206461726920313620646967697400600082015250565b600061203f601f83611a16565b915061204a82612009565b602082019050919050565b6000602082019050818103600083015261206e81612032565b9050919050565b7f486f6c6420494420746964616b2076616c69642061746175207375646168206460008201527f696c657061730000000000000000000000000000000000000000000000000000602082015250565b60006120d1602683611a16565b91506120dc82612075565b604082019050919050565b60006020820190508181036000830152612100816120c4565b9050919050565b7f4964656e746974617320696e69207375646168206d656d62656c692074696b6560008201527f7400000000000000000000000000000000000000000000000000000000000000602082015250565b6000612163602183611a16565b915061216e82612107565b604082019050919050565b6000602082019050818103600083015261219281612156565b9050919050565b7f57616b747520686f6c642074696b65742073756461682068616269732064616e60008201527f2074696b65742074656c61682064696c657061732e0000000000000000000000602082015250565b60006121f5603583611a16565b915061220082612199565b604082019050919050565b60006020820190508181036000830152612224816121e8565b9050919050565b7f5265656e7472616e637947756172643a207265656e7472616e742063616c6c00600082015250565b6000612261601f83611a16565b915061226c8261222b565b602082019050919050565b6000602082019050818103600083015261229081612254565b9050919050565b7f2d00000000000000000000000000000000000000000000000000000000000000600082015250565b60006122cd600183611ddd565b91506122d882612297565b600182019050919050565b60006122ef8285611de8565b91506122fa826122c0565b91506123068284611de8565b91508190509392505050565b7f4e487b7100000000000000000000000000000000000000000000000000000000600052601260045260246000fd5b600061234c82611643565b915061235783611643565b92508261236757612366612312565b5b828204905092915050565b600061237d82611643565b915061238883611643565b92508261239857612397612312565b5b828206905092915050565b7f4e487b7100000000000000000000000000000000000000000000000000000000600052603260045260246000fdfea264697066735822122021856b06c7f3e3e136951353d080fa5084f116c1ccaf940c125ff23e173679a164736f6c63430008090033","opcodes":"PUSH1 0x80 PUSH1 0x40 MSTORE PUSH2 0x12C PUSH1 0x5 SSTORE PUSH1 0x1 PUSH1 0x6 SSTORE CALLVALUE DUP1 ISZERO PUSH3 0x1C JUMPI PUSH1 0x0 DUP1 REVERT JUMPDEST POP PUSH1 0x40 MLOAD PUSH3 0x2565 CODESIZE SUB DUP1 PUSH3 0x2565 DUP4 CODECOPY DUP2 DUP2 ADD PUSH1 0x40 MSTORE DUP2 ADD SWAP1 PUSH3 0x42 SWAP2 SWAP1 PUSH3 0xF1 JUMP JUMPDEST PUSH1 0x1 PUSH1 0x0 DUP2 SWAP1 SSTORE POP CALLER PUSH1 0x1 PUSH1 0x0 PUSH2 0x100 EXP DUP2 SLOAD DUP2 PUSH20 0xFFFFFFFFFFFFFFFFFFFFFFFFFFFFFFFFFFFFFFFF MUL NOT AND SWAP1 DUP4 PUSH20 0xFFFFFFFFFFFFFFFFFFFFFFFFFFFFFFFFFFFFFFFF AND MUL OR SWAP1 SSTORE POP DUP3 PUSH1 0x2 DUP2 SWAP1 SSTORE POP DUP2 PUSH1 0x4 DUP2 SWAP1 SSTORE POP PUSH1 0x0 PUSH1 0x3 DUP2 SWAP1 SSTORE POP DUP1 PUSH1 0x7 DUP2 SWAP1 SSTORE POP POP POP POP PUSH3 0x14D JUMP JUMPDEST PUSH1 0x0 DUP1 REVERT JUMPDEST PUSH1 0x0 DUP2 SWAP1 POP SWAP2 SWAP1 POP JUMP JUMPDEST PUSH3 0xCB DUP2 PUSH3 0xB6 JUMP JUMPDEST DUP2 EQ PUSH3 0xD7 JUMPI PUSH1 0x0 DUP1 REVERT JUMPDEST POP JUMP JUMPDEST PUSH1 0x0 DUP2 MLOAD SWAP1 POP PUSH3 0xEB DUP2 PUSH3 0xC0 JUMP JUMPDEST SWAP3 SWAP2 POP POP JUMP JUMPDEST PUSH1 0x0 DUP1 PUSH1 0x0 PUSH1 0x60 DUP5 DUP7 SUB SLT ISZERO PUSH3 0x10D JUMPI PUSH3 0x10C PUSH3 0xB1 JUMP JUMPDEST JUMPDEST PUSH1 0x0 PUSH3 0x11D DUP7 DUP3 DUP8 ADD PUSH3 0xDA JUMP JUMPDEST SWAP4 POP POP PUSH1 0x20 PUSH3 0x130 DUP7 DUP3 DUP8 ADD PUSH3 0xDA JUMP JUMPDEST SWAP3 POP POP PUSH1 0x40 PUSH3 0x143 DUP7 DUP3 DUP8 ADD PUSH3 0xDA JUMP JUMPDEST SWAP2 POP POP SWAP3 POP SWAP3 POP SWAP3 JUMP JUMPDEST PUSH2 0x2408 DUP1 PUSH3 0x15D PUSH1 0x0 CODECOPY PUSH1 0x0 RETURN INVALID PUSH1 0x80 PUSH1 0x40 MSTORE CALLVALUE DUP1 ISZERO PUSH2 0x10 JUMPI PUSH1 0x0 DUP1 REVERT JUMPDEST POP PUSH1 0x4 CALLDATASIZE LT PUSH2 0x137 JUMPI PUSH1 0x0 CALLDATALOAD PUSH1 0xE0 SHR DUP1 PUSH4 0x90A9C2B3 GT PUSH2 0xB8 JUMPI DUP1 PUSH4 0xC62EFA37 GT PUSH2 0x7C JUMPI DUP1 PUSH4 0xC62EFA37 EQ PUSH2 0x35A JUMPI DUP1 PUSH4 0xD13816C7 EQ PUSH2 0x38A JUMPI DUP1 PUSH4 0xDE94F377 EQ PUSH2 0x3A6 JUMPI DUP1 PUSH4 0xEF629B16 EQ PUSH2 0x3D7 JUMPI DUP1 PUSH4 0xF12E1DD0 EQ PUSH2 0x407 JUMPI DUP1 PUSH4 0xF75A99C1 EQ PUSH2 0x425 JUMPI PUSH2 0x137 JUMP JUMPDEST DUP1 PUSH4 0x90A9C2B3 EQ PUSH2 0x2B2 JUMPI DUP1 PUSH4 0x950A8A54 EQ PUSH2 0x2CE JUMPI DUP1 PUSH4 0x9B1537C2 EQ PUSH2 0x2EC JUMPI DUP1 PUSH4 0xB7B3628E EQ PUSH2 0x31E JUMPI DUP1 PUSH4 0xBBED3C8D EQ PUSH2 0x33C JUMPI PUSH2 0x137 JUMP JUMPDEST DUP1 PUSH4 0x4C7D460F GT PUSH2 0xFF JUMPI DUP1 PUSH4 0x4C7D460F EQ PUSH2 0x1F6 JUMPI DUP1 PUSH4 0x57E4288A EQ PUSH2 0x226 JUMPI DUP1 PUSH4 0x71367AB8 EQ PUSH2 0x244 JUMPI DUP1 PUSH4 0x8A5CE1CF EQ PUSH2 0x262 JUMPI DUP1 PUSH4 0x8DA5CB5B EQ PUSH2 0x294 JUMPI PUSH2 0x137 JUMP JUMPDEST DUP1 PUSH4 0x8548F33 EQ PUSH2 0x13C JUMPI DUP1 PUSH4 0x1E94D974 EQ PUSH2 0x15A JUMPI DUP1 PUSH4 0x276A14A6 EQ PUSH2 0x178 JUMPI DUP1 PUSH4 0x338843CC EQ PUSH2 0x196 JUMPI DUP1 PUSH4 0x480DDC60 EQ PUSH2 0x1C6 JUMPI JUMPDEST PUSH1 0x0 DUP1 REVERT JUMPDEST PUSH2 0x144 PUSH2 0x441 JUMP JUMPDEST PUSH1 0x40 MLOAD PUSH2 0x151 SWAP2 SWAP1 PUSH2 0x165C JUMP JUMPDEST PUSH1 0x40 MLOAD DUP1 SWAP2 SUB SWAP1 RETURN JUMPDEST PUSH2 0x162 PUSH2 0x447 JUMP JUMPDEST PUSH1 0x40 MLOAD PUSH2 0x16F SWAP2 SWAP1 PUSH2 0x165C JUMP JUMPDEST PUSH1 0x40 MLOAD DUP1 SWAP2 SUB SWAP1 RETURN JUMPDEST PUSH2 0x180 PUSH2 0x44D JUMP JUMPDEST PUSH1 0x40 MLOAD PUSH2 0x18D SWAP2 SWAP1 PUSH2 0x165C JUMP JUMPDEST PUSH1 0x40 MLOAD DUP1 SWAP2 SUB SWAP1 RETURN JUMPDEST PUSH2 0x1B0 PUSH1 0x4 DUP1 CALLDATASIZE SUB DUP2 ADD SWAP1 PUSH2 0x1AB SWAP2 SWAP1 PUSH2 0x16C1 JUMP JUMPDEST PUSH2 0x457 JUMP JUMPDEST PUSH1 0x40 MLOAD PUSH2 0x1BD SWAP2 SWAP1 PUSH2 0x165C JUMP JUMPDEST PUSH1 0x40 MLOAD DUP1 SWAP2 SUB SWAP1 RETURN JUMPDEST PUSH2 0x1E0 PUSH1 0x4 DUP1 CALLDATASIZE SUB DUP2 ADD SWAP1 PUSH2 0x1DB SWAP2 SWAP1 PUSH2 0x171A JUMP JUMPDEST PUSH2 0x46F JUMP JUMPDEST PUSH1 0x40 MLOAD PUSH2 0x1ED SWAP2 SWAP1 PUSH2 0x165C JUMP JUMPDEST PUSH1 0x40 MLOAD DUP1 SWAP2 SUB SWAP1 RETURN JUMPDEST PUSH2 0x210 PUSH1 0x4 DUP1 CALLDATASIZE SUB DUP2 ADD SWAP1 PUSH2 0x20B SWAP2 SWAP1 PUSH2 0x188D JUMP JUMPDEST PUSH2 0x6FD JUMP JUMPDEST PUSH1 0x40 MLOAD PUSH2 0x21D SWAP2 SWAP1 PUSH2 0x165C JUMP JUMPDEST PUSH1 0x40 MLOAD DUP1 SWAP2 SUB SWAP1 RETURN JUMPDEST PUSH2 0x22E PUSH2 0x72B JUMP JUMPDEST PUSH1 0x40 MLOAD PUSH2 0x23B SWAP2 SWAP1 PUSH2 0x165C JUMP JUMPDEST PUSH1 0x40 MLOAD DUP1 SWAP2 SUB SWAP1 RETURN JUMPDEST PUSH2 0x24C PUSH2 0x731 JUMP JUMPDEST PUSH1 0x40 MLOAD PUSH2 0x259 SWAP2 SWAP1 PUSH2 0x165C JUMP JUMPDEST PUSH1 0x40 MLOAD DUP1 SWAP2 SUB SWAP1 RETURN JUMPDEST PUSH2 0x27C PUSH1 0x4 DUP1 CALLDATASIZE SUB DUP2 ADD SWAP1 PUSH2 0x277 SWAP2 SWAP1 PUSH2 0x171A JUMP JUMPDEST PUSH2 0x737 JUMP JUMPDEST PUSH1 0x40 MLOAD PUSH2 0x28B SWAP4 SWAP3 SWAP2 SWAP1 PUSH2 0x18F1 JUMP JUMPDEST PUSH1 0x40 MLOAD DUP1 SWAP2 SUB SWAP1 RETURN JUMPDEST PUSH2 0x29C PUSH2 0x76E JUMP JUMPDEST PUSH1 0x40 MLOAD PUSH2 0x2A9 SWAP2 SWAP1 PUSH2 0x1969 JUMP JUMPDEST PUSH1 0x40 MLOAD DUP1 SWAP2 SUB SWAP1 RETURN JUMPDEST PUSH2 0x2CC PUSH1 0x4 DUP1 CALLDATASIZE SUB DUP2 ADD SWAP1 PUSH2 0x2C7 SWAP2 SWAP1 PUSH2 0x1984 JUMP JUMPDEST PUSH2 0x794 JUMP JUMPDEST STOP JUMPDEST PUSH2 0x2D6 PUSH2 0x9C7 JUMP JUMPDEST PUSH1 0x40 MLOAD PUSH2 0x2E3 SWAP2 SWAP1 PUSH2 0x165C JUMP JUMPDEST PUSH1 0x40 MLOAD DUP1 SWAP2 SUB SWAP1 RETURN JUMPDEST PUSH2 0x306 PUSH1 0x4 DUP1 CALLDATASIZE SUB DUP2 ADD SWAP1 PUSH2 0x301 SWAP2 SWAP1 PUSH2 0x171A JUMP JUMPDEST PUSH2 0x9CD JUMP JUMPDEST PUSH1 0x40 MLOAD PUSH2 0x315 SWAP4 SWAP3 SWAP2 SWAP1 PUSH2 0x1A93 JUMP JUMPDEST PUSH1 0x40 MLOAD DUP1 SWAP2 SUB SWAP1 RETURN JUMPDEST PUSH2 0x326 PUSH2 0xA8C JUMP JUMPDEST PUSH1 0x40 MLOAD PUSH2 0x333 SWAP2 SWAP1 PUSH2 0x165C JUMP JUMPDEST PUSH1 0x40 MLOAD DUP1 SWAP2 SUB SWAP1 RETURN JUMPDEST PUSH2 0x344 PUSH2 0xB23 JUMP JUMPDEST PUSH1 0x40 MLOAD PUSH2 0x351 SWAP2 SWAP1 PUSH2 0x165C JUMP JUMPDEST PUSH1 0x40 MLOAD DUP1 SWAP2 SUB SWAP1 RETURN JUMPDEST PUSH2 0x374 PUSH1 0x4 DUP1 CALLDATASIZE SUB DUP2 ADD SWAP1 PUSH2 0x36F SWAP2 SWAP1 PUSH2 0x171A JUMP JUMPDEST PUSH2 0xBA0 JUMP JUMPDEST PUSH1 0x40 MLOAD PUSH2 0x381 SWAP2 SWAP1 PUSH2 0x1AD1 JUMP JUMPDEST PUSH1 0x40 MLOAD DUP1 SWAP2 SUB SWAP1 RETURN JUMPDEST PUSH2 0x3A4 PUSH1 0x4 DUP1 CALLDATASIZE SUB DUP2 ADD SWAP1 PUSH2 0x39F SWAP2 SWAP1 PUSH2 0x1AF3 JUMP JUMPDEST PUSH2 0xC40 JUMP JUMPDEST STOP JUMPDEST PUSH2 0x3C0 PUSH1 0x4 DUP1 CALLDATASIZE SUB DUP2 ADD SWAP1 PUSH2 0x3BB SWAP2 SWAP1 PUSH2 0x1984 JUMP JUMPDEST PUSH2 0x1038 JUMP JUMPDEST PUSH1 0x40 MLOAD PUSH2 0x3CE SWAP3 SWAP2 SWAP1 PUSH2 0x1B4F JUMP JUMPDEST PUSH1 0x40 MLOAD DUP1 SWAP2 SUB SWAP1 RETURN JUMPDEST PUSH2 0x3F1 PUSH1 0x4 DUP1 CALLDATASIZE SUB DUP2 ADD SWAP1 PUSH2 0x3EC SWAP2 SWAP1 PUSH2 0x188D JUMP JUMPDEST PUSH2 0x11C9 JUMP JUMPDEST PUSH1 0x40 MLOAD PUSH2 0x3FE SWAP2 SWAP1 PUSH2 0x165C JUMP JUMPDEST PUSH1 0x40 MLOAD DUP1 SWAP2 SUB SWAP1 RETURN JUMPDEST PUSH2 0x40F PUSH2 0x11F7 JUMP JUMPDEST PUSH1 0x40 MLOAD PUSH2 0x41C SWAP2 SWAP1 PUSH2 0x165C JUMP JUMPDEST PUSH1 0x40 MLOAD DUP1 SWAP2 SUB SWAP1 RETURN JUMPDEST PUSH2 0x43F PUSH1 0x4 DUP1 CALLDATASIZE SUB DUP2 ADD SWAP1 PUSH2 0x43A SWAP2 SWAP1 PUSH2 0x171A JUMP JUMPDEST PUSH2 0x11FD JUMP JUMPDEST STOP JUMPDEST PUSH1 0x3 SLOAD DUP2 JUMP JUMPDEST PUSH1 0x4 SLOAD DUP2 JUMP JUMPDEST PUSH1 0x0 PUSH1 0x7 SLOAD SWAP1 POP SWAP1 JUMP JUMPDEST PUSH1 0xA PUSH1 0x20 MSTORE DUP1 PUSH1 0x0 MSTORE PUSH1 0x40 PUSH1 0x0 KECCAK256 PUSH1 0x0 SWAP2 POP SWAP1 POP SLOAD DUP2 JUMP JUMPDEST PUSH1 0x0 PUSH1 0x1 PUSH1 0x0 SWAP1 SLOAD SWAP1 PUSH2 0x100 EXP SWAP1 DIV PUSH20 0xFFFFFFFFFFFFFFFFFFFFFFFFFFFFFFFFFFFFFFFF AND PUSH20 0xFFFFFFFFFFFFFFFFFFFFFFFFFFFFFFFFFFFFFFFF AND CALLER PUSH20 0xFFFFFFFFFFFFFFFFFFFFFFFFFFFFFFFFFFFFFFFF AND EQ PUSH2 0x501 JUMPI PUSH1 0x40 MLOAD PUSH32 0x8C379A000000000000000000000000000000000000000000000000000000000 DUP2 MSTORE PUSH1 0x4 ADD PUSH2 0x4F8 SWAP1 PUSH2 0x1BF1 JUMP JUMPDEST PUSH1 0x40 MLOAD DUP1 SWAP2 SUB SWAP1 REVERT JUMPDEST PUSH2 0x509 PUSH2 0x135F JUMP JUMPDEST PUSH1 0x0 DUP1 PUSH1 0x1 SWAP1 POP JUMPDEST PUSH1 0x6 SLOAD DUP2 LT ISZERO PUSH2 0x57C JUMPI PUSH1 0x8 PUSH1 0x0 DUP3 DUP2 MSTORE PUSH1 0x20 ADD SWAP1 DUP2 MSTORE PUSH1 0x20 ADD PUSH1 0x0 KECCAK256 PUSH1 0x2 ADD PUSH1 0x0 SWAP1 SLOAD SWAP1 PUSH2 0x100 EXP SWAP1 DIV PUSH1 0xFF AND ISZERO PUSH2 0x569 JUMPI PUSH1 0x8 PUSH1 0x0 DUP3 DUP2 MSTORE PUSH1 0x20 ADD SWAP1 DUP2 MSTORE PUSH1 0x20 ADD PUSH1 0x0 KECCAK256 PUSH1 0x0 ADD SLOAD DUP3 PUSH2 0x566 SWAP2 SWAP1 PUSH2 0x1C40 JUMP JUMPDEST SWAP2 POP JUMPDEST DUP1 DUP1 PUSH2 0x574 SWAP1 PUSH2 0x1C96 JUMP JUMPDEST SWAP2 POP POP PUSH2 0x511 JUMP JUMPDEST POP PUSH1 0x2 SLOAD DUP4 DUP3 PUSH1 0x3 SLOAD PUSH2 0x58F SWAP2 SWAP1 PUSH2 0x1C40 JUMP JUMPDEST PUSH2 0x599 SWAP2 SWAP1 PUSH2 0x1C40 JUMP JUMPDEST GT ISZERO PUSH2 0x5DA JUMPI PUSH1 0x40 MLOAD PUSH32 0x8C379A000000000000000000000000000000000000000000000000000000000 DUP2 MSTORE PUSH1 0x4 ADD PUSH2 0x5D1 SWAP1 PUSH2 0x1D2B JUMP JUMPDEST PUSH1 0x40 MLOAD DUP1 SWAP2 SUB SWAP1 REVERT JUMPDEST PUSH1 0x4 SLOAD DUP4 GT ISZERO PUSH2 0x61F JUMPI PUSH1 0x40 MLOAD PUSH32 0x8C379A000000000000000000000000000000000000000000000000000000000 DUP2 MSTORE PUSH1 0x4 ADD PUSH2 0x616 SWAP1 PUSH2 0x1DBD JUMP JUMPDEST PUSH1 0x40 MLOAD DUP1 SWAP2 SUB SWAP1 REVERT JUMPDEST PUSH1 0x0 PUSH1 0x6 SLOAD SWAP1 POP PUSH1 0x40 MLOAD DUP1 PUSH1 0x60 ADD PUSH1 0x40 MSTORE DUP1 DUP6 DUP2 MSTORE PUSH1 0x20 ADD PUSH1 0x5 SLOAD TIMESTAMP PUSH2 0x645 SWAP2 SWAP1 PUSH2 0x1C40 JUMP JUMPDEST DUP2 MSTORE PUSH1 0x20 ADD PUSH1 0x1 ISZERO ISZERO DUP2 MSTORE POP PUSH1 0x8 PUSH1 0x0 DUP4 DUP2 MSTORE PUSH1 0x20 ADD SWAP1 DUP2 MSTORE PUSH1 0x20 ADD PUSH1 0x0 KECCAK256 PUSH1 0x0 DUP3 ADD MLOAD DUP2 PUSH1 0x0 ADD SSTORE PUSH1 0x20 DUP3 ADD MLOAD DUP2 PUSH1 0x1 ADD SSTORE PUSH1 0x40 DUP3 ADD MLOAD DUP2 PUSH1 0x2 ADD PUSH1 0x0 PUSH2 0x100 EXP DUP2 SLOAD DUP2 PUSH1 0xFF MUL NOT AND SWAP1 DUP4 ISZERO ISZERO MUL OR SWAP1 SSTORE POP SWAP1 POP POP PUSH1 0x6 PUSH1 0x0 DUP2 SLOAD DUP1 SWAP3 SWAP2 SWAP1 PUSH2 0x6AE SWAP1 PUSH2 0x1C96 JUMP JUMPDEST SWAP2 SWAP1 POP SSTORE POP DUP1 PUSH32 0x73B3D756F661440487A04655643E144E5101BEC14C7CA31DF8EDECE74AD7066 DUP6 PUSH1 0x40 MLOAD PUSH2 0x6E3 SWAP2 SWAP1 PUSH2 0x165C JUMP JUMPDEST PUSH1 0x40 MLOAD DUP1 SWAP2 SUB SWAP1 LOG2 DUP1 SWAP3 POP POP POP PUSH2 0x6F8 PUSH2 0x13AF JUMP JUMPDEST SWAP2 SWAP1 POP JUMP JUMPDEST PUSH1 0xB DUP2 DUP1 MLOAD PUSH1 0x20 DUP2 ADD DUP3 ADD DUP1 MLOAD DUP5 DUP3 MSTORE PUSH1 0x20 DUP4 ADD PUSH1 0x20 DUP6 ADD KECCAK256 DUP2 DUP4 MSTORE DUP1 SWAP6 POP POP POP POP POP POP PUSH1 0x0 SWAP2 POP SWAP1 POP SLOAD DUP2 JUMP JUMPDEST PUSH1 0x5 SLOAD DUP2 JUMP JUMPDEST PUSH1 0x2 SLOAD DUP2 JUMP JUMPDEST PUSH1 0x8 PUSH1 0x20 MSTORE DUP1 PUSH1 0x0 MSTORE PUSH1 0x40 PUSH1 0x0 KECCAK256 PUSH1 0x0 SWAP2 POP SWAP1 POP DUP1 PUSH1 0x0 ADD SLOAD SWAP1 DUP1 PUSH1 0x1 ADD SLOAD SWAP1 DUP1 PUSH1 0x2 ADD PUSH1 0x0 SWAP1 SLOAD SWAP1 PUSH2 0x100 EXP SWAP1 DIV PUSH1 0xFF AND SWAP1 POP DUP4 JUMP JUMPDEST PUSH1 0x1 PUSH1 0x0 SWAP1 SLOAD SWAP1 PUSH2 0x100 EXP SWAP1 DIV PUSH20 0xFFFFFFFFFFFFFFFFFFFFFFFFFFFFFFFFFFFFFFFF AND DUP2 JUMP JUMPDEST PUSH1 0x1 PUSH1 0x0 SWAP1 SLOAD SWAP1 PUSH2 0x100 EXP SWAP1 DIV PUSH20 0xFFFFFFFFFFFFFFFFFFFFFFFFFFFFFFFFFFFFFFFF AND PUSH20 0xFFFFFFFFFFFFFFFFFFFFFFFFFFFFFFFFFFFFFFFF AND CALLER PUSH20 0xFFFFFFFFFFFFFFFFFFFFFFFFFFFFFFFFFFFFFFFF AND EQ PUSH2 0x824 JUMPI PUSH1 0x40 MLOAD PUSH32 0x8C379A000000000000000000000000000000000000000000000000000000000 DUP2 MSTORE PUSH1 0x4 ADD PUSH2 0x81B SWAP1 PUSH2 0x1BF1 JUMP JUMPDEST PUSH1 0x40 MLOAD DUP1 SWAP2 SUB SWAP1 REVERT JUMPDEST PUSH2 0x82C PUSH2 0x135F JUMP JUMPDEST PUSH1 0x0 PUSH1 0xB DUP4 PUSH1 0x40 MLOAD PUSH2 0x83E SWAP2 SWAP1 PUSH2 0x1E19 JUMP JUMPDEST SWAP1 DUP2 MSTORE PUSH1 0x20 ADD PUSH1 0x40 MLOAD DUP1 SWAP2 SUB SWAP1 KECCAK256 SLOAD SWAP1 POP PUSH1 0x0 DUP2 EQ ISZERO PUSH2 0x893 JUMPI PUSH1 0x40 MLOAD PUSH32 0x8C379A000000000000000000000000000000000000000000000000000000000 DUP2 MSTORE PUSH1 0x4 ADD PUSH2 0x88A SWAP1 PUSH2 0x1E7C JUMP JUMPDEST PUSH1 0x40 MLOAD DUP1 SWAP2 SUB SWAP1 REVERT JUMPDEST PUSH1 0xC PUSH1 0x0 DUP3 DUP2 MSTORE PUSH1 0x20 ADD SWAP1 DUP2 MSTORE PUSH1 0x20 ADD PUSH1 0x0 KECCAK256 PUSH1 0x2 ADD PUSH1 0x0 SWAP1 SLOAD SWAP1 PUSH2 0x100 EXP SWAP1 DIV PUSH1 0xFF AND ISZERO PUSH2 0x8F7 JUMPI PUSH1 0x40 MLOAD PUSH32 0x8C379A000000000000000000000000000000000000000000000000000000000 DUP2 MSTORE PUSH1 0x4 ADD PUSH2 0x8EE SWAP1 PUSH2 0x1EE8 JUMP JUMPDEST PUSH1 0x40 MLOAD DUP1 SWAP2 SUB SWAP1 REVERT JUMPDEST PUSH1 0x0 PUSH2 0x902 DUP4 PUSH2 0x13B9 JUMP JUMPDEST SWAP1 POP DUP1 PUSH1 0xC PUSH1 0x0 DUP5 DUP2 MSTORE PUSH1 0x20 ADD SWAP1 DUP2 MSTORE PUSH1 0x20 ADD PUSH1 0x0 KECCAK256 PUSH1 0x0 ADD SLOAD EQ PUSH2 0x95C JUMPI PUSH1 0x40 MLOAD PUSH32 0x8C379A000000000000000000000000000000000000000000000000000000000 DUP2 MSTORE PUSH1 0x4 ADD PUSH2 0x953 SWAP1 PUSH2 0x1F54 JUMP JUMPDEST PUSH1 0x40 MLOAD DUP1 SWAP2 SUB SWAP1 REVERT JUMPDEST PUSH1 0x1 PUSH1 0xC PUSH1 0x0 DUP5 DUP2 MSTORE PUSH1 0x20 ADD SWAP1 DUP2 MSTORE PUSH1 0x20 ADD PUSH1 0x0 KECCAK256 PUSH1 0x2 ADD PUSH1 0x0 PUSH2 0x100 EXP DUP2 SLOAD DUP2 PUSH1 0xFF MUL NOT AND SWAP1 DUP4 ISZERO ISZERO MUL OR SWAP1 SSTORE POP DUP1 DUP3 PUSH32 0x887B4A70143C4159CADECCEBE8D1A3E975C797BD496DCC83AF0BD96258E527BD PUSH1 0x40 MLOAD PUSH1 0x40 MLOAD DUP1 SWAP2 SUB SWAP1 LOG3 POP POP PUSH2 0x9C3 PUSH2 0x13AF JUMP JUMPDEST POP POP JUMP JUMPDEST PUSH1 0x7 SLOAD DUP2 JUMP JUMPDEST PUSH1 0xC PUSH1 0x20 MSTORE DUP1 PUSH1 0x0 MSTORE PUSH1 0x40 PUSH1 0x0 KECCAK256 PUSH1 0x0 SWAP2 POP SWAP1 POP DUP1 PUSH1 0x0 ADD SLOAD SWAP1 DUP1 PUSH1 0x1 ADD DUP1 SLOAD PUSH2 0x9F6 SWAP1 PUSH2 0x1FA3 JUMP JUMPDEST DUP1 PUSH1 0x1F ADD PUSH1 0x20 DUP1 SWAP2 DIV MUL PUSH1 0x20 ADD PUSH1 0x40 MLOAD SWAP1 DUP2 ADD PUSH1 0x40 MSTORE DUP1 SWAP3 SWAP2 SWAP1 DUP2 DUP2 MSTORE PUSH1 0x20 ADD DUP3 DUP1 SLOAD PUSH2 0xA22 SWAP1 PUSH2 0x1FA3 JUMP JUMPDEST DUP1 ISZERO PUSH2 0xA6F JUMPI DUP1 PUSH1 0x1F LT PUSH2 0xA44 JUMPI PUSH2 0x100 DUP1 DUP4 SLOAD DIV MUL DUP4 MSTORE SWAP2 PUSH1 0x20 ADD SWAP2 PUSH2 0xA6F JUMP JUMPDEST DUP3 ADD SWAP2 SWAP1 PUSH1 0x0 MSTORE PUSH1 0x20 PUSH1 0x0 KECCAK256 SWAP1 JUMPDEST DUP2 SLOAD DUP2 MSTORE SWAP1 PUSH1 0x1 ADD SWAP1 PUSH1 0x20 ADD DUP1 DUP4 GT PUSH2 0xA52 JUMPI DUP3 SWAP1 SUB PUSH1 0x1F AND DUP3 ADD SWAP2 JUMPDEST POP POP POP POP POP SWAP1 DUP1 PUSH1 0x2 ADD PUSH1 0x0 SWAP1 SLOAD SWAP1 PUSH2 0x100 EXP SWAP1 DIV PUSH1 0xFF AND SWAP1 POP DUP4 JUMP JUMPDEST PUSH1 0x0 DUP1 PUSH1 0x0 PUSH1 0x1 SWAP1 POP JUMPDEST PUSH1 0x6 SLOAD DUP2 LT ISZERO PUSH2 0xB01 JUMPI PUSH1 0x8 PUSH1 0x0 DUP3 DUP2 MSTORE PUSH1 0x20 ADD SWAP1 DUP2 MSTORE PUSH1 0x20 ADD PUSH1 0x0 KECCAK256 PUSH1 0x2 ADD PUSH1 0x0 SWAP1 SLOAD SWAP1 PUSH2 0x100 EXP SWAP1 DIV PUSH1 0xFF AND ISZERO PUSH2 0xAEE JUMPI PUSH1 0x8 PUSH1 0x0 DUP3 DUP2 MSTORE PUSH1 0x20 ADD SWAP1 DUP2 MSTORE PUSH1 0x20 ADD PUSH1 0x0 KECCAK256 PUSH1 0x0 ADD SLOAD DUP3 PUSH2 0xAEB SWAP2 SWAP1 PUSH2 0x1C40 JUMP JUMPDEST SWAP2 POP JUMPDEST DUP1 DUP1 PUSH2 0xAF9 SWAP1 PUSH2 0x1C96 JUMP JUMPDEST SWAP2 POP POP PUSH2 0xA96 JUMP JUMPDEST POP DUP1 PUSH1 0x3 SLOAD PUSH1 0x2 SLOAD PUSH2 0xB13 SWAP2 SWAP1 PUSH2 0x1FD5 JUMP JUMPDEST PUSH2 0xB1D SWAP2 SWAP1 PUSH2 0x1FD5 JUMP JUMPDEST SWAP2 POP POP SWAP1 JUMP JUMPDEST PUSH1 0x0 DUP1 PUSH1 0x0 PUSH1 0x1 SWAP1 POP JUMPDEST PUSH1 0x6 SLOAD DUP2 LT ISZERO PUSH2 0xB98 JUMPI PUSH1 0x8 PUSH1 0x0 DUP3 DUP2 MSTORE PUSH1 0x20 ADD SWAP1 DUP2 MSTORE PUSH1 0x20 ADD PUSH1 0x0 KECCAK256 PUSH1 0x2 ADD PUSH1 0x0 SWAP1 SLOAD SWAP1 PUSH2 0x100 EXP SWAP1 DIV PUSH1 0xFF AND ISZERO PUSH2 0xB85 JUMPI PUSH1 0x8 PUSH1 0x0 DUP3 DUP2 MSTORE PUSH1 0x20 ADD SWAP1 DUP2 MSTORE PUSH1 0x20 ADD PUSH1 0x0 KECCAK256 PUSH1 0x0 ADD SLOAD DUP3 PUSH2 0xB82 SWAP2 SWAP1 PUSH2 0x1C40 JUMP JUMPDEST SWAP2 POP JUMPDEST DUP1 DUP1 PUSH2 0xB90 SWAP1 PUSH2 0x1C96 JUMP JUMPDEST SWAP2 POP POP PUSH2 0xB2D JUMP JUMPDEST POP DUP1 SWAP2 POP POP SWAP1 JUMP JUMPDEST PUSH1 0x9 PUSH1 0x20 MSTORE DUP1 PUSH1 0x0 MSTORE PUSH1 0x40 PUSH1 0x0 KECCAK256 PUSH1 0x0 SWAP2 POP SWAP1 POP DUP1 SLOAD PUSH2 0xBBF SWAP1 PUSH2 0x1FA3 JUMP JUMPDEST DUP1 PUSH1 0x1F ADD PUSH1 0x20 DUP1 SWAP2 DIV MUL PUSH1 0x20 ADD PUSH1 0x40 MLOAD SWAP1 DUP2 ADD PUSH1 0x40 MSTORE DUP1 SWAP3 SWAP2 SWAP1 DUP2 DUP2 MSTORE PUSH1 0x20 ADD DUP3 DUP1 SLOAD PUSH2 0xBEB SWAP1 PUSH2 0x1FA3 JUMP JUMPDEST DUP1 ISZERO PUSH2 0xC38 JUMPI DUP1 PUSH1 0x1F LT PUSH2 0xC0D JUMPI PUSH2 0x100 DUP1 DUP4 SLOAD DIV MUL DUP4 MSTORE SWAP2 PUSH1 0x20 ADD SWAP2 PUSH2 0xC38 JUMP JUMPDEST DUP3 ADD SWAP2 SWAP1 PUSH1 0x0 MSTORE PUSH1 0x20 PUSH1 0x0 KECCAK256 SWAP1 JUMPDEST DUP2 SLOAD DUP2 MSTORE SWAP1 PUSH1 0x1 ADD SWAP1 PUSH1 0x20 ADD DUP1 DUP4 GT PUSH2 0xC1B JUMPI DUP3 SWAP1 SUB PUSH1 0x1F AND DUP3 ADD SWAP2 JUMPDEST POP POP POP POP POP DUP2 JUMP JUMPDEST PUSH1 0x1 PUSH1 0x0 SWAP1 SLOAD SWAP1 PUSH2 0x100 EXP SWAP1 DIV PUSH20 0xFFFFFFFFFFFFFFFFFFFFFFFFFFFFFFFFFFFFFFFF AND PUSH20 0xFFFFFFFFFFFFFFFFFFFFFFFFFFFFFFFFFFFFFFFF AND CALLER PUSH20 0xFFFFFFFFFFFFFFFFFFFFFFFFFFFFFFFFFFFFFFFF AND EQ PUSH2 0xCD0 JUMPI PUSH1 0x40 MLOAD PUSH32 0x8C379A000000000000000000000000000000000000000000000000000000000 DUP2 MSTORE PUSH1 0x4 ADD PUSH2 0xCC7 SWAP1 PUSH2 0x1BF1 JUMP JUMPDEST PUSH1 0x40 MLOAD DUP1 SWAP2 SUB SWAP1 REVERT JUMPDEST PUSH2 0xCD8 PUSH2 0x135F JUMP JUMPDEST PUSH1 0x10 DUP2 MLOAD EQ PUSH2 0xD1C JUMPI PUSH1 0x40 MLOAD PUSH32 0x8C379A000000000000000000000000000000000000000000000000000000000 DUP2 MSTORE PUSH1 0x4 ADD PUSH2 0xD13 SWAP1 PUSH2 0x2055 JUMP JUMPDEST PUSH1 0x40 MLOAD DUP1 SWAP2 SUB SWAP1 REVERT JUMPDEST PUSH1 0x8 PUSH1 0x0 DUP4 DUP2 MSTORE PUSH1 0x20 ADD SWAP1 DUP2 MSTORE PUSH1 0x20 ADD PUSH1 0x0 KECCAK256 PUSH1 0x2 ADD PUSH1 0x0 SWAP1 SLOAD SWAP1 PUSH2 0x100 EXP SWAP1 DIV PUSH1 0xFF AND PUSH2 0xD7F JUMPI PUSH1 0x40 MLOAD PUSH32 0x8C379A000000000000000000000000000000000000000000000000000000000 DUP2 MSTORE PUSH1 0x4 ADD PUSH2 0xD76 SWAP1 PUSH2 0x20E7 JUMP JUMPDEST PUSH1 0x40 MLOAD DUP1 SWAP2 SUB SWAP1 REVERT JUMPDEST PUSH1 0x0 PUSH2 0xD8A DUP3 PUSH2 0x13B9 JUMP JUMPDEST SWAP1 POP PUSH1 0x0 PUSH1 0xA PUSH1 0x0 DUP4 DUP2 MSTORE PUSH1 0x20 ADD SWAP1 DUP2 MSTORE PUSH1 0x20 ADD PUSH1 0x0 KECCAK256 SLOAD EQ PUSH2 0xDE2 JUMPI PUSH1 0x40 MLOAD PUSH32 0x8C379A000000000000000000000000000000000000000000000000000000000 DUP2 MSTORE PUSH1 0x4 ADD PUSH2 0xDD9 SWAP1 PUSH2 0x2179 JUMP JUMPDEST PUSH1 0x40 MLOAD DUP1 SWAP2 SUB SWAP1 REVERT JUMPDEST PUSH1 0x8 PUSH1 0x0 DUP5 DUP2 MSTORE PUSH1 0x20 ADD SWAP1 DUP2 MSTORE PUSH1 0x20 ADD PUSH1 0x0 KECCAK256 PUSH1 0x1 ADD SLOAD TIMESTAMP GT ISZERO PUSH2 0xE97 JUMPI PUSH1 0x0 PUSH1 0x8 PUSH1 0x0 DUP6 DUP2 MSTORE PUSH1 0x20 ADD SWAP1 DUP2 MSTORE PUSH1 0x20 ADD PUSH1 0x0 KECCAK256 PUSH1 0x2 ADD PUSH1 0x0 PUSH2 0x100 EXP DUP2 SLOAD DUP2 PUSH1 0xFF MUL NOT AND SWAP1 DUP4 ISZERO ISZERO MUL OR SWAP1 SSTORE POP DUP3 PUSH32 0x75B500E641878A21886FC52000B2750AE82D6A6866C48B29BCCB1848D742C3CA PUSH1 0x40 MLOAD PUSH1 0x40 MLOAD DUP1 SWAP2 SUB SWAP1 LOG2 PUSH1 0x40 MLOAD PUSH32 0x8C379A000000000000000000000000000000000000000000000000000000000 DUP2 MSTORE PUSH1 0x4 ADD PUSH2 0xE8E SWAP1 PUSH2 0x220B JUMP JUMPDEST PUSH1 0x40 MLOAD DUP1 SWAP2 SUB SWAP1 REVERT JUMPDEST PUSH1 0x0 PUSH1 0x8 PUSH1 0x0 DUP6 DUP2 MSTORE PUSH1 0x20 ADD SWAP1 DUP2 MSTORE PUSH1 0x20 ADD PUSH1 0x0 KECCAK256 PUSH1 0x0 ADD SLOAD SWAP1 POP DUP1 PUSH1 0xA PUSH1 0x0 DUP5 DUP2 MSTORE PUSH1 0x20 ADD SWAP1 DUP2 MSTORE PUSH1 0x20 ADD PUSH1 0x0 KECCAK256 DUP2 SWAP1 SSTORE POP PUSH1 0x0 JUMPDEST DUP2 DUP2 LT ISZERO PUSH2 0xFFA JUMPI PUSH1 0x0 PUSH1 0x1 PUSH1 0x3 SLOAD PUSH2 0xEE6 SWAP2 SWAP1 PUSH2 0x1C40 JUMP JUMPDEST SWAP1 POP PUSH1 0x0 PUSH2 0xEF4 DUP3 DUP8 PUSH2 0x13E9 JUMP JUMPDEST SWAP1 POP PUSH1 0x40 MLOAD DUP1 PUSH1 0x60 ADD PUSH1 0x40 MSTORE DUP1 DUP7 DUP2 MSTORE PUSH1 0x20 ADD DUP3 DUP2 MSTORE PUSH1 0x20 ADD PUSH1 0x0 ISZERO ISZERO DUP2 MSTORE POP PUSH1 0xC PUSH1 0x0 DUP5 DUP2 MSTORE PUSH1 0x20 ADD SWAP1 DUP2 MSTORE PUSH1 0x20 ADD PUSH1 0x0 KECCAK256 PUSH1 0x0 DUP3 ADD MLOAD DUP2 PUSH1 0x0 ADD SSTORE PUSH1 0x20 DUP3 ADD MLOAD DUP2 PUSH1 0x1 ADD SWAP1 DUP1 MLOAD SWAP1 PUSH1 0x20 ADD SWAP1 PUSH2 0xF4D SWAP3 SWAP2 SWAP1 PUSH2 0x15A0 JUMP JUMPDEST POP PUSH1 0x40 DUP3 ADD MLOAD DUP2 PUSH1 0x2 ADD PUSH1 0x0 PUSH2 0x100 EXP DUP2 SLOAD DUP2 PUSH1 0xFF MUL NOT AND SWAP1 DUP4 ISZERO ISZERO MUL OR SWAP1 SSTORE POP SWAP1 POP POP DUP2 PUSH1 0xB DUP3 PUSH1 0x40 MLOAD PUSH2 0xF82 SWAP2 SWAP1 PUSH2 0x1E19 JUMP JUMPDEST SWAP1 DUP2 MSTORE PUSH1 0x20 ADD PUSH1 0x40 MLOAD DUP1 SWAP2 SUB SWAP1 KECCAK256 DUP2 SWAP1 SSTORE POP PUSH1 0x3 PUSH1 0x0 DUP2 SLOAD DUP1 SWAP3 SWAP2 SWAP1 PUSH2 0xFA7 SWAP1 PUSH2 0x1C96 JUMP JUMPDEST SWAP2 SWAP1 POP SSTORE POP DUP5 DUP3 PUSH32 0xFCACDE2872C0256E989158662A881413445B12A912C04F5C50D78B40250804FB DUP4 PUSH1 0x40 MLOAD PUSH2 0xFDD SWAP2 SWAP1 PUSH2 0x1AD1 JUMP JUMPDEST PUSH1 0x40 MLOAD DUP1 SWAP2 SUB SWAP1 LOG3 POP POP DUP1 DUP1 PUSH2 0xFF2 SWAP1 PUSH2 0x1C96 JUMP JUMPDEST SWAP2 POP POP PUSH2 0xECD JUMP JUMPDEST POP PUSH1 0x0 PUSH1 0x8 PUSH1 0x0 DUP7 DUP2 MSTORE PUSH1 0x20 ADD SWAP1 DUP2 MSTORE PUSH1 0x20 ADD PUSH1 0x0 KECCAK256 PUSH1 0x2 ADD PUSH1 0x0 PUSH2 0x100 EXP DUP2 SLOAD DUP2 PUSH1 0xFF MUL NOT AND SWAP1 DUP4 ISZERO ISZERO MUL OR SWAP1 SSTORE POP POP POP PUSH2 0x1034 PUSH2 0x13AF JUMP JUMPDEST POP POP JUMP JUMPDEST PUSH1 0x0 PUSH1 0x60 PUSH1 0x0 PUSH1 0xB DUP6 PUSH1 0x40 MLOAD PUSH2 0x104E SWAP2 SWAP1 PUSH2 0x1E19 JUMP JUMPDEST SWAP1 DUP2 MSTORE PUSH1 0x20 ADD PUSH1 0x40 MLOAD DUP1 SWAP2 SUB SWAP1 KECCAK256 SLOAD SWAP1 POP PUSH1 0x0 DUP2 EQ ISZERO PUSH2 0x10AA JUMPI PUSH1 0x0 PUSH1 0x40 MLOAD DUP1 PUSH1 0x40 ADD PUSH1 0x40 MSTORE DUP1 PUSH1 0x15 DUP2 MSTORE PUSH1 0x20 ADD PUSH32 0x54696B657420746964616B20646974656D756B616E0000000000000000000000 DUP2 MSTORE POP SWAP3 POP SWAP3 POP POP PUSH2 0x11C2 JUMP JUMPDEST PUSH1 0x0 PUSH2 0x10B5 DUP6 PUSH2 0x13B9 JUMP JUMPDEST SWAP1 POP DUP1 PUSH1 0xC PUSH1 0x0 DUP5 DUP2 MSTORE PUSH1 0x20 ADD SWAP1 DUP2 MSTORE PUSH1 0x20 ADD PUSH1 0x0 KECCAK256 PUSH1 0x0 ADD SLOAD EQ ISZERO PUSH2 0x1183 JUMPI PUSH1 0xC PUSH1 0x0 DUP4 DUP2 MSTORE PUSH1 0x20 ADD SWAP1 DUP2 MSTORE PUSH1 0x20 ADD PUSH1 0x0 KECCAK256 PUSH1 0x2 ADD PUSH1 0x0 SWAP1 SLOAD SWAP1 PUSH2 0x100 EXP SWAP1 DIV PUSH1 0xFF AND PUSH2 0x1140 JUMPI PUSH1 0x1 PUSH1 0x40 MLOAD DUP1 PUSH1 0x40 ADD PUSH1 0x40 MSTORE DUP1 PUSH1 0x1F DUP2 MSTORE PUSH1 0x20 ADD PUSH32 0x54696B65742076616C69642064616E2062656C756D20646967756E616B616E00 DUP2 MSTORE POP SWAP4 POP SWAP4 POP POP POP PUSH2 0x11C2 JUMP JUMPDEST PUSH1 0x0 PUSH1 0x40 MLOAD DUP1 PUSH1 0x40 ADD PUSH1 0x40 MSTORE DUP1 PUSH1 0x1F DUP2 MSTORE PUSH1 0x20 ADD PUSH32 0x54696B65742076616C69642064616E20737564616820646967756E616B616E00 DUP2 MSTORE POP SWAP4 POP SWAP4 POP POP POP PUSH2 0x11C2 JUMP JUMPDEST PUSH1 0x0 PUSH1 0x40 MLOAD DUP1 PUSH1 0x40 ADD PUSH1 0x40 MSTORE DUP1 PUSH1 0x11 DUP2 MSTORE PUSH1 0x20 ADD PUSH32 0x54696B657420746964616B2076616C6964000000000000000000000000000000 DUP2 MSTORE POP SWAP4 POP SWAP4 POP POP POP JUMPDEST SWAP3 POP SWAP3 SWAP1 POP JUMP JUMPDEST PUSH1 0xD DUP2 DUP1 MLOAD PUSH1 0x20 DUP2 ADD DUP3 ADD DUP1 MLOAD DUP5 DUP3 MSTORE PUSH1 0x20 DUP4 ADD PUSH1 0x20 DUP6 ADD KECCAK256 DUP2 DUP4 MSTORE DUP1 SWAP6 POP POP POP POP POP POP PUSH1 0x0 SWAP2 POP SWAP1 POP SLOAD DUP2 JUMP JUMPDEST PUSH1 0x6 SLOAD DUP2 JUMP JUMPDEST PUSH1 0x1 PUSH1 0x0 SWAP1 SLOAD SWAP1 PUSH2 0x100 EXP SWAP1 DIV PUSH20 0xFFFFFFFFFFFFFFFFFFFFFFFFFFFFFFFFFFFFFFFF AND PUSH20 0xFFFFFFFFFFFFFFFFFFFFFFFFFFFFFFFFFFFFFFFF AND CALLER PUSH20 0xFFFFFFFFFFFFFFFFFFFFFFFFFFFFFFFFFFFFFFFF AND EQ PUSH2 0x128D JUMPI PUSH1 0x40 MLOAD PUSH32 0x8C379A000000000000000000000000000000000000000000000000000000000 DUP2 MSTORE PUSH1 0x4 ADD PUSH2 0x1284 SWAP1 PUSH2 0x1BF1 JUMP JUMPDEST PUSH1 0x40 MLOAD DUP1 SWAP2 SUB SWAP1 REVERT JUMPDEST PUSH2 0x1295 PUSH2 0x135F JUMP JUMPDEST PUSH1 0x8 PUSH1 0x0 DUP3 DUP2 MSTORE PUSH1 0x20 ADD SWAP1 DUP2 MSTORE PUSH1 0x20 ADD PUSH1 0x0 KECCAK256 PUSH1 0x2 ADD PUSH1 0x0 SWAP1 SLOAD SWAP1 PUSH2 0x100 EXP SWAP1 DIV PUSH1 0xFF AND PUSH2 0x12F8 JUMPI PUSH1 0x40 MLOAD PUSH32 0x8C379A000000000000000000000000000000000000000000000000000000000 DUP2 MSTORE PUSH1 0x4 ADD PUSH2 0x12EF SWAP1 PUSH2 0x20E7 JUMP JUMPDEST PUSH1 0x40 MLOAD DUP1 SWAP2 SUB SWAP1 REVERT JUMPDEST PUSH1 0x0 PUSH1 0x8 PUSH1 0x0 DUP4 DUP2 MSTORE PUSH1 0x20 ADD SWAP1 DUP2 MSTORE PUSH1 0x20 ADD PUSH1 0x0 KECCAK256 PUSH1 0x2 ADD PUSH1 0x0 PUSH2 0x100 EXP DUP2 SLOAD DUP2 PUSH1 0xFF MUL NOT AND SWAP1 DUP4 ISZERO ISZERO MUL OR SWAP1 SSTORE POP DUP1 PUSH32 0x75B500E641878A21886FC52000B2750AE82D6A6866C48B29BCCB1848D742C3CA PUSH1 0x40 MLOAD PUSH1 0x40 MLOAD DUP1 SWAP2 SUB SWAP1 LOG2 PUSH2 0x135C PUSH2 0x13AF JUMP JUMPDEST POP JUMP JUMPDEST PUSH1 0x2 PUSH1 0x0 SLOAD EQ ISZERO PUSH2 0x13A5 JUMPI PUSH1 0x40 MLOAD PUSH32 0x8C379A000000000000000000000000000000000000000000000000000000000 DUP2 MSTORE PUSH1 0x4 ADD PUSH2 0x139C SWAP1 PUSH2 0x2277 JUMP JUMPDEST PUSH1 0x40 MLOAD DUP1 SWAP2 SUB SWAP1 REVERT JUMPDEST PUSH1 0x2 PUSH1 0x0 DUP2 SWAP1 SSTORE POP JUMP JUMPDEST PUSH1 0x1 PUSH1 0x0 DUP2 SWAP1 SSTORE POP JUMP JUMPDEST PUSH1 0x0 DUP2 PUSH1 0x40 MLOAD PUSH1 0x20 ADD PUSH2 0x13CC SWAP2 SWAP1 PUSH2 0x1E19 JUMP JUMPDEST PUSH1 0x40 MLOAD PUSH1 0x20 DUP2 DUP4 SUB SUB DUP2 MSTORE SWAP1 PUSH1 0x40 MSTORE DUP1 MLOAD SWAP1 PUSH1 0x20 ADD KECCAK256 SWAP1 POP SWAP2 SWAP1 POP JUMP JUMPDEST PUSH1 0x60 PUSH1 0x0 PUSH2 0x13F6 DUP4 PUSH2 0x13B9 JUMP JUMPDEST SWAP1 POP PUSH2 0x1404 DUP2 PUSH1 0x0 SHR PUSH2 0x1436 JUMP JUMPDEST PUSH2 0x140D DUP6 PUSH2 0x1436 JUMP JUMPDEST PUSH1 0x40 MLOAD PUSH1 0x20 ADD PUSH2 0x141E SWAP3 SWAP2 SWAP1 PUSH2 0x22E3 JUMP JUMPDEST PUSH1 0x40 MLOAD PUSH1 0x20 DUP2 DUP4 SUB SUB DUP2 MSTORE SWAP1 PUSH1 0x40 MSTORE SWAP2 POP POP SWAP3 SWAP2 POP POP JUMP JUMPDEST PUSH1 0x60 PUSH1 0x0 DUP3 EQ ISZERO PUSH2 0x147E JUMPI PUSH1 0x40 MLOAD DUP1 PUSH1 0x40 ADD PUSH1 0x40 MSTORE DUP1 PUSH1 0x1 DUP2 MSTORE PUSH1 0x20 ADD PUSH32 0x3000000000000000000000000000000000000000000000000000000000000000 DUP2 MSTORE POP SWAP1 POP PUSH2 0x159B JUMP JUMPDEST PUSH1 0x0 DUP3 SWAP1 POP PUSH1 0x0 JUMPDEST PUSH1 0x0 DUP3 EQ PUSH2 0x14B0 JUMPI DUP1 DUP1 PUSH2 0x1499 SWAP1 PUSH2 0x1C96 JUMP JUMPDEST SWAP2 POP POP PUSH1 0xA DUP3 PUSH2 0x14A9 SWAP2 SWAP1 PUSH2 0x2341 JUMP JUMPDEST SWAP2 POP PUSH2 0x1486 JUMP JUMPDEST PUSH1 0x0 DUP2 PUSH8 0xFFFFFFFFFFFFFFFF DUP2 GT ISZERO PUSH2 0x14CC JUMPI PUSH2 0x14CB PUSH2 0x1762 JUMP JUMPDEST JUMPDEST PUSH1 0x40 MLOAD SWAP1 DUP1 DUP3 MSTORE DUP1 PUSH1 0x1F ADD PUSH1 0x1F NOT AND PUSH1 0x20 ADD DUP3 ADD PUSH1 0x40 MSTORE DUP1 ISZERO PUSH2 0x14FE JUMPI DUP2 PUSH1 0x20 ADD PUSH1 0x1 DUP3 MUL DUP1 CALLDATASIZE DUP4 CALLDATACOPY DUP1 DUP3 ADD SWAP2 POP POP SWAP1 POP JUMPDEST POP SWAP1 POP PUSH1 0x0 DUP3 SWAP1 POP DUP6 SWAP4 POP JUMPDEST PUSH1 0x0 DUP5 EQ PUSH2 0x1593 JUMPI PUSH1 0x1 DUP2 PUSH2 0x151F SWAP2 SWAP1 PUSH2 0x1FD5 JUMP JUMPDEST SWAP1 POP PUSH1 0xA DUP5 PUSH2 0x152E SWAP2 SWAP1 PUSH2 0x2372 JUMP JUMPDEST PUSH1 0x30 PUSH2 0x153A SWAP2 SWAP1 PUSH2 0x1C40 JUMP JUMPDEST PUSH1 0xF8 SHL DUP3 DUP3 DUP2 MLOAD DUP2 LT PUSH2 0x1550 JUMPI PUSH2 0x154F PUSH2 0x23A3 JUMP JUMPDEST JUMPDEST PUSH1 0x20 ADD ADD SWAP1 PUSH31 0xFFFFFFFFFFFFFFFFFFFFFFFFFFFFFFFFFFFFFFFFFFFFFFFFFFFFFFFFFFFFFF NOT AND SWAP1 DUP2 PUSH1 0x0 BYTE SWAP1 MSTORE8 POP PUSH1 0xA DUP5 PUSH2 0x158C SWAP2 SWAP1 PUSH2 0x2341 JUMP JUMPDEST SWAP4 POP PUSH2 0x150A JUMP JUMPDEST DUP2 SWAP5 POP POP POP POP POP JUMPDEST SWAP2 SWAP1 POP JUMP JUMPDEST DUP3 DUP1 SLOAD PUSH2 0x15AC SWAP1 PUSH2 0x1FA3 JUMP JUMPDEST SWAP1 PUSH1 0x0 MSTORE PUSH1 0x20 PUSH1 0x0 KECCAK256 SWAP1 PUSH1 0x1F ADD PUSH1 0x20 SWAP1 DIV DUP2 ADD SWAP3 DUP3 PUSH2 0x15CE JUMPI PUSH1 0x0 DUP6 SSTORE PUSH2 0x1615 JUMP JUMPDEST DUP3 PUSH1 0x1F LT PUSH2 0x15E7 JUMPI DUP1 MLOAD PUSH1 0xFF NOT AND DUP4 DUP1 ADD OR DUP6 SSTORE PUSH2 0x1615 JUMP JUMPDEST DUP3 DUP1 ADD PUSH1 0x1 ADD DUP6 SSTORE DUP3 ISZERO PUSH2 0x1615 JUMPI SWAP2 DUP3 ADD JUMPDEST DUP3 DUP2 GT ISZERO PUSH2 0x1614 JUMPI DUP3 MLOAD DUP3 SSTORE SWAP2 PUSH1 0x20 ADD SWAP2 SWAP1 PUSH1 0x1 ADD SWAP1 PUSH2 0x15F9 JUMP JUMPDEST JUMPDEST POP SWAP1 POP PUSH2 0x1622 SWAP2 SWAP1 PUSH2 0x1626 JUMP JUMPDEST POP SWAP1 JUMP JUMPDEST JUMPDEST DUP1 DUP3 GT ISZERO PUSH2 0x163F JUMPI PUSH1 0x0 DUP2 PUSH1 0x0 SWAP1 SSTORE POP PUSH1 0x1 ADD PUSH2 0x1627 JUMP JUMPDEST POP SWAP1 JUMP JUMPDEST PUSH1 0x0 DUP2 SWAP1 POP SWAP2 SWAP1 POP JUMP JUMPDEST PUSH2 0x1656 DUP2 PUSH2 0x1643 JUMP JUMPDEST DUP3 MSTORE POP POP JUMP JUMPDEST PUSH1 0x0 PUSH1 0x20 DUP3 ADD SWAP1 POP PUSH2 0x1671 PUSH1 0x0 DUP4 ADD DUP5 PUSH2 0x164D JUMP JUMPDEST SWAP3 SWAP2 POP POP JUMP JUMPDEST PUSH1 0x0 PUSH1 0x40 MLOAD SWAP1 POP SWAP1 JUMP JUMPDEST PUSH1 0x0 DUP1 REVERT JUMPDEST PUSH1 0x0 DUP1 REVERT JUMPDEST PUSH1 0x0 DUP2 SWAP1 POP SWAP2 SWAP1 POP JUMP JUMPDEST PUSH2 0x169E DUP2 PUSH2 0x168B JUMP JUMPDEST DUP2 EQ PUSH2 0x16A9 JUMPI PUSH1 0x0 DUP1 REVERT JUMPDEST POP JUMP JUMPDEST PUSH1 0x0 DUP2 CALLDATALOAD SWAP1 POP PUSH2 0x16BB DUP2 PUSH2 0x1695 JUMP JUMPDEST SWAP3 SWAP2 POP POP JUMP JUMPDEST PUSH1 0x0 PUSH1 0x20 DUP3 DUP5 SUB SLT ISZERO PUSH2 0x16D7 JUMPI PUSH2 0x16D6 PUSH2 0x1681 JUMP JUMPDEST JUMPDEST PUSH1 0x0 PUSH2 0x16E5 DUP5 DUP3 DUP6 ADD PUSH2 0x16AC JUMP JUMPDEST SWAP2 POP POP SWAP3 SWAP2 POP POP JUMP JUMPDEST PUSH2 0x16F7 DUP2 PUSH2 0x1643 JUMP JUMPDEST DUP2 EQ PUSH2 0x1702 JUMPI PUSH1 0x0 DUP1 REVERT JUMPDEST POP JUMP JUMPDEST PUSH1 0x0 DUP2 CALLDATALOAD SWAP1 POP PUSH2 0x1714 DUP2 PUSH2 0x16EE JUMP JUMPDEST SWAP3 SWAP2 POP POP JUMP JUMPDEST PUSH1 0x0 PUSH1 0x20 DUP3 DUP5 SUB SLT ISZERO PUSH2 0x1730 JUMPI PUSH2 0x172F PUSH2 0x1681 JUMP JUMPDEST JUMPDEST PUSH1 0x0 PUSH2 0x173E DUP5 DUP3 DUP6 ADD PUSH2 0x1705 JUMP JUMPDEST SWAP2 POP POP SWAP3 SWAP2 POP POP JUMP JUMPDEST PUSH1 0x0 DUP1 REVERT JUMPDEST PUSH1 0x0 DUP1 REVERT JUMPDEST PUSH1 0x0 PUSH1 0x1F NOT PUSH1 0x1F DUP4 ADD AND SWAP1 POP SWAP2 SWAP1 POP JUMP JUMPDEST PUSH32 0x4E487B7100000000000000000000000000000000000000000000000000000000 PUSH1 0x0 MSTORE PUSH1 0x41 PUSH1 0x4 MSTORE PUSH1 0x24 PUSH1 0x0 REVERT JUMPDEST PUSH2 0x179A DUP3 PUSH2 0x1751 JUMP JUMPDEST DUP2 ADD DUP2 DUP2 LT PUSH8 0xFFFFFFFFFFFFFFFF DUP3 GT OR ISZERO PUSH2 0x17B9 JUMPI PUSH2 0x17B8 PUSH2 0x1762 JUMP JUMPDEST JUMPDEST DUP1 PUSH1 0x40 MSTORE POP POP POP JUMP JUMPDEST PUSH1 0x0 PUSH2 0x17CC PUSH2 0x1677 JUMP JUMPDEST SWAP1 POP PUSH2 0x17D8 DUP3 DUP3 PUSH2 0x1791 JUMP JUMPDEST SWAP2 SWAP1 POP JUMP JUMPDEST PUSH1 0x0 PUSH8 0xFFFFFFFFFFFFFFFF DUP3 GT ISZERO PUSH2 0x17F8 JUMPI PUSH2 0x17F7 PUSH2 0x1762 JUMP JUMPDEST JUMPDEST PUSH2 0x1801 DUP3 PUSH2 0x1751 JUMP JUMPDEST SWAP1 POP PUSH1 0x20 DUP2 ADD SWAP1 POP SWAP2 SWAP1 POP JUMP JUMPDEST DUP3 DUP2 DUP4 CALLDATACOPY PUSH1 0x0 DUP4 DUP4 ADD MSTORE POP POP POP JUMP JUMPDEST PUSH1 0x0 PUSH2 0x1830 PUSH2 0x182B DUP5 PUSH2 0x17DD JUMP JUMPDEST PUSH2 0x17C2 JUMP JUMPDEST SWAP1 POP DUP3 DUP2 MSTORE PUSH1 0x20 DUP2 ADD DUP5 DUP5 DUP5 ADD GT ISZERO PUSH2 0x184C JUMPI PUSH2 0x184B PUSH2 0x174C JUMP JUMPDEST JUMPDEST PUSH2 0x1857 DUP5 DUP3 DUP6 PUSH2 0x180E JUMP JUMPDEST POP SWAP4 SWAP3 POP POP POP JUMP JUMPDEST PUSH1 0x0 DUP3 PUSH1 0x1F DUP4 ADD SLT PUSH2 0x1874 JUMPI PUSH2 0x1873 PUSH2 0x1747 JUMP JUMPDEST JUMPDEST DUP2 CALLDATALOAD PUSH2 0x1884 DUP5 DUP3 PUSH1 0x20 DUP7 ADD PUSH2 0x181D JUMP JUMPDEST SWAP2 POP POP SWAP3 SWAP2 POP POP JUMP JUMPDEST PUSH1 0x0 PUSH1 0x20 DUP3 DUP5 SUB SLT ISZERO PUSH2 0x18A3 JUMPI PUSH2 0x18A2 PUSH2 0x1681 JUMP JUMPDEST JUMPDEST PUSH1 0x0 DUP3 ADD CALLDATALOAD PUSH8 0xFFFFFFFFFFFFFFFF DUP2 GT ISZERO PUSH2 0x18C1 JUMPI PUSH2 0x18C0 PUSH2 0x1686 JUMP JUMPDEST JUMPDEST PUSH2 0x18CD DUP5 DUP3 DUP6 ADD PUSH2 0x185F JUMP JUMPDEST SWAP2 POP POP SWAP3 SWAP2 POP POP JUMP JUMPDEST PUSH1 0x0 DUP2 ISZERO ISZERO SWAP1 POP SWAP2 SWAP1 POP JUMP JUMPDEST PUSH2 0x18EB DUP2 PUSH2 0x18D6 JUMP JUMPDEST DUP3 MSTORE POP POP JUMP JUMPDEST PUSH1 0x0 PUSH1 0x60 DUP3 ADD SWAP1 POP PUSH2 0x1906 PUSH1 0x0 DUP4 ADD DUP7 PUSH2 0x164D JUMP JUMPDEST PUSH2 0x1913 PUSH1 0x20 DUP4 ADD DUP6 PUSH2 0x164D JUMP JUMPDEST PUSH2 0x1920 PUSH1 0x40 DUP4 ADD DUP5 PUSH2 0x18E2 JUMP JUMPDEST SWAP5 SWAP4 POP POP POP POP JUMP JUMPDEST PUSH1 0x0 PUSH20 0xFFFFFFFFFFFFFFFFFFFFFFFFFFFFFFFFFFFFFFFF DUP3 AND SWAP1 POP SWAP2 SWAP1 POP JUMP JUMPDEST PUSH1 0x0 PUSH2 0x1953 DUP3 PUSH2 0x1928 JUMP JUMPDEST SWAP1 POP SWAP2 SWAP1 POP JUMP JUMPDEST PUSH2 0x1963 DUP2 PUSH2 0x1948 JUMP JUMPDEST DUP3 MSTORE POP POP JUMP JUMPDEST PUSH1 0x0 PUSH1 0x20 DUP3 ADD SWAP1 POP PUSH2 0x197E PUSH1 0x0 DUP4 ADD DUP5 PUSH2 0x195A JUMP JUMPDEST SWAP3 SWAP2 POP POP JUMP JUMPDEST PUSH1 0x0 DUP1 PUSH1 0x40 DUP4 DUP6 SUB SLT ISZERO PUSH2 0x199B JUMPI PUSH2 0x199A PUSH2 0x1681 JUMP JUMPDEST JUMPDEST PUSH1 0x0 DUP4 ADD CALLDATALOAD PUSH8 0xFFFFFFFFFFFFFFFF DUP2 GT ISZERO PUSH2 0x19B9 JUMPI PUSH2 0x19B8 PUSH2 0x1686 JUMP JUMPDEST JUMPDEST PUSH2 0x19C5 DUP6 DUP3 DUP7 ADD PUSH2 0x185F JUMP JUMPDEST SWAP3 POP POP PUSH1 0x20 DUP4 ADD CALLDATALOAD PUSH8 0xFFFFFFFFFFFFFFFF DUP2 GT ISZERO PUSH2 0x19E6 JUMPI PUSH2 0x19E5 PUSH2 0x1686 JUMP JUMPDEST JUMPDEST PUSH2 0x19F2 DUP6 DUP3 DUP7 ADD PUSH2 0x185F JUMP JUMPDEST SWAP2 POP POP SWAP3 POP SWAP3 SWAP1 POP JUMP JUMPDEST PUSH2 0x1A05 DUP2 PUSH2 0x168B JUMP JUMPDEST DUP3 MSTORE POP POP JUMP JUMPDEST PUSH1 0x0 DUP2 MLOAD SWAP1 POP SWAP2 SWAP1 POP JUMP JUMPDEST PUSH1 0x0 DUP3 DUP3 MSTORE PUSH1 0x20 DUP3 ADD SWAP1 POP SWAP3 SWAP2 POP POP JUMP JUMPDEST PUSH1 0x0 JUMPDEST DUP4 DUP2 LT ISZERO PUSH2 0x1A45 JUMPI DUP1 DUP3 ADD MLOAD DUP2 DUP5 ADD MSTORE PUSH1 0x20 DUP2 ADD SWAP1 POP PUSH2 0x1A2A JUMP JUMPDEST DUP4 DUP2 GT ISZERO PUSH2 0x1A54 JUMPI PUSH1 0x0 DUP5 DUP5 ADD MSTORE JUMPDEST POP POP POP POP JUMP JUMPDEST PUSH1 0x0 PUSH2 0x1A65 DUP3 PUSH2 0x1A0B JUMP JUMPDEST PUSH2 0x1A6F DUP2 DUP6 PUSH2 0x1A16 JUMP JUMPDEST SWAP4 POP PUSH2 0x1A7F DUP2 DUP6 PUSH1 0x20 DUP7 ADD PUSH2 0x1A27 JUMP JUMPDEST PUSH2 0x1A88 DUP2 PUSH2 0x1751 JUMP JUMPDEST DUP5 ADD SWAP2 POP POP SWAP3 SWAP2 POP POP JUMP JUMPDEST PUSH1 0x0 PUSH1 0x60 DUP3 ADD SWAP1 POP PUSH2 0x1AA8 PUSH1 0x0 DUP4 ADD DUP7 PUSH2 0x19FC JUMP JUMPDEST DUP2 DUP2 SUB PUSH1 0x20 DUP4 ADD MSTORE PUSH2 0x1ABA DUP2 DUP6 PUSH2 0x1A5A JUMP JUMPDEST SWAP1 POP PUSH2 0x1AC9 PUSH1 0x40 DUP4 ADD DUP5 PUSH2 0x18E2 JUMP JUMPDEST SWAP5 SWAP4 POP POP POP POP JUMP JUMPDEST PUSH1 0x0 PUSH1 0x20 DUP3 ADD SWAP1 POP DUP2 DUP2 SUB PUSH1 0x0 DUP4 ADD MSTORE PUSH2 0x1AEB DUP2 DUP5 PUSH2 0x1A5A JUMP JUMPDEST SWAP1 POP SWAP3 SWAP2 POP POP JUMP JUMPDEST PUSH1 0x0 DUP1 PUSH1 0x40 DUP4 DUP6 SUB SLT ISZERO PUSH2 0x1B0A JUMPI PUSH2 0x1B09 PUSH2 0x1681 JUMP JUMPDEST JUMPDEST PUSH1 0x0 PUSH2 0x1B18 DUP6 DUP3 DUP7 ADD PUSH2 0x1705 JUMP JUMPDEST SWAP3 POP POP PUSH1 0x20 DUP4 ADD CALLDATALOAD PUSH8 0xFFFFFFFFFFFFFFFF DUP2 GT ISZERO PUSH2 0x1B39 JUMPI PUSH2 0x1B38 PUSH2 0x1686 JUMP JUMPDEST JUMPDEST PUSH2 0x1B45 DUP6 DUP3 DUP7 ADD PUSH2 0x185F JUMP JUMPDEST SWAP2 POP POP SWAP3 POP SWAP3 SWAP1 POP JUMP JUMPDEST PUSH1 0x0 PUSH1 0x40 DUP3 ADD SWAP1 POP PUSH2 0x1B64 PUSH1 0x0 DUP4 ADD DUP6 PUSH2 0x18E2 JUMP JUMPDEST DUP2 DUP2 SUB PUSH1 0x20 DUP4 ADD MSTORE PUSH2 0x1B76 DUP2 DUP5 PUSH2 0x1A5A JUMP JUMPDEST SWAP1 POP SWAP4 SWAP3 POP POP POP JUMP JUMPDEST PUSH32 0x48616E79612070656D696C696B2061636172612079616E67206461706174206D PUSH1 0x0 DUP3 ADD MSTORE PUSH32 0x656C616B756B616E20696E690000000000000000000000000000000000000000 PUSH1 0x20 DUP3 ADD MSTORE POP JUMP JUMPDEST PUSH1 0x0 PUSH2 0x1BDB PUSH1 0x2C DUP4 PUSH2 0x1A16 JUMP JUMPDEST SWAP2 POP PUSH2 0x1BE6 DUP3 PUSH2 0x1B7F JUMP JUMPDEST PUSH1 0x40 DUP3 ADD SWAP1 POP SWAP2 SWAP1 POP JUMP JUMPDEST PUSH1 0x0 PUSH1 0x20 DUP3 ADD SWAP1 POP DUP2 DUP2 SUB PUSH1 0x0 DUP4 ADD MSTORE PUSH2 0x1C0A DUP2 PUSH2 0x1BCE JUMP JUMPDEST SWAP1 POP SWAP2 SWAP1 POP JUMP JUMPDEST PUSH32 0x4E487B7100000000000000000000000000000000000000000000000000000000 PUSH1 0x0 MSTORE PUSH1 0x11 PUSH1 0x4 MSTORE PUSH1 0x24 PUSH1 0x0 REVERT JUMPDEST PUSH1 0x0 PUSH2 0x1C4B DUP3 PUSH2 0x1643 JUMP JUMPDEST SWAP2 POP PUSH2 0x1C56 DUP4 PUSH2 0x1643 JUMP JUMPDEST SWAP3 POP DUP3 PUSH32 0xFFFFFFFFFFFFFFFFFFFFFFFFFFFFFFFFFFFFFFFFFFFFFFFFFFFFFFFFFFFFFFFF SUB DUP3 GT ISZERO PUSH2 0x1C8B JUMPI PUSH2 0x1C8A PUSH2 0x1C11 JUMP JUMPDEST JUMPDEST DUP3 DUP3 ADD SWAP1 POP SWAP3 SWAP2 POP POP JUMP JUMPDEST PUSH1 0x0 PUSH2 0x1CA1 DUP3 PUSH2 0x1643 JUMP JUMPDEST SWAP2 POP PUSH32 0xFFFFFFFFFFFFFFFFFFFFFFFFFFFFFFFFFFFFFFFFFFFFFFFFFFFFFFFFFFFFFFFF DUP3 EQ ISZERO PUSH2 0x1CD4 JUMPI PUSH2 0x1CD3 PUSH2 0x1C11 JUMP JUMPDEST JUMPDEST PUSH1 0x1 DUP3 ADD SWAP1 POP SWAP2 SWAP1 POP JUMP JUMPDEST PUSH32 0x4A756D6C61682074696B657420746964616B2074657273656469610000000000 PUSH1 0x0 DUP3 ADD MSTORE POP JUMP JUMPDEST PUSH1 0x0 PUSH2 0x1D15 PUSH1 0x1B DUP4 PUSH2 0x1A16 JUMP JUMPDEST SWAP2 POP PUSH2 0x1D20 DUP3 PUSH2 0x1CDF JUMP JUMPDEST PUSH1 0x20 DUP3 ADD SWAP1 POP SWAP2 SWAP1 POP JUMP JUMPDEST PUSH1 0x0 PUSH1 0x20 DUP3 ADD SWAP1 POP DUP2 DUP2 SUB PUSH1 0x0 DUP4 ADD MSTORE PUSH2 0x1D44 DUP2 PUSH2 0x1D08 JUMP JUMPDEST SWAP1 POP SWAP2 SWAP1 POP JUMP JUMPDEST PUSH32 0x4A756D6C61682074696B6574206D656C6562696869206261746173206D616B73 PUSH1 0x0 DUP3 ADD MSTORE PUSH32 0x696D756D20706572206964656E74697461730000000000000000000000000000 PUSH1 0x20 DUP3 ADD MSTORE POP JUMP JUMPDEST PUSH1 0x0 PUSH2 0x1DA7 PUSH1 0x32 DUP4 PUSH2 0x1A16 JUMP JUMPDEST SWAP2 POP PUSH2 0x1DB2 DUP3 PUSH2 0x1D4B JUMP JUMPDEST PUSH1 0x40 DUP3 ADD SWAP1 POP SWAP2 SWAP1 POP JUMP JUMPDEST PUSH1 0x0 PUSH1 0x20 DUP3 ADD SWAP1 POP DUP2 DUP2 SUB PUSH1 0x0 DUP4 ADD MSTORE PUSH2 0x1DD6 DUP2 PUSH2 0x1D9A JUMP JUMPDEST SWAP1 POP SWAP2 SWAP1 POP JUMP JUMPDEST PUSH1 0x0 DUP2 SWAP1 POP SWAP3 SWAP2 POP POP JUMP JUMPDEST PUSH1 0x0 PUSH2 0x1DF3 DUP3 PUSH2 0x1A0B JUMP JUMPDEST PUSH2 0x1DFD DUP2 DUP6 PUSH2 0x1DDD JUMP JUMPDEST SWAP4 POP PUSH2 0x1E0D DUP2 DUP6 PUSH1 0x20 DUP7 ADD PUSH2 0x1A27 JUMP JUMPDEST DUP1 DUP5 ADD SWAP2 POP POP SWAP3 SWAP2 POP POP JUMP JUMPDEST PUSH1 0x0 PUSH2 0x1E25 DUP3 DUP5 PUSH2 0x1DE8 JUMP JUMPDEST SWAP2 POP DUP2 SWAP1 POP SWAP3 SWAP2 POP POP JUMP JUMPDEST PUSH32 0x54696B657420746964616B20646974656D756B616E0000000000000000000000 PUSH1 0x0 DUP3 ADD MSTORE POP JUMP JUMPDEST PUSH1 0x0 PUSH2 0x1E66 PUSH1 0x15 DUP4 PUSH2 0x1A16 JUMP JUMPDEST SWAP2 POP PUSH2 0x1E71 DUP3 PUSH2 0x1E30 JUMP JUMPDEST PUSH1 0x20 DUP3 ADD SWAP1 POP SWAP2 SWAP1 POP JUMP JUMPDEST PUSH1 0x0 PUSH1 0x20 DUP3 ADD SWAP1 POP DUP2 DUP2 SUB PUSH1 0x0 DUP4 ADD MSTORE PUSH2 0x1E95 DUP2 PUSH2 0x1E59 JUMP JUMPDEST SWAP1 POP SWAP2 SWAP1 POP JUMP JUMPDEST PUSH32 0x54696B657420737564616820646967756E616B616E0000000000000000000000 PUSH1 0x0 DUP3 ADD MSTORE POP JUMP JUMPDEST PUSH1 0x0 PUSH2 0x1ED2 PUSH1 0x15 DUP4 PUSH2 0x1A16 JUMP JUMPDEST SWAP2 POP PUSH2 0x1EDD DUP3 PUSH2 0x1E9C JUMP JUMPDEST PUSH1 0x20 DUP3 ADD SWAP1 POP SWAP2 SWAP1 POP JUMP JUMPDEST PUSH1 0x0 PUSH1 0x20 DUP3 ADD SWAP1 POP DUP2 DUP2 SUB PUSH1 0x0 DUP4 ADD MSTORE PUSH2 0x1F01 DUP2 PUSH2 0x1EC5 JUMP JUMPDEST SWAP1 POP SWAP2 SWAP1 POP JUMP JUMPDEST PUSH32 0x4964656E746974617320746964616B2073657375616900000000000000000000 PUSH1 0x0 DUP3 ADD MSTORE POP JUMP JUMPDEST PUSH1 0x0 PUSH2 0x1F3E PUSH1 0x16 DUP4 PUSH2 0x1A16 JUMP JUMPDEST SWAP2 POP PUSH2 0x1F49 DUP3 PUSH2 0x1F08 JUMP JUMPDEST PUSH1 0x20 DUP3 ADD SWAP1 POP SWAP2 SWAP1 POP JUMP JUMPDEST PUSH1 0x0 PUSH1 0x20 DUP3 ADD SWAP1 POP DUP2 DUP2 SUB PUSH1 0x0 DUP4 ADD MSTORE PUSH2 0x1F6D DUP2 PUSH2 0x1F31 JUMP JUMPDEST SWAP1 POP SWAP2 SWAP1 POP JUMP JUMPDEST PUSH32 0x4E487B7100000000000000000000000000000000000000000000000000000000 PUSH1 0x0 MSTORE PUSH1 0x22 PUSH1 0x4 MSTORE PUSH1 0x24 PUSH1 0x0 REVERT JUMPDEST PUSH1 0x0 PUSH1 0x2 DUP3 DIV SWAP1 POP PUSH1 0x1 DUP3 AND DUP1 PUSH2 0x1FBB JUMPI PUSH1 0x7F DUP3 AND SWAP2 POP JUMPDEST PUSH1 0x20 DUP3 LT DUP2 EQ ISZERO PUSH2 0x1FCF JUMPI PUSH2 0x1FCE PUSH2 0x1F74 JUMP JUMPDEST JUMPDEST POP SWAP2 SWAP1 POP JUMP JUMPDEST PUSH1 0x0 PUSH2 0x1FE0 DUP3 PUSH2 0x1643 JUMP JUMPDEST SWAP2 POP PUSH2 0x1FEB DUP4 PUSH2 0x1643 JUMP JUMPDEST SWAP3 POP DUP3 DUP3 LT ISZERO PUSH2 0x1FFE JUMPI PUSH2 0x1FFD PUSH2 0x1C11 JUMP JUMPDEST JUMPDEST DUP3 DUP3 SUB SWAP1 POP SWAP3 SWAP2 POP POP JUMP JUMPDEST PUSH32 0x4E494B2068617275732074657264697269206461726920313620646967697400 PUSH1 0x0 DUP3 ADD MSTORE POP JUMP JUMPDEST PUSH1 0x0 PUSH2 0x203F PUSH1 0x1F DUP4 PUSH2 0x1A16 JUMP JUMPDEST SWAP2 POP PUSH2 0x204A DUP3 PUSH2 0x2009 JUMP JUMPDEST PUSH1 0x20 DUP3 ADD SWAP1 POP SWAP2 SWAP1 POP JUMP JUMPDEST PUSH1 0x0 PUSH1 0x20 DUP3 ADD SWAP1 POP DUP2 DUP2 SUB PUSH1 0x0 DUP4 ADD MSTORE PUSH2 0x206E DUP2 PUSH2 0x2032 JUMP JUMPDEST SWAP1 POP SWAP2 SWAP1 POP JUMP JUMPDEST PUSH32 0x486F6C6420494420746964616B2076616C696420617461752073756461682064 PUSH1 0x0 DUP3 ADD MSTORE PUSH32 0x696C657061730000000000000000000000000000000000000000000000000000 PUSH1 0x20 DUP3 ADD MSTORE POP JUMP JUMPDEST PUSH1 0x0 PUSH2 0x20D1 PUSH1 0x26 DUP4 PUSH2 0x1A16 JUMP JUMPDEST SWAP2 POP PUSH2 0x20DC DUP3 PUSH2 0x2075 JUMP JUMPDEST PUSH1 0x40 DUP3 ADD SWAP1 POP SWAP2 SWAP1 POP JUMP JUMPDEST PUSH1 0x0 PUSH1 0x20 DUP3 ADD SWAP1 POP DUP2 DUP2 SUB PUSH1 0x0 DUP4 ADD MSTORE PUSH2 0x2100 DUP2 PUSH2 0x20C4 JUMP JUMPDEST SWAP1 POP SWAP2 SWAP1 POP JUMP JUMPDEST PUSH32 0x4964656E746974617320696E69207375646168206D656D62656C692074696B65 PUSH1 0x0 DUP3 ADD MSTORE PUSH32 0x7400000000000000000000000000000000000000000000000000000000000000 PUSH1 0x20 DUP3 ADD MSTORE POP JUMP JUMPDEST PUSH1 0x0 PUSH2 0x2163 PUSH1 0x21 DUP4 PUSH2 0x1A16 JUMP JUMPDEST SWAP2 POP PUSH2 0x216E DUP3 PUSH2 0x2107 JUMP JUMPDEST PUSH1 0x40 DUP3 ADD SWAP1 POP SWAP2 SWAP1 POP JUMP JUMPDEST PUSH1 0x0 PUSH1 0x20 DUP3 ADD SWAP1 POP DUP2 DUP2 SUB PUSH1 0x0 DUP4 ADD MSTORE PUSH2 0x2192 DUP2 PUSH2 0x2156 JUMP JUMPDEST SWAP1 POP SWAP2 SWAP1 POP JUMP JUMPDEST PUSH32 0x57616B747520686F6C642074696B65742073756461682068616269732064616E PUSH1 0x0 DUP3 ADD MSTORE PUSH32 0x2074696B65742074656C61682064696C657061732E0000000000000000000000 PUSH1 0x20 DUP3 ADD MSTORE POP JUMP JUMPDEST PUSH1 0x0 PUSH2 0x21F5 PUSH1 0x35 DUP4 PUSH2 0x1A16 JUMP JUMPDEST SWAP2 POP PUSH2 0x2200 DUP3 PUSH2 0x2199 JUMP JUMPDEST PUSH1 0x40 DUP3 ADD SWAP1 POP SWAP2 SWAP1 POP JUMP JUMPDEST PUSH1 0x0 PUSH1 0x20 DUP3 ADD SWAP1 POP DUP2 DUP2 SUB PUSH1 0x0 DUP4 ADD MSTORE PUSH2 0x2224 DUP2 PUSH2 0x21E8 JUMP JUMPDEST SWAP1 POP SWAP2 SWAP1 POP JUMP JUMPDEST PUSH32 0x5265656E7472616E637947756172643A207265656E7472616E742063616C6C00 PUSH1 0x0 DUP3 ADD MSTORE POP JUMP JUMPDEST PUSH1 0x0 PUSH2 0x2261 PUSH1 0x1F DUP4 PUSH2 0x1A16 JUMP JUMPDEST SWAP2 POP PUSH2 0x226C DUP3 PUSH2 0x222B JUMP JUMPDEST PUSH1 0x20 DUP3 ADD SWAP1 POP SWAP2 SWAP1 POP JUMP JUMPDEST PUSH1 0x0 PUSH1 0x20 DUP3 ADD SWAP1 POP DUP2 DUP2 SUB PUSH1 0x0 DUP4 ADD MSTORE PUSH2 0x2290 DUP2 PUSH2 0x2254 JUMP JUMPDEST SWAP1 POP SWAP2 SWAP1 POP JUMP JUMPDEST PUSH32 0x2D00000000000000000000000000000000000000000000000000000000000000 PUSH1 0x0 DUP3 ADD MSTORE POP JUMP JUMPDEST PUSH1 0x0 PUSH2 0x22CD PUSH1 0x1 DUP4 PUSH2 0x1DDD JUMP JUMPDEST SWAP2 POP PUSH2 0x22D8 DUP3 PUSH2 0x2297 JUMP JUMPDEST PUSH1 0x1 DUP3 ADD SWAP1 POP SWAP2 SWAP1 POP JUMP JUMPDEST PUSH1 0x0 PUSH2 0x22EF DUP3 DUP6 PUSH2 0x1DE8 JUMP JUMPDEST SWAP2 POP PUSH2 0x22FA DUP3 PUSH2 0x22C0 JUMP JUMPDEST SWAP2 POP PUSH2 0x2306 DUP3 DUP5 PUSH2 0x1DE8 JUMP JUMPDEST SWAP2 POP DUP2 SWAP1 POP SWAP4 SWAP3 POP POP POP JUMP JUMPDEST PUSH32 0x4E487B7100000000000000000000000000000000000000000000000000000000 PUSH1 0x0 MSTORE PUSH1 0x12 PUSH1 0x4 MSTORE PUSH1 0x24 PUSH1 0x0 REVERT JUMPDEST PUSH1 0x0 PUSH2 0x234C DUP3 PUSH2 0x1643 JUMP JUMPDEST SWAP2 POP PUSH2 0x2357 DUP4 PUSH2 0x1643 JUMP JUMPDEST SWAP3 POP DUP3 PUSH2 0x2367 JUMPI PUSH2 0x2366 PUSH2 0x2312 JUMP JUMPDEST JUMPDEST DUP3 DUP3 DIV SWAP1 POP SWAP3 SWAP2 POP POP JUMP JUMPDEST PUSH1 0x0 PUSH2 0x237D DUP3 PUSH2 0x1643 JUMP JUMPDEST SWAP2 POP PUSH2 0x2388 DUP4 PUSH2 0x1643 JUMP JUMPDEST SWAP3 POP DUP3 PUSH2 0x2398 JUMPI PUSH2 0x2397 PUSH2 0x2312 JUMP JUMPDEST JUMPDEST DUP3 DUP3 MOD SWAP1 POP SWAP3 SWAP2 POP POP JUMP JUMPDEST PUSH32 0x4E487B7100000000000000000000000000000000000000000000000000000000 PUSH1 0x0 MSTORE PUSH1 0x32 PUSH1 0x4 MSTORE PUSH1 0x24 PUSH1 0x0 REVERT INVALID LOG2 PUSH5 0x6970667358 0x22 SLT KECCAK256 0x21 DUP6 PUSH12 0x6C7F3E3E136951353D080FA POP DUP5 CALL AND 0xC1 0xCC 0xAF SWAP5 0xC SLT 0x5F CALLCODE RETURNDATACOPY OR CALLDATASIZE PUSH26 0xA164736F6C634300080900330000000000000000000000000000 "},"gasEstimates":{"creation":{"codeDepositCost":"1844800","executionCost":"infinite","totalCost":"infinite"},"external":{"beliTiket(uint256,string)":"infinite","cekTiket(string,string)":"infinite","daftarTiket(uint256)":"infinite","getHargaTiket()":"2505","getTiketDiHold()":"infinite","gunakanTiket(string,string)":"infinite","hargaTiket()":"2474","holdDuration()":"2474","holdNik(uint256)":"infinite","holdTiketData(uint256)":"infinite","holdTiketSementara(uint256)":"infinite","kodeTiketToId(string)":"infinite","maxTiketPerIdentitas()":"2475","nextHoldId()":"2539","owner()":"2625","releaseHoldTiket(uint256)":"76853","tiketDibeliPerNIK(string)":"infinite","tiketPerIdentitas(bytes32)":"2855","tiketTerjual()":"2453","tiketTersedia()":"infinite","totalTiket()":"2496"},"internal":{"generateKodeUnik(uint256,string memory)":"infinite","hashNIK(string memory)":"infinite","uint2str(uint256)":"infinite"}},"methodIdentifiers":{"beliTiket(uint256,string)":"d13816c7","cekTiket(string,string)":"de94f377","daftarTiket(uint256)":"9b1537c2","getHargaTiket()":"276a14a6","getTiketDiHold()":"bbed3c8d","gunakanTiket(string,string)":"90a9c2b3","hargaTiket()":"950a8a54","holdDuration()":"57e4288a","holdNik(uint256)":"c62efa37","holdTiketData(uint256)":"8a5ce1cf","holdTiketSementara(uint256)":"480ddc60","kodeTiketToId(string)":"4c7d460f","maxTiketPerIdentitas()":"1e94d974","nextHoldId()":"f12e1dd0","owner()":"8da5cb5b","releaseHoldTiket(uint256)":"f75a99c1","tiketDibeliPerNIK(string)":"ef629b16","tiketPerIdentitas(bytes32)":"338843cc","tiketTerjual()":"08548f33","tiketTersedia()":"b7b3628e","totalTiket()":"71367ab8"}},"storageLayout":{"storage":[{"astId":736,"contract":"Tiket.sol:Tiket","label":"_status","offset":0,"slot":"0","type":"t_uint256"},{"astId":6,"contract":"Tiket.sol:Tiket","label":"owner","offset":0,"slot":"1","type":"t_address"},{"astId":8,"contract":"Tiket.sol:Tiket","label":"totalTiket","offset":0,"slot":"2","type":"t_uint256"},{"astId":10,"contract":"Tiket.sol:Tiket","label":"tiketTerjual","offset":0,"slot":"3","type":"t_uint256"},{"astId":12,"contract":"Tiket.sol:Tiket","label":"maxTiketPerIdentitas","offset":0,"slot":"4","type":"t_uint256"},{"astId":15,"contract":"Tiket.sol:Tiket","label":"holdDuration","offset":0,"slot":"5","type":"t_uint256"},{"astId":18,"contract":"Tiket.sol:Tiket","label":"nextHoldId","offset":0,"slot":"6","type":"t_uint256"},{"astId":20,"contract":"Tiket.sol:Tiket","label":"hargaTiket","offset":0,"slot":"7","type":"t_uint256"},{"astId":39,"contract":"Tiket.sol:Tiket","label":"holdTiketData","offset":0,"slot":"8","type":"t_mapping(t_uint256,t_struct(HoldTiket)34_storage)"},{"astId":43,"contract":"Tiket.sol:Tiket","label":"holdNik","offset":0,"slot":"9","type":"t_mapping(t_uint256,t_string_storage)"},{"astId":47,"contract":"Tiket.sol:Tiket","label":"tiketPerIdentitas","offset":0,"slot":"10","type":"t_mapping(t_bytes32,t_uint256)"},{"astId":51,"contract":"Tiket.sol:Tiket","label":"kodeTiketToId","offset":0,"slot":"11","type":"t_mapping(t_string_memory_ptr,t_uint256)"},{"astId":56,"contract":"Tiket.sol:Tiket","label":"daftarTiket","offset":0,"slot":"12","type":"t_mapping(t_uint256,t_struct(TiketDetail)27_storage)"},{"astId":60,"contract":"Tiket.sol:Tiket","label":"tiketDibeliPerNIK","offset":0,"slot":"13","type":"t_mapping(t_string_memory_ptr,t_uint256)"}],"types":{"t_address":{"encoding":"inplace","label":"address","numberOfBytes":"20"},"t_bool":{"encoding":"inplace","label":"bool","numberOfBytes":"1"},"t_bytes32":{"encoding":"inplace","label":"bytes32","numberOfBytes":"32"},"t_mapping(t_bytes32,t_uint256)":{"encoding":"mapping","key":"t_bytes32","label":"mapping(bytes32 => uint256)","numberOfBytes":"32","value":"t_uint256"},"t_mapping(t_string_memory_ptr,t_uint256)":{"encoding":"mapping","key":"t_string_memory_ptr","label":"mapping(string => uint256)","numberOfBytes":"32","value":"t_uint256"},"t_mapping(t_uint256,t_string_storage)":{"encoding":"mapping","key":"t_uint256","label":"mapping(uint256 => string)","numberOfBytes":"32","value":"t_string_storage"},"t_mapping(t_uint256,t_struct(HoldTiket)34_storage)":{"encoding":"mapping","key":"t_uint256","label":"mapping(uint256 => struct Tiket.HoldTiket)","numberOfBytes":"32","value":"t_struct(HoldTiket)34_storage"},"t_mapping(t_uint256,t_struct(TiketDetail)27_storage)":{"encoding":"mapping","key":"t_uint256","label":"mapping(uint256 => struct Tiket.TiketDetail)","numberOfBytes":"32","value":"t_struct(TiketDetail)27_storage"},"t_string_memory_ptr":{"encoding":"bytes","label":"string","numberOfBytes":"32"},"t_string_storage":{"encoding":"bytes","label":"string","numberOfBytes":"32"},"t_struct(HoldTiket)34_storage":{"encoding":"inplace","label":"struct Tiket.HoldTiket","members":[{"astId":29,"contract":"Tiket.sol:Tiket","label":"jumlahTiket","offset":0,"slot":"0","type":"t_uint256"},{"astId":31,"contract":"Tiket.sol:Tiket","label":"holdTimestamp","offset":0,"slot":"1","type":"t_uint256"},{"astId":33,"contract":"Tiket.sol:Tiket","label":"aktif","offset":0,"slot":"2","type":"t_bool"}],"numberOfBytes":"96"},"t_struct(TiketDetail)27_storage":{"encoding":"inplace","label":"struct Tiket.TiketDetail","members":[{"astId":22,"contract":"Tiket.sol:Tiket","label":"nikHash","offset":0,"slot":"0","type":"t_bytes32"},{"astId":24,"contract":"Tiket.sol:Tiket","label":"kodeUnik","offset":0,"slot":"1","type":"t_string_storage"},{"astId":26,"contract":"Tiket.sol:Tiket","label":"digunakan","offset":0,"slot":"2","type":"t_bool"}],"numberOfBytes":"96"},"t_uint256":{"encoding":"inplace","label":"uint256","numberOfBytes":"32"}}},"userdoc":{"kind":"user","methods":{},"version":1}}